{"contracts/Gaia_Location.sol":{"Gaia_Location":{"abi":[{"inputs":[],"stateMutability":"nonpayable","type":"constructor"},{"anonymous":false,"inputs":[{"indexed":false,"internalType":"address","name":"to","type":"address"},{"indexed":false,"internalType":"uint16","name":"lat","type":"uint16"},{"indexed":false,"internalType":"uint16","name":"lng","type":"uint16"}],"name":"LocationClaimed","type":"event"},{"anonymous":false,"inputs":[{"indexed":false,"internalType":"address","name":"to","type":"address"},{"components":[{"internalType":"uint16","name":"lat","type":"uint16"},{"internalType":"uint16","name":"lng","type":"uint16"}],"indexed":false,"internalType":"struct Gaia_Location.Loc[]","name":"locs","type":"tuple[]"}],"name":"LocationsClaimed","type":"event"},{"anonymous":false,"inputs":[{"indexed":true,"internalType":"address","name":"_from","type":"address"},{"indexed":true,"internalType":"address","name":"_to","type":"address"},{"indexed":true,"internalType":"uint256","name":"_tokenId","type":"uint256"}],"name":"Transfer","type":"event"},{"inputs":[{"components":[{"internalType":"uint16","name":"lat","type":"uint16"},{"internalType":"uint16","name":"lng","type":"uint16"}],"internalType":"struct Gaia_Location.Loc","name":"loc1","type":"tuple"},{"components":[{"internalType":"uint16","name":"lat","type":"uint16"},{"internalType":"uint16","name":"lng","type":"uint16"}],"internalType":"struct Gaia_Location.Loc","name":"loc2","type":"tuple"}],"name":"areAdjacent","outputs":[{"internalType":"bool","name":"","type":"bool"}],"stateMutability":"pure","type":"function"},{"inputs":[{"internalType":"address","name":"","type":"address"}],"name":"balanceOf","outputs":[{"internalType":"uint256","name":"","type":"uint256"}],"stateMutability":"view","type":"function"},{"inputs":[],"name":"decimals","outputs":[{"internalType":"uint8","name":"","type":"uint8"}],"stateMutability":"view","type":"function"},{"inputs":[],"name":"getAllOwners","outputs":[{"internalType":"address[]","name":"","type":"address[]"}],"stateMutability":"view","type":"function"},{"inputs":[{"internalType":"bytes","name":"locId","type":"bytes"}],"name":"getLocFromId","outputs":[{"internalType":"string","name":"","type":"string"}],"stateMutability":"pure","type":"function"},{"inputs":[{"internalType":"uint16","name":"minOwnedLat","type":"uint16"},{"internalType":"uint16","name":"minOwnedLng","type":"uint16"},{"internalType":"uint16","name":"maxOwnedLat","type":"uint16"},{"internalType":"uint16","name":"maxOwnedLng","type":"uint16"}],"name":"getOwnedLocationsInBounds","outputs":[{"components":[{"internalType":"uint16","name":"lat","type":"uint16"},{"internalType":"uint16","name":"lng","type":"uint16"}],"internalType":"struct Gaia_Location.Loc[]","name":"ownedLocs","type":"tuple[]"}],"stateMutability":"view","type":"function"},{"inputs":[{"internalType":"address","name":"_owner","type":"address"}],"name":"getOwnedTokenIds","outputs":[{"internalType":"uint256[]","name":"","type":"uint256[]"}],"stateMutability":"view","type":"function"},{"inputs":[{"internalType":"address","name":"_owner","type":"address"}],"name":"getUserLocations","outputs":[{"components":[{"internalType":"uint16","name":"lat","type":"uint16"},{"internalType":"uint16","name":"lng","type":"uint16"}],"internalType":"struct Gaia_Location.Loc[]","name":"","type":"tuple[]"}],"stateMutability":"view","type":"function"},{"inputs":[{"internalType":"uint16","name":"lat","type":"uint16"},{"internalType":"uint16","name":"lng","type":"uint16"}],"name":"hasOwner","outputs":[{"internalType":"bool","name":"","type":"bool"}],"stateMutability":"view","type":"function"},{"inputs":[{"internalType":"uint16","name":"lat","type":"uint16"},{"internalType":"uint16","name":"lng","type":"uint16"}],"name":"isValidLoc","outputs":[{"internalType":"bool","name":"","type":"bool"}],"stateMutability":"pure","type":"function"},{"inputs":[{"internalType":"uint256","name":"","type":"uint256"}],"name":"landOwners","outputs":[{"internalType":"address","name":"","type":"address"}],"stateMutability":"view","type":"function"},{"inputs":[{"internalType":"bytes","name":"","type":"bytes"}],"name":"locIdToOwner","outputs":[{"internalType":"address","name":"","type":"address"}],"stateMutability":"view","type":"function"},{"inputs":[{"internalType":"uint16","name":"","type":"uint16"},{"internalType":"uint16","name":"","type":"uint16"}],"name":"locationMap","outputs":[{"internalType":"address","name":"","type":"address"}],"stateMutability":"view","type":"function"},{"inputs":[{"internalType":"uint16","name":"lat","type":"uint16"},{"internalType":"uint16","name":"lng","type":"uint16"}],"name":"locationOwner","outputs":[{"internalType":"address","name":"","type":"address"}],"stateMutability":"view","type":"function"},{"inputs":[{"components":[{"internalType":"uint16","name":"lat","type":"uint16"},{"internalType":"uint16","name":"lng","type":"uint16"}],"internalType":"struct Gaia_Location.Loc[]","name":"locs","type":"tuple[]"}],"name":"mintMultipleLocations","outputs":[{"internalType":"uint256[]","name":"tokenIds","type":"uint256[]"}],"stateMutability":"nonpayable","type":"function"},{"inputs":[{"internalType":"uint16","name":"lat","type":"uint16"},{"internalType":"uint16","name":"lng","type":"uint16"}],"name":"mintSingleLocation","outputs":[{"internalType":"uint256","name":"","type":"uint256"}],"stateMutability":"nonpayable","type":"function"},{"inputs":[],"name":"name","outputs":[{"internalType":"string","name":"","type":"string"}],"stateMutability":"view","type":"function"},{"inputs":[{"internalType":"uint256","name":"_tokenId","type":"uint256"}],"name":"ownerOf","outputs":[{"internalType":"address","name":"","type":"address"}],"stateMutability":"view","type":"function"},{"inputs":[{"internalType":"address","name":"","type":"address"},{"internalType":"uint256","name":"","type":"uint256"}],"name":"ownerToTokenIds","outputs":[{"internalType":"uint256","name":"","type":"uint256"}],"stateMutability":"view","type":"function"},{"inputs":[],"name":"symbol","outputs":[{"internalType":"string","name":"","type":"string"}],"stateMutability":"view","type":"function"},{"inputs":[{"internalType":"uint256","name":"","type":"uint256"}],"name":"tokenIdToLocation","outputs":[{"internalType":"uint16","name":"lat","type":"uint16"},{"internalType":"uint16","name":"lng","type":"uint16"}],"stateMutability":"view","type":"function"},{"inputs":[{"internalType":"uint256","name":"","type":"uint256"}],"name":"tokenIdToOwner","outputs":[{"internalType":"address","name":"","type":"address"}],"stateMutability":"view","type":"function"},{"inputs":[{"internalType":"address","name":"_owner","type":"address"},{"internalType":"uint256","name":"_index","type":"uint256"}],"name":"tokenOfOwnerByIndex","outputs":[{"internalType":"uint256","name":"","type":"uint256"}],"stateMutability":"view","type":"function"},{"inputs":[],"name":"totalSupply","outputs":[{"internalType":"uint256","name":"","type":"uint256"}],"stateMutability":"view","type":"function"},{"inputs":[{"internalType":"uint16","name":"lat","type":"uint16"},{"internalType":"uint16","name":"lng","type":"uint16"},{"internalType":"address","name":"to","type":"address"}],"name":"transfer","outputs":[],"stateMutability":"nonpayable","type":"function"},{"inputs":[{"internalType":"address","name":"_from","type":"address"},{"internalType":"address","name":"_to","type":"address"},{"internalType":"uint256","name":"_tokenId","type":"uint256"}],"name":"transferFrom","outputs":[],"stateMutability":"payable","type":"function"}],"evm":{"bytecode":{"linkReferences":{},"object":"60806040526040518060400160405280600481526020017f4741494100000000000000000000000000000000000000000000000000000000815250600190816200004a919062000362565b506040518060400160405280600781526020017f552b3146333044000000000000000000000000000000000000000000000000008152506002908162000091919062000362565b506000600360006101000a81548160ff021916908360ff160217905550348015620000bb57600080fd5b50600061465061ffff16618ca061ffff16620000d8919062000478565b90508060078190555050620004c3565b600081519050919050565b7f4e487b7100000000000000000000000000000000000000000000000000000000600052604160045260246000fd5b7f4e487b7100000000000000000000000000000000000000000000000000000000600052602260045260246000fd5b600060028204905060018216806200016a57607f821691505b60208210810362000180576200017f62000122565b5b50919050565b60008190508160005260206000209050919050565b60006020601f8301049050919050565b600082821b905092915050565b600060088302620001ea7fffffffffffffffffffffffffffffffffffffffffffffffffffffffffffffffff82620001ab565b620001f68683620001ab565b95508019841693508086168417925050509392505050565b6000819050919050565b6000819050919050565b6000620002436200023d62000237846200020e565b62000218565b6200020e565b9050919050565b6000819050919050565b6200025f8362000222565b620002776200026e826200024a565b848454620001b8565b825550505050565b600090565b6200028e6200027f565b6200029b81848462000254565b505050565b5b81811015620002c357620002b760008262000284565b600181019050620002a1565b5050565b601f8211156200031257620002dc8162000186565b620002e7846200019b565b81016020851015620002f7578190505b6200030f62000306856200019b565b830182620002a0565b50505b505050565b600082821c905092915050565b6000620003376000198460080262000317565b1980831691505092915050565b600062000352838362000324565b9150826002028217905092915050565b6200036d82620000e8565b67ffffffffffffffff811115620003895762000388620000f3565b5b62000395825462000151565b620003a2828285620002c7565b600060209050601f831160018114620003da5760008415620003c5578287015190505b620003d1858262000344565b86555062000441565b601f198416620003ea8662000186565b60005b828110156200041457848901518255600182019150602085019450602081019050620003ed565b8683101562000434578489015162000430601f89168262000324565b8355505b6001600288020188555050505b505050505050565b7f4e487b7100000000000000000000000000000000000000000000000000000000600052601160045260246000fd5b600062000485826200020e565b915062000492836200020e565b9250828202620004a2816200020e565b91508282048414831517620004bc57620004bb62000449565b5b5092915050565b61321f80620004d36000396000f3fe6080604052600436106101815760003560e01c80636352211e116100d157806395d89b411161008a578063b340353711610064578063b340353714610636578063db6c0a2714610673578063df1ab202146106b0578063e60ff80b146106ed57610181565b806395d89b411461059157806397e1a1ed146105bc578063a3ae4f5c146105f957610181565b80636352211e1461042257806368a596c71461045f5780636e9e48ef1461049c57806370a08231146104d9578063749d5928146105165780638cf9527f1461055357610181565b80631d0404231161013e5780632f745c59116101185780632f745c5914610340578063313ce5671461037d5780634d04bd65146103a85780634fac7e41146103e557610181565b80631d040423146102aa57806323b872dd146102e757806329d176411461030357610181565b806306fdde03146101865780630ab9a71f146101b1578063106cf579146101da57806316c127461461021757806318160ddd146102425780631a0f76b11461026d575b600080fd5b34801561019257600080fd5b5061019b61072a565b6040516101a8919061205b565b60405180910390f35b3480156101bd57600080fd5b506101d860048036038101906101d39190612129565b6107b8565b005b3480156101e657600080fd5b5061020160048036038101906101fc919061217c565b6107bd565b60405161020e91906121cb565b60405180910390f35b34801561022357600080fd5b5061022c6107ff565b60405161023991906122a4565b60405180910390f35b34801561024e57600080fd5b5061025761088d565b60405161026491906122df565b60405180910390f35b34801561027957600080fd5b50610294600480360381019061028f9190612326565b610893565b6040516102a191906121cb565b60405180910390f35b3480156102b657600080fd5b506102d160048036038101906102cc9190612353565b6108d2565b6040516102de91906124a7565b60405180910390f35b61030160048036038101906102fc91906124c9565b610a7f565b005b34801561030f57600080fd5b5061032a6004803603810190610325919061217c565b610c51565b6040516103379190612537565b60405180910390f35b34801561034c57600080fd5b5061036760048036038101906103629190612552565b610c7d565b60405161037491906122df565b60405180910390f35b34801561038957600080fd5b50610392610d64565b60405161039f91906125ae565b60405180910390f35b3480156103b457600080fd5b506103cf60048036038101906103ca9190612766565b610d77565b6040516103dc919061286d565b60405180910390f35b3480156103f157600080fd5b5061040c6004803603810190610407919061288f565b6115c0565b604051610419919061286d565b60405180910390f35b34801561042e57600080fd5b5061044960048036038101906104449190612326565b6116d9565b60405161045691906121cb565b60405180910390f35b34801561046b57600080fd5b5061048660048036038101906104819190612552565b611716565b60405161049391906122df565b60405180910390f35b3480156104a857600080fd5b506104c360048036038101906104be9190612326565b611747565b6040516104d091906121cb565b60405180910390f35b3480156104e557600080fd5b5061050060048036038101906104fb919061288f565b61177a565b60405161050d91906122df565b60405180910390f35b34801561052257600080fd5b5061053d6004803603810190610538919061217c565b611792565b60405161054a91906122df565b60405180910390f35b34801561055f57600080fd5b5061057a60048036038101906105759190612326565b611ad9565b6040516105889291906128cb565b60405180910390f35b34801561059d57600080fd5b506105a6611b19565b6040516105b3919061205b565b60405180910390f35b3480156105c857600080fd5b506105e360048036038101906105de919061217c565b611ba7565b6040516105f09190612537565b60405180910390f35b34801561060557600080fd5b50610620600480360381019061061b91906129a9565b611bea565b60405161062d91906121cb565b60405180910390f35b34801561064257600080fd5b5061065d6004803603810190610658919061217c565b611c33565b60405161066a91906121cb565b60405180910390f35b34801561067f57600080fd5b5061069a6004803603810190610695919061288f565b611c92565b6040516106a791906124a7565b60405180910390f35b3480156106bc57600080fd5b506106d760048036038101906106d291906129f2565b611e58565b6040516106e49190612537565b60405180910390f35b3480156106f957600080fd5b50610714600480360381019061070f91906129a9565b611f7b565b604051610721919061205b565b60405180910390f35b6001805461073790612a61565b80601f016020809104026020016040519081016040528092919081815260200182805461076390612a61565b80156107b05780601f10610785576101008083540402835291602001916107b0565b820191906000526020600020905b81548152906001019060200180831161079357829003601f168201915b505050505081565b505050565b60086020528160005260406000206020528060005260406000206000915091509054906101000a900473ffffffffffffffffffffffffffffffffffffffff1681565b6060600680548060200260200160405190810160405280929190818152602001828054801561088357602002820191906000526020600020905b8160009054906101000a900473ffffffffffffffffffffffffffffffffffffffff1673ffffffffffffffffffffffffffffffffffffffff1681526020019060010190808311610839575b5050505050905090565b60075481565b600681815481106108a357600080fd5b906000526020600020016000915054906101000a900473ffffffffffffffffffffffffffffffffffffffff1681565b60606108de8585610c51565b6108e757600080fd5b6108f18383610c51565b6108fa57600080fd5b8261ffff168561ffff1611158015610926575060c861ffff16858461091f9190612ac1565b61ffff1611155b610965576040517f08c379a000000000000000000000000000000000000000000000000000000000815260040161095c90612b43565b60405180910390fd5b8161ffff168461ffff1614158015610991575060c861ffff16848361098a9190612ac1565b61ffff1611155b6109d0576040517f08c379a00000000000000000000000000000000000000000000000000000000081526004016109c790612baf565b60405180910390fd5b6000808690505b8461ffff168161ffff161015610a755760008690505b8461ffff168161ffff161015610a6757610a078282611ba7565b15610a5a5760405180604001604052808361ffff1681526020018261ffff16815250848461ffff1681518110610a4057610a3f612bcf565b5b60200260200101819052508280610a5690612bfe565b9350505b80806001019150506109ed565b5080806001019150506109d7565b5050949350505050565b803373ffffffffffffffffffffffffffffffffffffffff166009600083815260200190815260200160002060009054906101000a900473ffffffffffffffffffffffffffffffffffffffff1673ffffffffffffffffffffffffffffffffffffffff1614610aeb57600080fd5b3373ffffffffffffffffffffffffffffffffffffffff166009600084815260200190815260200160002060009054906101000a900473ffffffffffffffffffffffffffffffffffffffff1673ffffffffffffffffffffffffffffffffffffffff1614610b5657600080fd5b8373ffffffffffffffffffffffffffffffffffffffff166009600084815260200190815260200160002060009054906101000a900473ffffffffffffffffffffffffffffffffffffffff1673ffffffffffffffffffffffffffffffffffffffff1614610bc157600080fd5b3373ffffffffffffffffffffffffffffffffffffffff168473ffffffffffffffffffffffffffffffffffffffff1614610bf957600080fd5b826009600084815260200190815260200160002060006101000a81548173ffffffffffffffffffffffffffffffffffffffff021916908373ffffffffffffffffffffffffffffffffffffffff16021790555050505050565b600061465061ffff168361ffff16108015610c755750618ca061ffff168261ffff16105b905092915050565b6000600460008473ffffffffffffffffffffffffffffffffffffffff1673ffffffffffffffffffffffffffffffffffffffff168152602001908152602001600020548211610d00576040517f08c379a0000000000000000000000000000000000000000000000000000000008152600401610cf790612c9a565b60405180910390fd5b600a60008473ffffffffffffffffffffffffffffffffffffffff1673ffffffffffffffffffffffffffffffffffffffff1681526020019081526020016000208281548110610d5157610d50612bcf565b5b9060005260206000200154905092915050565b600360009054906101000a900460ff1681565b60606000825103610dd357600067ffffffffffffffff811115610d9d57610d9c6125ce565b5b604051908082528060200260200182016040528015610dcb5781602001602082028036833780820191505090505b5090506115bb565b815167ffffffffffffffff811115610dee57610ded6125ce565b5b604051908082528060200260200182016040528015610e1c5781602001602082028036833780820191505090505b50905060008060009050600080858261ffff1681518110610e4057610e3f612bcf565b5b60200260200101519050610e52611fa9565b60008260200151905060008060005b8a518761ffff1610156114765760008861ffff1614610ef357600189610e879190612cba565b61ffff168b8861ffff1681518110610ea257610ea1612bcf565b5b60200260200101516000015161ffff1614610ef2576040517f08c379a0000000000000000000000000000000000000000000000000000000008152600401610ee990612d3c565b60405180910390fd5b5b8a8761ffff1681518110610f0a57610f09612bcf565b5b602002602001015160000151985060008b8861ffff1681518110610f3157610f30612bcf565b5b60200260200101516020015190508461ffff168161ffff16118015610f54575082155b15610f625760019250610fb5565b8215610fb4578461ffff168161ffff161015610fb3576040517f08c379a0000000000000000000000000000000000000000000000000000000008152600401610faa90612da8565b60405180910390fd5b5b5b6000805b8d518a61ffff16108015610ff657508b61ffff168e8b61ffff1681518110610fe457610fe3612bcf565b5b60200260200101516000015161ffff16145b15611396578d8a61ffff168151811061101257611011612bcf565b5b6020026020010151985061102e89600001518a60200151610c51565b61106d576040517f08c379a000000000000000000000000000000000000000000000000000000000815260040161106490612e14565b60405180910390fd5b600073ffffffffffffffffffffffffffffffffffffffff166110978a600001518b60200151611c33565b73ffffffffffffffffffffffffffffffffffffffff16146110ed576040517f08c379a00000000000000000000000000000000000000000000000000000000081526004016110e490612e80565b60405180910390fd5b60008261ffff1614611158576001886020015161110a9190612cba565b61ffff16896020015161ffff1614611157576040517f08c379a000000000000000000000000000000000000000000000000000000000815260040161114e90612eec565b60405180910390fd5b5b818061116390612bfe565b92505060008b61ffff160361117b57600190506111b3565b60011515811515146111b2578661ffff16896020015161ffff16101580156111af57508561ffff16896020015161ffff1611155b90505b5b60006111bf6000611f85565b90506111cb6000611f93565b33600860008c6000015161ffff1661ffff16815260200190815260200160002060008c6020015161ffff1661ffff16815260200190815260200160002060006101000a81548173ffffffffffffffffffffffffffffffffffffffff021916908373ffffffffffffffffffffffffffffffffffffffff160217905550336009600083815260200190815260200160002060006101000a81548173ffffffffffffffffffffffffffffffffffffffff021916908373ffffffffffffffffffffffffffffffffffffffff160217905550808e8c61ffff16815181106112b0576112af612bcf565b5b602002602001018181525050600a60003373ffffffffffffffffffffffffffffffffffffffff1673ffffffffffffffffffffffffffffffffffffffff16815260200190815260200160002081908060018154018082558091505060019003906000526020600020016000909190919091505589600b600083815260200190815260200160002060008201518160000160006101000a81548161ffff021916908361ffff16021790555060208201518160000160026101000a81548161ffff021916908361ffff1602179055509050508998508a8061138d90612bfe565b9b505050610fb9565b8a806113a190612bfe565b9b50506000886020015190508661ffff168161ffff161080156113c2575084155b156113d05760019450611423565b8415611422578661ffff168161ffff161115611421576040517f08c379a000000000000000000000000000000000000000000000000000000000815260040161141890612f58565b60405180910390fd5b5b5b886020015196508397508161146d576040517f08c379a000000000000000000000000000000000000000000000000000000000815260040161146490612fea565b60405180910390fd5b50505050610e61565b6000600460003373ffffffffffffffffffffffffffffffffffffffff1673ffffffffffffffffffffffffffffffffffffffff1681526020019081526020016000205403611521576006339080600181540180825580915050600190039060005260206000200160009091909190916101000a81548173ffffffffffffffffffffffffffffffffffffffff021916908373ffffffffffffffffffffffffffffffffffffffff1602179055505b8951600460003373ffffffffffffffffffffffffffffffffffffffff1673ffffffffffffffffffffffffffffffffffffffff1681526020019081526020016000206000828254611571919061300a565b925050819055507fba0c73cf1d048680a4f027c842bfb33f33be6d4a550be278758342ad8a506247338c6040516115a992919061303e565b60405180910390a15050505050505050505b919050565b60606000600460008473ffffffffffffffffffffffffffffffffffffffff1673ffffffffffffffffffffffffffffffffffffffff1681526020019081526020016000205411611644576040517f08c379a000000000000000000000000000000000000000000000000000000000815260040161163b906130ba565b60405180910390fd5b600a60008373ffffffffffffffffffffffffffffffffffffffff1673ffffffffffffffffffffffffffffffffffffffff1681526020019081526020016000208054806020026020016040519081016040528092919081815260200182805480156116cd57602002820191906000526020600020905b8154815260200190600101908083116116b9575b50505050509050919050565b60006009600083815260200190815260200160002060009054906101000a900473ffffffffffffffffffffffffffffffffffffffff169050919050565b600a602052816000526040600020818154811061173257600080fd5b90600052602060002001600091509150505481565b60096020528060005260406000206000915054906101000a900473ffffffffffffffffffffffffffffffffffffffff1681565b60046020528060005260406000206000915090505481565b600061179e8383610c51565b6117dd576040517f08c379a00000000000000000000000000000000000000000000000000000000081526004016117d490613126565b60405180910390fd5b6117e78383611ba7565b15611827576040517f08c379a000000000000000000000000000000000000000000000000000000000815260040161181e90613192565b60405180910390fd5b600060405180604001604052808561ffff1681526020018461ffff1681525090506000600460003373ffffffffffffffffffffffffffffffffffffffff1673ffffffffffffffffffffffffffffffffffffffff16815260200190815260200160002054036118f3576006339080600181540180825580915050600190039060005260206000200160009091909190916101000a81548173ffffffffffffffffffffffffffffffffffffffff021916908373ffffffffffffffffffffffffffffffffffffffff1602179055505b60006118ff6000611f85565b905061190b6000611f93565b33600860008761ffff1661ffff16815260200190815260200160002060008661ffff1661ffff16815260200190815260200160002060006101000a81548173ffffffffffffffffffffffffffffffffffffffff021916908373ffffffffffffffffffffffffffffffffffffffff160217905550336009600083815260200190815260200160002060006101000a81548173ffffffffffffffffffffffffffffffffffffffff021916908373ffffffffffffffffffffffffffffffffffffffff160217905550600a60003373ffffffffffffffffffffffffffffffffffffffff1673ffffffffffffffffffffffffffffffffffffffff16815260200190815260200160002081908060018154018082558091505060019003906000526020600020016000909190919091505581600b600083815260200190815260200160002060008201518160000160006101000a81548161ffff021916908361ffff16021790555060208201518160000160026101000a81548161ffff021916908361ffff1602179055509050507f9fc8b54324cee45c93051ffc36cf6b1c1e5157db625a504e253f15ffdc912a80338686604051611ac6939291906131b2565b60405180910390a1809250505092915050565b600b6020528060005260406000206000915090508060000160009054906101000a900461ffff16908060000160029054906101000a900461ffff16905082565b60028054611b2690612a61565b80601f0160208091040260200160405190810160405280929190818152602001828054611b5290612a61565b8015611b9f5780601f10611b7457610100808354040283529160200191611b9f565b820191906000526020600020905b815481529060010190602001808311611b8257829003601f168201915b505050505081565b60008073ffffffffffffffffffffffffffffffffffffffff16611bca8484611c33565b73ffffffffffffffffffffffffffffffffffffffff161415905092915050565b6005818051602081018201805184825260208301602085012081835280955050505050506000915054906101000a900473ffffffffffffffffffffffffffffffffffffffff1681565b6000600860008461ffff1661ffff16815260200190815260200160002060008361ffff1661ffff16815260200190815260200160002060009054906101000a900473ffffffffffffffffffffffffffffffffffffffff16905092915050565b60606000600460008473ffffffffffffffffffffffffffffffffffffffff1673ffffffffffffffffffffffffffffffffffffffff1681526020019081526020016000205403611d3757600067ffffffffffffffff811115611cf657611cf56125ce565b5b604051908082528060200260200182016040528015611d2f57816020015b611d1c611fa9565b815260200190600190039081611d145790505b509050611e53565b6000611d42836115c0565b90506000815167ffffffffffffffff811115611d6157611d606125ce565b5b604051908082528060200260200182016040528015611d9a57816020015b611d87611fa9565b815260200190600190039081611d7f5790505b50905060005b8251811015611e4c57600b6000848381518110611dc057611dbf612bcf565b5b602002602001015181526020019081526020016000206040518060400160405290816000820160009054906101000a900461ffff1661ffff1661ffff1681526020016000820160029054906101000a900461ffff1661ffff1661ffff1681525050828281518110611e3457611e33612bcf565b5b60200260200101819052508080600101915050611da0565b5080925050505b919050565b6000611e6c83600001518460200151610c51565b611e7557600080fd5b611e8782600001518360200151610c51565b611e9057600080fd5b816000015161ffff16836000015161ffff1603611f00576000826020015161ffff16846020015161ffff1611611ed95783602001518360200151611ed49190612ac1565b611eee565b82602001518460200151611eed9190612ac1565b5b905060018161ffff1614915050611f75565b816020015161ffff16836020015161ffff1603611f70576000826000015161ffff16846000015161ffff1611611f495783600001518360000151611f449190612ac1565b611f5e565b82600001518460000151611f5d9190612ac1565b5b905060018161ffff1614915050611f75565b600090505b92915050565b6060819050919050565b600081600001549050919050565b6001816000016000828254019250508190555050565b6040518060400160405280600061ffff168152602001600061ffff1681525090565b600081519050919050565b600082825260208201905092915050565b60005b83811015612005578082015181840152602081019050611fea565b60008484015250505050565b6000601f19601f8301169050919050565b600061202d82611fcb565b6120378185611fd6565b9350612047818560208601611fe7565b61205081612011565b840191505092915050565b600060208201905081810360008301526120758184612022565b905092915050565b6000604051905090565b600080fd5b600080fd5b600061ffff82169050919050565b6120a881612091565b81146120b357600080fd5b50565b6000813590506120c58161209f565b92915050565b600073ffffffffffffffffffffffffffffffffffffffff82169050919050565b60006120f6826120cb565b9050919050565b612106816120eb565b811461211157600080fd5b50565b600081359050612123816120fd565b92915050565b60008060006060848603121561214257612141612087565b5b6000612150868287016120b6565b9350506020612161868287016120b6565b925050604061217286828701612114565b9150509250925092565b6000806040838503121561219357612192612087565b5b60006121a1858286016120b6565b92505060206121b2858286016120b6565b9150509250929050565b6121c5816120eb565b82525050565b60006020820190506121e060008301846121bc565b92915050565b600081519050919050565b600082825260208201905092915050565b6000819050602082019050919050565b61221b816120eb565b82525050565b600061222d8383612212565b60208301905092915050565b6000602082019050919050565b6000612251826121e6565b61225b81856121f1565b935061226683612202565b8060005b8381101561229757815161227e8882612221565b975061228983612239565b92505060018101905061226a565b5085935050505092915050565b600060208201905081810360008301526122be8184612246565b905092915050565b6000819050919050565b6122d9816122c6565b82525050565b60006020820190506122f460008301846122d0565b92915050565b612303816122c6565b811461230e57600080fd5b50565b600081359050612320816122fa565b92915050565b60006020828403121561233c5761233b612087565b5b600061234a84828501612311565b91505092915050565b6000806000806080858703121561236d5761236c612087565b5b600061237b878288016120b6565b945050602061238c878288016120b6565b935050604061239d878288016120b6565b92505060606123ae878288016120b6565b91505092959194509250565b600081519050919050565b600082825260208201905092915050565b6000819050602082019050919050565b6123ef81612091565b82525050565b60408201600082015161240b60008501826123e6565b50602082015161241e60208501826123e6565b50505050565b600061243083836123f5565b60408301905092915050565b6000602082019050919050565b6000612454826123ba565b61245e81856123c5565b9350612469836123d6565b8060005b8381101561249a5781516124818882612424565b975061248c8361243c565b92505060018101905061246d565b5085935050505092915050565b600060208201905081810360008301526124c18184612449565b905092915050565b6000806000606084860312156124e2576124e1612087565b5b60006124f086828701612114565b935050602061250186828701612114565b925050604061251286828701612311565b9150509250925092565b60008115159050919050565b6125318161251c565b82525050565b600060208201905061254c6000830184612528565b92915050565b6000806040838503121561256957612568612087565b5b600061257785828601612114565b925050602061258885828601612311565b9150509250929050565b600060ff82169050919050565b6125a881612592565b82525050565b60006020820190506125c3600083018461259f565b92915050565b600080fd5b7f4e487b7100000000000000000000000000000000000000000000000000000000600052604160045260246000fd5b61260682612011565b810181811067ffffffffffffffff82111715612625576126246125ce565b5b80604052505050565b600061263861207d565b905061264482826125fd565b919050565b600067ffffffffffffffff821115612664576126636125ce565b5b602082029050602081019050919050565b600080fd5b600080fd5b6000604082840312156126955761269461267a565b5b61269f604061262e565b905060006126af848285016120b6565b60008301525060206126c3848285016120b6565b60208301525092915050565b60006126e26126dd84612649565b61262e565b9050808382526020820190506040840283018581111561270557612704612675565b5b835b8181101561272e578061271a888261267f565b845260208401935050604081019050612707565b5050509392505050565b600082601f83011261274d5761274c6125c9565b5b813561275d8482602086016126cf565b91505092915050565b60006020828403121561277c5761277b612087565b5b600082013567ffffffffffffffff81111561279a5761279961208c565b5b6127a684828501612738565b91505092915050565b600081519050919050565b600082825260208201905092915050565b6000819050602082019050919050565b6127e4816122c6565b82525050565b60006127f683836127db565b60208301905092915050565b6000602082019050919050565b600061281a826127af565b61282481856127ba565b935061282f836127cb565b8060005b8381101561286057815161284788826127ea565b975061285283612802565b925050600181019050612833565b5085935050505092915050565b60006020820190508181036000830152612887818461280f565b905092915050565b6000602082840312156128a5576128a4612087565b5b60006128b384828501612114565b91505092915050565b6128c581612091565b82525050565b60006040820190506128e060008301856128bc565b6128ed60208301846128bc565b9392505050565b600080fd5b600067ffffffffffffffff821115612914576129136125ce565b5b61291d82612011565b9050602081019050919050565b82818337600083830152505050565b600061294c612947846128f9565b61262e565b905082815260208101848484011115612968576129676128f4565b5b61297384828561292a565b509392505050565b600082601f8301126129905761298f6125c9565b5b81356129a0848260208601612939565b91505092915050565b6000602082840312156129bf576129be612087565b5b600082013567ffffffffffffffff8111156129dd576129dc61208c565b5b6129e98482850161297b565b91505092915050565b60008060808385031215612a0957612a08612087565b5b6000612a178582860161267f565b9250506040612a288582860161267f565b9150509250929050565b7f4e487b7100000000000000000000000000000000000000000000000000000000600052602260045260246000fd5b60006002820490506001821680612a7957607f821691505b602082108103612a8c57612a8b612a32565b5b50919050565b7f4e487b7100000000000000000000000000000000000000000000000000000000600052601160045260246000fd5b6000612acc82612091565b9150612ad783612091565b9250828203905061ffff811115612af157612af0612a92565b5b92915050565b7f696e76616c6964206c617469747564652070726f766964656400000000000000600082015250565b6000612b2d601983611fd6565b9150612b3882612af7565b602082019050919050565b60006020820190508181036000830152612b5c81612b20565b9050919050565b7f696e76616c6964206d696e206c617469747564652070726f7669646564000000600082015250565b6000612b99601d83611fd6565b9150612ba482612b63565b602082019050919050565b60006020820190508181036000830152612bc881612b8c565b9050919050565b7f4e487b7100000000000000000000000000000000000000000000000000000000600052603260045260246000fd5b6000612c0982612091565b915061ffff8203612c1d57612c1c612a92565b5b600182019050919050565b7f5f696e646578206c6172676572207468616e207573657227732062616c616e6360008201527f6500000000000000000000000000000000000000000000000000000000000000602082015250565b6000612c84602183611fd6565b9150612c8f82612c28565b604082019050919050565b60006020820190508181036000830152612cb381612c77565b9050919050565b6000612cc582612091565b9150612cd083612091565b9250828201905061ffff811115612cea57612ce9612a92565b5b92915050565b7f666f756e6420646973636f6e6e6563746564206c617474697475646573000000600082015250565b6000612d26601d83611fd6565b9150612d3182612cf0565b602082019050919050565b60006020820190508181036000830152612d5581612d19565b9050919050565b7f5368617065206973206e6f7420636f6e76657800000000000000000000000000600082015250565b6000612d92601383611fd6565b9150612d9d82612d5c565b602082019050919050565b60006020820190508181036000830152612dc181612d85565b9050919050565b7f676170206265747765656e206c61746974756465732064657465637465640000600082015250565b6000612dfe601e83611fd6565b9150612e0982612dc8565b602082019050919050565b60006020820190508181036000830152612e2d81612df1565b9050919050565b7f496e636c75646564204c6f636174696f6e204f776e6564000000000000000000600082015250565b6000612e6a601783611fd6565b9150612e7582612e34565b602082019050919050565b60006020820190508181036000830152612e9981612e5d565b9050919050565b7f676170206265747765656e206c6f6e6769747564657320646574656374656400600082015250565b6000612ed6601f83611fd6565b9150612ee182612ea0565b602082019050919050565b60006020820190508181036000830152612f0581612ec9565b9050919050565b7f436f6e7665786974792062726f6b656e206f6e2072616e6765456e6400000000600082015250565b6000612f42601c83611fd6565b9150612f4d82612f0c565b602082019050919050565b60006020820190508181036000830152612f7181612f35565b9050919050565b7f6c617473206172652061646a6163656e7420627574206e6f74206c6f6e67697460008201527f7564657300000000000000000000000000000000000000000000000000000000602082015250565b6000612fd4602483611fd6565b9150612fdf82612f78565b604082019050919050565b6000602082019050818103600083015261300381612fc7565b9050919050565b6000613015826122c6565b9150613020836122c6565b925082820190508082111561303857613037612a92565b5b92915050565b600060408201905061305360008301856121bc565b81810360208301526130658184612449565b90509392505050565b7f726571756573746564206164647265737320686173206e6f2062616c616e6365600082015250565b60006130a4602083611fd6565b91506130af8261306e565b602082019050919050565b600060208201905081810360008301526130d381613097565b9050919050565b7f496e76616c696420636f6f7264696e6174657300000000000000000000000000600082015250565b6000613110601383611fd6565b915061311b826130da565b602082019050919050565b6000602082019050818103600083015261313f81613103565b9050919050565b7f4c6f636174696f6e20616c7265616479206f776e656400000000000000000000600082015250565b600061317c601683611fd6565b915061318782613146565b602082019050919050565b600060208201905081810360008301526131ab8161316f565b9050919050565b60006060820190506131c760008301866121bc565b6131d460208301856128bc565b6131e160408301846128bc565b94935050505056fea26469706673582212205dcb90dcfaa70713147864e112a775dc3936f60b84c16d43157076dd9a1f429564736f6c63430008180033","opcodes":"PUSH1 0x80 PUSH1 0x40 MSTORE PUSH1 0x40 MLOAD DUP1 PUSH1 0x40 ADD PUSH1 0x40 MSTORE DUP1 PUSH1 0x4 DUP2 MSTORE PUSH1 0x20 ADD PUSH32 0x4741494100000000000000000000000000000000000000000000000000000000 DUP2 MSTORE POP PUSH1 0x1 SWAP1 DUP2 PUSH3 0x4A SWAP2 SWAP1 PUSH3 0x362 JUMP JUMPDEST POP PUSH1 0x40 MLOAD DUP1 PUSH1 0x40 ADD PUSH1 0x40 MSTORE DUP1 PUSH1 0x7 DUP2 MSTORE PUSH1 0x20 ADD PUSH32 0x552B314633304400000000000000000000000000000000000000000000000000 DUP2 MSTORE POP PUSH1 0x2 SWAP1 DUP2 PUSH3 0x91 SWAP2 SWAP1 PUSH3 0x362 JUMP JUMPDEST POP PUSH1 0x0 PUSH1 0x3 PUSH1 0x0 PUSH2 0x100 EXP DUP2 SLOAD DUP2 PUSH1 0xFF MUL NOT AND SWAP1 DUP4 PUSH1 0xFF AND MUL OR SWAP1 SSTORE POP CALLVALUE DUP1 ISZERO PUSH3 0xBB JUMPI PUSH1 0x0 DUP1 REVERT JUMPDEST POP PUSH1 0x0 PUSH2 0x4650 PUSH2 0xFFFF AND PUSH2 0x8CA0 PUSH2 0xFFFF AND PUSH3 0xD8 SWAP2 SWAP1 PUSH3 0x478 JUMP JUMPDEST SWAP1 POP DUP1 PUSH1 0x7 DUP2 SWAP1 SSTORE POP POP PUSH3 0x4C3 JUMP JUMPDEST PUSH1 0x0 DUP2 MLOAD SWAP1 POP SWAP2 SWAP1 POP JUMP JUMPDEST PUSH32 0x4E487B7100000000000000000000000000000000000000000000000000000000 PUSH1 0x0 MSTORE PUSH1 0x41 PUSH1 0x4 MSTORE PUSH1 0x24 PUSH1 0x0 REVERT JUMPDEST PUSH32 0x4E487B7100000000000000000000000000000000000000000000000000000000 PUSH1 0x0 MSTORE PUSH1 0x22 PUSH1 0x4 MSTORE PUSH1 0x24 PUSH1 0x0 REVERT JUMPDEST PUSH1 0x0 PUSH1 0x2 DUP3 DIV SWAP1 POP PUSH1 0x1 DUP3 AND DUP1 PUSH3 0x16A JUMPI PUSH1 0x7F DUP3 AND SWAP2 POP JUMPDEST PUSH1 0x20 DUP3 LT DUP2 SUB PUSH3 0x180 JUMPI PUSH3 0x17F PUSH3 0x122 JUMP JUMPDEST JUMPDEST POP SWAP2 SWAP1 POP JUMP JUMPDEST PUSH1 0x0 DUP2 SWAP1 POP DUP2 PUSH1 0x0 MSTORE PUSH1 0x20 PUSH1 0x0 KECCAK256 SWAP1 POP SWAP2 SWAP1 POP JUMP JUMPDEST PUSH1 0x0 PUSH1 0x20 PUSH1 0x1F DUP4 ADD DIV SWAP1 POP SWAP2 SWAP1 POP JUMP JUMPDEST PUSH1 0x0 DUP3 DUP3 SHL SWAP1 POP SWAP3 SWAP2 POP POP JUMP JUMPDEST PUSH1 0x0 PUSH1 0x8 DUP4 MUL PUSH3 0x1EA PUSH32 0xFFFFFFFFFFFFFFFFFFFFFFFFFFFFFFFFFFFFFFFFFFFFFFFFFFFFFFFFFFFFFFFF DUP3 PUSH3 0x1AB JUMP JUMPDEST PUSH3 0x1F6 DUP7 DUP4 PUSH3 0x1AB JUMP JUMPDEST SWAP6 POP DUP1 NOT DUP5 AND SWAP4 POP DUP1 DUP7 AND DUP5 OR SWAP3 POP POP POP SWAP4 SWAP3 POP POP POP JUMP JUMPDEST PUSH1 0x0 DUP2 SWAP1 POP SWAP2 SWAP1 POP JUMP JUMPDEST PUSH1 0x0 DUP2 SWAP1 POP SWAP2 SWAP1 POP JUMP JUMPDEST PUSH1 0x0 PUSH3 0x243 PUSH3 0x23D PUSH3 0x237 DUP5 PUSH3 0x20E JUMP JUMPDEST PUSH3 0x218 JUMP JUMPDEST PUSH3 0x20E JUMP JUMPDEST SWAP1 POP SWAP2 SWAP1 POP JUMP JUMPDEST PUSH1 0x0 DUP2 SWAP1 POP SWAP2 SWAP1 POP JUMP JUMPDEST PUSH3 0x25F DUP4 PUSH3 0x222 JUMP JUMPDEST PUSH3 0x277 PUSH3 0x26E DUP3 PUSH3 0x24A JUMP JUMPDEST DUP5 DUP5 SLOAD PUSH3 0x1B8 JUMP JUMPDEST DUP3 SSTORE POP POP POP POP JUMP JUMPDEST PUSH1 0x0 SWAP1 JUMP JUMPDEST PUSH3 0x28E PUSH3 0x27F JUMP JUMPDEST PUSH3 0x29B DUP2 DUP5 DUP5 PUSH3 0x254 JUMP JUMPDEST POP POP POP JUMP JUMPDEST JUMPDEST DUP2 DUP2 LT ISZERO PUSH3 0x2C3 JUMPI PUSH3 0x2B7 PUSH1 0x0 DUP3 PUSH3 0x284 JUMP JUMPDEST PUSH1 0x1 DUP2 ADD SWAP1 POP PUSH3 0x2A1 JUMP JUMPDEST POP POP JUMP JUMPDEST PUSH1 0x1F DUP3 GT ISZERO PUSH3 0x312 JUMPI PUSH3 0x2DC DUP2 PUSH3 0x186 JUMP JUMPDEST PUSH3 0x2E7 DUP5 PUSH3 0x19B JUMP JUMPDEST DUP2 ADD PUSH1 0x20 DUP6 LT ISZERO PUSH3 0x2F7 JUMPI DUP2 SWAP1 POP JUMPDEST PUSH3 0x30F PUSH3 0x306 DUP6 PUSH3 0x19B JUMP JUMPDEST DUP4 ADD DUP3 PUSH3 0x2A0 JUMP JUMPDEST POP POP JUMPDEST POP POP POP JUMP JUMPDEST PUSH1 0x0 DUP3 DUP3 SHR SWAP1 POP SWAP3 SWAP2 POP POP JUMP JUMPDEST PUSH1 0x0 PUSH3 0x337 PUSH1 0x0 NOT DUP5 PUSH1 0x8 MUL PUSH3 0x317 JUMP JUMPDEST NOT DUP1 DUP4 AND SWAP2 POP POP SWAP3 SWAP2 POP POP JUMP JUMPDEST PUSH1 0x0 PUSH3 0x352 DUP4 DUP4 PUSH3 0x324 JUMP JUMPDEST SWAP2 POP DUP3 PUSH1 0x2 MUL DUP3 OR SWAP1 POP SWAP3 SWAP2 POP POP JUMP JUMPDEST PUSH3 0x36D DUP3 PUSH3 0xE8 JUMP JUMPDEST PUSH8 0xFFFFFFFFFFFFFFFF DUP2 GT ISZERO PUSH3 0x389 JUMPI PUSH3 0x388 PUSH3 0xF3 JUMP JUMPDEST JUMPDEST PUSH3 0x395 DUP3 SLOAD PUSH3 0x151 JUMP JUMPDEST PUSH3 0x3A2 DUP3 DUP3 DUP6 PUSH3 0x2C7 JUMP JUMPDEST PUSH1 0x0 PUSH1 0x20 SWAP1 POP PUSH1 0x1F DUP4 GT PUSH1 0x1 DUP2 EQ PUSH3 0x3DA JUMPI PUSH1 0x0 DUP5 ISZERO PUSH3 0x3C5 JUMPI DUP3 DUP8 ADD MLOAD SWAP1 POP JUMPDEST PUSH3 0x3D1 DUP6 DUP3 PUSH3 0x344 JUMP JUMPDEST DUP7 SSTORE POP PUSH3 0x441 JUMP JUMPDEST PUSH1 0x1F NOT DUP5 AND PUSH3 0x3EA DUP7 PUSH3 0x186 JUMP JUMPDEST PUSH1 0x0 JUMPDEST DUP3 DUP2 LT ISZERO PUSH3 0x414 JUMPI DUP5 DUP10 ADD MLOAD DUP3 SSTORE PUSH1 0x1 DUP3 ADD SWAP2 POP PUSH1 0x20 DUP6 ADD SWAP5 POP PUSH1 0x20 DUP2 ADD SWAP1 POP PUSH3 0x3ED JUMP JUMPDEST DUP7 DUP4 LT ISZERO PUSH3 0x434 JUMPI DUP5 DUP10 ADD MLOAD PUSH3 0x430 PUSH1 0x1F DUP10 AND DUP3 PUSH3 0x324 JUMP JUMPDEST DUP4 SSTORE POP JUMPDEST PUSH1 0x1 PUSH1 0x2 DUP9 MUL ADD DUP9 SSTORE POP POP POP JUMPDEST POP POP POP POP POP POP JUMP JUMPDEST PUSH32 0x4E487B7100000000000000000000000000000000000000000000000000000000 PUSH1 0x0 MSTORE PUSH1 0x11 PUSH1 0x4 MSTORE PUSH1 0x24 PUSH1 0x0 REVERT JUMPDEST PUSH1 0x0 PUSH3 0x485 DUP3 PUSH3 0x20E JUMP JUMPDEST SWAP2 POP PUSH3 0x492 DUP4 PUSH3 0x20E JUMP JUMPDEST SWAP3 POP DUP3 DUP3 MUL PUSH3 0x4A2 DUP2 PUSH3 0x20E JUMP JUMPDEST SWAP2 POP DUP3 DUP3 DIV DUP5 EQ DUP4 ISZERO OR PUSH3 0x4BC JUMPI PUSH3 0x4BB PUSH3 0x449 JUMP JUMPDEST JUMPDEST POP SWAP3 SWAP2 POP POP JUMP JUMPDEST PUSH2 0x321F DUP1 PUSH3 0x4D3 PUSH1 0x0 CODECOPY PUSH1 0x0 RETURN INVALID PUSH1 0x80 PUSH1 0x40 MSTORE PUSH1 0x4 CALLDATASIZE LT PUSH2 0x181 JUMPI PUSH1 0x0 CALLDATALOAD PUSH1 0xE0 SHR DUP1 PUSH4 0x6352211E GT PUSH2 0xD1 JUMPI DUP1 PUSH4 0x95D89B41 GT PUSH2 0x8A JUMPI DUP1 PUSH4 0xB3403537 GT PUSH2 0x64 JUMPI DUP1 PUSH4 0xB3403537 EQ PUSH2 0x636 JUMPI DUP1 PUSH4 0xDB6C0A27 EQ PUSH2 0x673 JUMPI DUP1 PUSH4 0xDF1AB202 EQ PUSH2 0x6B0 JUMPI DUP1 PUSH4 0xE60FF80B EQ PUSH2 0x6ED JUMPI PUSH2 0x181 JUMP JUMPDEST DUP1 PUSH4 0x95D89B41 EQ PUSH2 0x591 JUMPI DUP1 PUSH4 0x97E1A1ED EQ PUSH2 0x5BC JUMPI DUP1 PUSH4 0xA3AE4F5C EQ PUSH2 0x5F9 JUMPI PUSH2 0x181 JUMP JUMPDEST DUP1 PUSH4 0x6352211E EQ PUSH2 0x422 JUMPI DUP1 PUSH4 0x68A596C7 EQ PUSH2 0x45F JUMPI DUP1 PUSH4 0x6E9E48EF EQ PUSH2 0x49C JUMPI DUP1 PUSH4 0x70A08231 EQ PUSH2 0x4D9 JUMPI DUP1 PUSH4 0x749D5928 EQ PUSH2 0x516 JUMPI DUP1 PUSH4 0x8CF9527F EQ PUSH2 0x553 JUMPI PUSH2 0x181 JUMP JUMPDEST DUP1 PUSH4 0x1D040423 GT PUSH2 0x13E JUMPI DUP1 PUSH4 0x2F745C59 GT PUSH2 0x118 JUMPI DUP1 PUSH4 0x2F745C59 EQ PUSH2 0x340 JUMPI DUP1 PUSH4 0x313CE567 EQ PUSH2 0x37D JUMPI DUP1 PUSH4 0x4D04BD65 EQ PUSH2 0x3A8 JUMPI DUP1 PUSH4 0x4FAC7E41 EQ PUSH2 0x3E5 JUMPI PUSH2 0x181 JUMP JUMPDEST DUP1 PUSH4 0x1D040423 EQ PUSH2 0x2AA JUMPI DUP1 PUSH4 0x23B872DD EQ PUSH2 0x2E7 JUMPI DUP1 PUSH4 0x29D17641 EQ PUSH2 0x303 JUMPI PUSH2 0x181 JUMP JUMPDEST DUP1 PUSH4 0x6FDDE03 EQ PUSH2 0x186 JUMPI DUP1 PUSH4 0xAB9A71F EQ PUSH2 0x1B1 JUMPI DUP1 PUSH4 0x106CF579 EQ PUSH2 0x1DA JUMPI DUP1 PUSH4 0x16C12746 EQ PUSH2 0x217 JUMPI DUP1 PUSH4 0x18160DDD EQ PUSH2 0x242 JUMPI DUP1 PUSH4 0x1A0F76B1 EQ PUSH2 0x26D JUMPI JUMPDEST PUSH1 0x0 DUP1 REVERT JUMPDEST CALLVALUE DUP1 ISZERO PUSH2 0x192 JUMPI PUSH1 0x0 DUP1 REVERT JUMPDEST POP PUSH2 0x19B PUSH2 0x72A JUMP JUMPDEST PUSH1 0x40 MLOAD PUSH2 0x1A8 SWAP2 SWAP1 PUSH2 0x205B JUMP JUMPDEST PUSH1 0x40 MLOAD DUP1 SWAP2 SUB SWAP1 RETURN JUMPDEST CALLVALUE DUP1 ISZERO PUSH2 0x1BD JUMPI PUSH1 0x0 DUP1 REVERT JUMPDEST POP PUSH2 0x1D8 PUSH1 0x4 DUP1 CALLDATASIZE SUB DUP2 ADD SWAP1 PUSH2 0x1D3 SWAP2 SWAP1 PUSH2 0x2129 JUMP JUMPDEST PUSH2 0x7B8 JUMP JUMPDEST STOP JUMPDEST CALLVALUE DUP1 ISZERO PUSH2 0x1E6 JUMPI PUSH1 0x0 DUP1 REVERT JUMPDEST POP PUSH2 0x201 PUSH1 0x4 DUP1 CALLDATASIZE SUB DUP2 ADD SWAP1 PUSH2 0x1FC SWAP2 SWAP1 PUSH2 0x217C JUMP JUMPDEST PUSH2 0x7BD JUMP JUMPDEST PUSH1 0x40 MLOAD PUSH2 0x20E SWAP2 SWAP1 PUSH2 0x21CB JUMP JUMPDEST PUSH1 0x40 MLOAD DUP1 SWAP2 SUB SWAP1 RETURN JUMPDEST CALLVALUE DUP1 ISZERO PUSH2 0x223 JUMPI PUSH1 0x0 DUP1 REVERT JUMPDEST POP PUSH2 0x22C PUSH2 0x7FF JUMP JUMPDEST PUSH1 0x40 MLOAD PUSH2 0x239 SWAP2 SWAP1 PUSH2 0x22A4 JUMP JUMPDEST PUSH1 0x40 MLOAD DUP1 SWAP2 SUB SWAP1 RETURN JUMPDEST CALLVALUE DUP1 ISZERO PUSH2 0x24E JUMPI PUSH1 0x0 DUP1 REVERT JUMPDEST POP PUSH2 0x257 PUSH2 0x88D JUMP JUMPDEST PUSH1 0x40 MLOAD PUSH2 0x264 SWAP2 SWAP1 PUSH2 0x22DF JUMP JUMPDEST PUSH1 0x40 MLOAD DUP1 SWAP2 SUB SWAP1 RETURN JUMPDEST CALLVALUE DUP1 ISZERO PUSH2 0x279 JUMPI PUSH1 0x0 DUP1 REVERT JUMPDEST POP PUSH2 0x294 PUSH1 0x4 DUP1 CALLDATASIZE SUB DUP2 ADD SWAP1 PUSH2 0x28F SWAP2 SWAP1 PUSH2 0x2326 JUMP JUMPDEST PUSH2 0x893 JUMP JUMPDEST PUSH1 0x40 MLOAD PUSH2 0x2A1 SWAP2 SWAP1 PUSH2 0x21CB JUMP JUMPDEST PUSH1 0x40 MLOAD DUP1 SWAP2 SUB SWAP1 RETURN JUMPDEST CALLVALUE DUP1 ISZERO PUSH2 0x2B6 JUMPI PUSH1 0x0 DUP1 REVERT JUMPDEST POP PUSH2 0x2D1 PUSH1 0x4 DUP1 CALLDATASIZE SUB DUP2 ADD SWAP1 PUSH2 0x2CC SWAP2 SWAP1 PUSH2 0x2353 JUMP JUMPDEST PUSH2 0x8D2 JUMP JUMPDEST PUSH1 0x40 MLOAD PUSH2 0x2DE SWAP2 SWAP1 PUSH2 0x24A7 JUMP JUMPDEST PUSH1 0x40 MLOAD DUP1 SWAP2 SUB SWAP1 RETURN JUMPDEST PUSH2 0x301 PUSH1 0x4 DUP1 CALLDATASIZE SUB DUP2 ADD SWAP1 PUSH2 0x2FC SWAP2 SWAP1 PUSH2 0x24C9 JUMP JUMPDEST PUSH2 0xA7F JUMP JUMPDEST STOP JUMPDEST CALLVALUE DUP1 ISZERO PUSH2 0x30F JUMPI PUSH1 0x0 DUP1 REVERT JUMPDEST POP PUSH2 0x32A PUSH1 0x4 DUP1 CALLDATASIZE SUB DUP2 ADD SWAP1 PUSH2 0x325 SWAP2 SWAP1 PUSH2 0x217C JUMP JUMPDEST PUSH2 0xC51 JUMP JUMPDEST PUSH1 0x40 MLOAD PUSH2 0x337 SWAP2 SWAP1 PUSH2 0x2537 JUMP JUMPDEST PUSH1 0x40 MLOAD DUP1 SWAP2 SUB SWAP1 RETURN JUMPDEST CALLVALUE DUP1 ISZERO PUSH2 0x34C JUMPI PUSH1 0x0 DUP1 REVERT JUMPDEST POP PUSH2 0x367 PUSH1 0x4 DUP1 CALLDATASIZE SUB DUP2 ADD SWAP1 PUSH2 0x362 SWAP2 SWAP1 PUSH2 0x2552 JUMP JUMPDEST PUSH2 0xC7D JUMP JUMPDEST PUSH1 0x40 MLOAD PUSH2 0x374 SWAP2 SWAP1 PUSH2 0x22DF JUMP JUMPDEST PUSH1 0x40 MLOAD DUP1 SWAP2 SUB SWAP1 RETURN JUMPDEST CALLVALUE DUP1 ISZERO PUSH2 0x389 JUMPI PUSH1 0x0 DUP1 REVERT JUMPDEST POP PUSH2 0x392 PUSH2 0xD64 JUMP JUMPDEST PUSH1 0x40 MLOAD PUSH2 0x39F SWAP2 SWAP1 PUSH2 0x25AE JUMP JUMPDEST PUSH1 0x40 MLOAD DUP1 SWAP2 SUB SWAP1 RETURN JUMPDEST CALLVALUE DUP1 ISZERO PUSH2 0x3B4 JUMPI PUSH1 0x0 DUP1 REVERT JUMPDEST POP PUSH2 0x3CF PUSH1 0x4 DUP1 CALLDATASIZE SUB DUP2 ADD SWAP1 PUSH2 0x3CA SWAP2 SWAP1 PUSH2 0x2766 JUMP JUMPDEST PUSH2 0xD77 JUMP JUMPDEST PUSH1 0x40 MLOAD PUSH2 0x3DC SWAP2 SWAP1 PUSH2 0x286D JUMP JUMPDEST PUSH1 0x40 MLOAD DUP1 SWAP2 SUB SWAP1 RETURN JUMPDEST CALLVALUE DUP1 ISZERO PUSH2 0x3F1 JUMPI PUSH1 0x0 DUP1 REVERT JUMPDEST POP PUSH2 0x40C PUSH1 0x4 DUP1 CALLDATASIZE SUB DUP2 ADD SWAP1 PUSH2 0x407 SWAP2 SWAP1 PUSH2 0x288F JUMP JUMPDEST PUSH2 0x15C0 JUMP JUMPDEST PUSH1 0x40 MLOAD PUSH2 0x419 SWAP2 SWAP1 PUSH2 0x286D JUMP JUMPDEST PUSH1 0x40 MLOAD DUP1 SWAP2 SUB SWAP1 RETURN JUMPDEST CALLVALUE DUP1 ISZERO PUSH2 0x42E JUMPI PUSH1 0x0 DUP1 REVERT JUMPDEST POP PUSH2 0x449 PUSH1 0x4 DUP1 CALLDATASIZE SUB DUP2 ADD SWAP1 PUSH2 0x444 SWAP2 SWAP1 PUSH2 0x2326 JUMP JUMPDEST PUSH2 0x16D9 JUMP JUMPDEST PUSH1 0x40 MLOAD PUSH2 0x456 SWAP2 SWAP1 PUSH2 0x21CB JUMP JUMPDEST PUSH1 0x40 MLOAD DUP1 SWAP2 SUB SWAP1 RETURN JUMPDEST CALLVALUE DUP1 ISZERO PUSH2 0x46B JUMPI PUSH1 0x0 DUP1 REVERT JUMPDEST POP PUSH2 0x486 PUSH1 0x4 DUP1 CALLDATASIZE SUB DUP2 ADD SWAP1 PUSH2 0x481 SWAP2 SWAP1 PUSH2 0x2552 JUMP JUMPDEST PUSH2 0x1716 JUMP JUMPDEST PUSH1 0x40 MLOAD PUSH2 0x493 SWAP2 SWAP1 PUSH2 0x22DF JUMP JUMPDEST PUSH1 0x40 MLOAD DUP1 SWAP2 SUB SWAP1 RETURN JUMPDEST CALLVALUE DUP1 ISZERO PUSH2 0x4A8 JUMPI PUSH1 0x0 DUP1 REVERT JUMPDEST POP PUSH2 0x4C3 PUSH1 0x4 DUP1 CALLDATASIZE SUB DUP2 ADD SWAP1 PUSH2 0x4BE SWAP2 SWAP1 PUSH2 0x2326 JUMP JUMPDEST PUSH2 0x1747 JUMP JUMPDEST PUSH1 0x40 MLOAD PUSH2 0x4D0 SWAP2 SWAP1 PUSH2 0x21CB JUMP JUMPDEST PUSH1 0x40 MLOAD DUP1 SWAP2 SUB SWAP1 RETURN JUMPDEST CALLVALUE DUP1 ISZERO PUSH2 0x4E5 JUMPI PUSH1 0x0 DUP1 REVERT JUMPDEST POP PUSH2 0x500 PUSH1 0x4 DUP1 CALLDATASIZE SUB DUP2 ADD SWAP1 PUSH2 0x4FB SWAP2 SWAP1 PUSH2 0x288F JUMP JUMPDEST PUSH2 0x177A JUMP JUMPDEST PUSH1 0x40 MLOAD PUSH2 0x50D SWAP2 SWAP1 PUSH2 0x22DF JUMP JUMPDEST PUSH1 0x40 MLOAD DUP1 SWAP2 SUB SWAP1 RETURN JUMPDEST CALLVALUE DUP1 ISZERO PUSH2 0x522 JUMPI PUSH1 0x0 DUP1 REVERT JUMPDEST POP PUSH2 0x53D PUSH1 0x4 DUP1 CALLDATASIZE SUB DUP2 ADD SWAP1 PUSH2 0x538 SWAP2 SWAP1 PUSH2 0x217C JUMP JUMPDEST PUSH2 0x1792 JUMP JUMPDEST PUSH1 0x40 MLOAD PUSH2 0x54A SWAP2 SWAP1 PUSH2 0x22DF JUMP JUMPDEST PUSH1 0x40 MLOAD DUP1 SWAP2 SUB SWAP1 RETURN JUMPDEST CALLVALUE DUP1 ISZERO PUSH2 0x55F JUMPI PUSH1 0x0 DUP1 REVERT JUMPDEST POP PUSH2 0x57A PUSH1 0x4 DUP1 CALLDATASIZE SUB DUP2 ADD SWAP1 PUSH2 0x575 SWAP2 SWAP1 PUSH2 0x2326 JUMP JUMPDEST PUSH2 0x1AD9 JUMP JUMPDEST PUSH1 0x40 MLOAD PUSH2 0x588 SWAP3 SWAP2 SWAP1 PUSH2 0x28CB JUMP JUMPDEST PUSH1 0x40 MLOAD DUP1 SWAP2 SUB SWAP1 RETURN JUMPDEST CALLVALUE DUP1 ISZERO PUSH2 0x59D JUMPI PUSH1 0x0 DUP1 REVERT JUMPDEST POP PUSH2 0x5A6 PUSH2 0x1B19 JUMP JUMPDEST PUSH1 0x40 MLOAD PUSH2 0x5B3 SWAP2 SWAP1 PUSH2 0x205B JUMP JUMPDEST PUSH1 0x40 MLOAD DUP1 SWAP2 SUB SWAP1 RETURN JUMPDEST CALLVALUE DUP1 ISZERO PUSH2 0x5C8 JUMPI PUSH1 0x0 DUP1 REVERT JUMPDEST POP PUSH2 0x5E3 PUSH1 0x4 DUP1 CALLDATASIZE SUB DUP2 ADD SWAP1 PUSH2 0x5DE SWAP2 SWAP1 PUSH2 0x217C JUMP JUMPDEST PUSH2 0x1BA7 JUMP JUMPDEST PUSH1 0x40 MLOAD PUSH2 0x5F0 SWAP2 SWAP1 PUSH2 0x2537 JUMP JUMPDEST PUSH1 0x40 MLOAD DUP1 SWAP2 SUB SWAP1 RETURN JUMPDEST CALLVALUE DUP1 ISZERO PUSH2 0x605 JUMPI PUSH1 0x0 DUP1 REVERT JUMPDEST POP PUSH2 0x620 PUSH1 0x4 DUP1 CALLDATASIZE SUB DUP2 ADD SWAP1 PUSH2 0x61B SWAP2 SWAP1 PUSH2 0x29A9 JUMP JUMPDEST PUSH2 0x1BEA JUMP JUMPDEST PUSH1 0x40 MLOAD PUSH2 0x62D SWAP2 SWAP1 PUSH2 0x21CB JUMP JUMPDEST PUSH1 0x40 MLOAD DUP1 SWAP2 SUB SWAP1 RETURN JUMPDEST CALLVALUE DUP1 ISZERO PUSH2 0x642 JUMPI PUSH1 0x0 DUP1 REVERT JUMPDEST POP PUSH2 0x65D PUSH1 0x4 DUP1 CALLDATASIZE SUB DUP2 ADD SWAP1 PUSH2 0x658 SWAP2 SWAP1 PUSH2 0x217C JUMP JUMPDEST PUSH2 0x1C33 JUMP JUMPDEST PUSH1 0x40 MLOAD PUSH2 0x66A SWAP2 SWAP1 PUSH2 0x21CB JUMP JUMPDEST PUSH1 0x40 MLOAD DUP1 SWAP2 SUB SWAP1 RETURN JUMPDEST CALLVALUE DUP1 ISZERO PUSH2 0x67F JUMPI PUSH1 0x0 DUP1 REVERT JUMPDEST POP PUSH2 0x69A PUSH1 0x4 DUP1 CALLDATASIZE SUB DUP2 ADD SWAP1 PUSH2 0x695 SWAP2 SWAP1 PUSH2 0x288F JUMP JUMPDEST PUSH2 0x1C92 JUMP JUMPDEST PUSH1 0x40 MLOAD PUSH2 0x6A7 SWAP2 SWAP1 PUSH2 0x24A7 JUMP JUMPDEST PUSH1 0x40 MLOAD DUP1 SWAP2 SUB SWAP1 RETURN JUMPDEST CALLVALUE DUP1 ISZERO PUSH2 0x6BC JUMPI PUSH1 0x0 DUP1 REVERT JUMPDEST POP PUSH2 0x6D7 PUSH1 0x4 DUP1 CALLDATASIZE SUB DUP2 ADD SWAP1 PUSH2 0x6D2 SWAP2 SWAP1 PUSH2 0x29F2 JUMP JUMPDEST PUSH2 0x1E58 JUMP JUMPDEST PUSH1 0x40 MLOAD PUSH2 0x6E4 SWAP2 SWAP1 PUSH2 0x2537 JUMP JUMPDEST PUSH1 0x40 MLOAD DUP1 SWAP2 SUB SWAP1 RETURN JUMPDEST CALLVALUE DUP1 ISZERO PUSH2 0x6F9 JUMPI PUSH1 0x0 DUP1 REVERT JUMPDEST POP PUSH2 0x714 PUSH1 0x4 DUP1 CALLDATASIZE SUB DUP2 ADD SWAP1 PUSH2 0x70F SWAP2 SWAP1 PUSH2 0x29A9 JUMP JUMPDEST PUSH2 0x1F7B JUMP JUMPDEST PUSH1 0x40 MLOAD PUSH2 0x721 SWAP2 SWAP1 PUSH2 0x205B JUMP JUMPDEST PUSH1 0x40 MLOAD DUP1 SWAP2 SUB SWAP1 RETURN JUMPDEST PUSH1 0x1 DUP1 SLOAD PUSH2 0x737 SWAP1 PUSH2 0x2A61 JUMP JUMPDEST DUP1 PUSH1 0x1F ADD PUSH1 0x20 DUP1 SWAP2 DIV MUL PUSH1 0x20 ADD PUSH1 0x40 MLOAD SWAP1 DUP2 ADD PUSH1 0x40 MSTORE DUP1 SWAP3 SWAP2 SWAP1 DUP2 DUP2 MSTORE PUSH1 0x20 ADD DUP3 DUP1 SLOAD PUSH2 0x763 SWAP1 PUSH2 0x2A61 JUMP JUMPDEST DUP1 ISZERO PUSH2 0x7B0 JUMPI DUP1 PUSH1 0x1F LT PUSH2 0x785 JUMPI PUSH2 0x100 DUP1 DUP4 SLOAD DIV MUL DUP4 MSTORE SWAP2 PUSH1 0x20 ADD SWAP2 PUSH2 0x7B0 JUMP JUMPDEST DUP3 ADD SWAP2 SWAP1 PUSH1 0x0 MSTORE PUSH1 0x20 PUSH1 0x0 KECCAK256 SWAP1 JUMPDEST DUP2 SLOAD DUP2 MSTORE SWAP1 PUSH1 0x1 ADD SWAP1 PUSH1 0x20 ADD DUP1 DUP4 GT PUSH2 0x793 JUMPI DUP3 SWAP1 SUB PUSH1 0x1F AND DUP3 ADD SWAP2 JUMPDEST POP POP POP POP POP DUP2 JUMP JUMPDEST POP POP POP JUMP JUMPDEST PUSH1 0x8 PUSH1 0x20 MSTORE DUP2 PUSH1 0x0 MSTORE PUSH1 0x40 PUSH1 0x0 KECCAK256 PUSH1 0x20 MSTORE DUP1 PUSH1 0x0 MSTORE PUSH1 0x40 PUSH1 0x0 KECCAK256 PUSH1 0x0 SWAP2 POP SWAP2 POP SWAP1 SLOAD SWAP1 PUSH2 0x100 EXP SWAP1 DIV PUSH20 0xFFFFFFFFFFFFFFFFFFFFFFFFFFFFFFFFFFFFFFFF AND DUP2 JUMP JUMPDEST PUSH1 0x60 PUSH1 0x6 DUP1 SLOAD DUP1 PUSH1 0x20 MUL PUSH1 0x20 ADD PUSH1 0x40 MLOAD SWAP1 DUP2 ADD PUSH1 0x40 MSTORE DUP1 SWAP3 SWAP2 SWAP1 DUP2 DUP2 MSTORE PUSH1 0x20 ADD DUP3 DUP1 SLOAD DUP1 ISZERO PUSH2 0x883 JUMPI PUSH1 0x20 MUL DUP3 ADD SWAP2 SWAP1 PUSH1 0x0 MSTORE PUSH1 0x20 PUSH1 0x0 KECCAK256 SWAP1 JUMPDEST DUP2 PUSH1 0x0 SWAP1 SLOAD SWAP1 PUSH2 0x100 EXP SWAP1 DIV PUSH20 0xFFFFFFFFFFFFFFFFFFFFFFFFFFFFFFFFFFFFFFFF AND PUSH20 0xFFFFFFFFFFFFFFFFFFFFFFFFFFFFFFFFFFFFFFFF AND DUP2 MSTORE PUSH1 0x20 ADD SWAP1 PUSH1 0x1 ADD SWAP1 DUP1 DUP4 GT PUSH2 0x839 JUMPI JUMPDEST POP POP POP POP POP SWAP1 POP SWAP1 JUMP JUMPDEST PUSH1 0x7 SLOAD DUP2 JUMP JUMPDEST PUSH1 0x6 DUP2 DUP2 SLOAD DUP2 LT PUSH2 0x8A3 JUMPI PUSH1 0x0 DUP1 REVERT JUMPDEST SWAP1 PUSH1 0x0 MSTORE PUSH1 0x20 PUSH1 0x0 KECCAK256 ADD PUSH1 0x0 SWAP2 POP SLOAD SWAP1 PUSH2 0x100 EXP SWAP1 DIV PUSH20 0xFFFFFFFFFFFFFFFFFFFFFFFFFFFFFFFFFFFFFFFF AND DUP2 JUMP JUMPDEST PUSH1 0x60 PUSH2 0x8DE DUP6 DUP6 PUSH2 0xC51 JUMP JUMPDEST PUSH2 0x8E7 JUMPI PUSH1 0x0 DUP1 REVERT JUMPDEST PUSH2 0x8F1 DUP4 DUP4 PUSH2 0xC51 JUMP JUMPDEST PUSH2 0x8FA JUMPI PUSH1 0x0 DUP1 REVERT JUMPDEST DUP3 PUSH2 0xFFFF AND DUP6 PUSH2 0xFFFF AND GT ISZERO DUP1 ISZERO PUSH2 0x926 JUMPI POP PUSH1 0xC8 PUSH2 0xFFFF AND DUP6 DUP5 PUSH2 0x91F SWAP2 SWAP1 PUSH2 0x2AC1 JUMP JUMPDEST PUSH2 0xFFFF AND GT ISZERO JUMPDEST PUSH2 0x965 JUMPI PUSH1 0x40 MLOAD PUSH32 0x8C379A000000000000000000000000000000000000000000000000000000000 DUP2 MSTORE PUSH1 0x4 ADD PUSH2 0x95C SWAP1 PUSH2 0x2B43 JUMP JUMPDEST PUSH1 0x40 MLOAD DUP1 SWAP2 SUB SWAP1 REVERT JUMPDEST DUP2 PUSH2 0xFFFF AND DUP5 PUSH2 0xFFFF AND EQ ISZERO DUP1 ISZERO PUSH2 0x991 JUMPI POP PUSH1 0xC8 PUSH2 0xFFFF AND DUP5 DUP4 PUSH2 0x98A SWAP2 SWAP1 PUSH2 0x2AC1 JUMP JUMPDEST PUSH2 0xFFFF AND GT ISZERO JUMPDEST PUSH2 0x9D0 JUMPI PUSH1 0x40 MLOAD PUSH32 0x8C379A000000000000000000000000000000000000000000000000000000000 DUP2 MSTORE PUSH1 0x4 ADD PUSH2 0x9C7 SWAP1 PUSH2 0x2BAF JUMP JUMPDEST PUSH1 0x40 MLOAD DUP1 SWAP2 SUB SWAP1 REVERT JUMPDEST PUSH1 0x0 DUP1 DUP7 SWAP1 POP JUMPDEST DUP5 PUSH2 0xFFFF AND DUP2 PUSH2 0xFFFF AND LT ISZERO PUSH2 0xA75 JUMPI PUSH1 0x0 DUP7 SWAP1 POP JUMPDEST DUP5 PUSH2 0xFFFF AND DUP2 PUSH2 0xFFFF AND LT ISZERO PUSH2 0xA67 JUMPI PUSH2 0xA07 DUP3 DUP3 PUSH2 0x1BA7 JUMP JUMPDEST ISZERO PUSH2 0xA5A JUMPI PUSH1 0x40 MLOAD DUP1 PUSH1 0x40 ADD PUSH1 0x40 MSTORE DUP1 DUP4 PUSH2 0xFFFF AND DUP2 MSTORE PUSH1 0x20 ADD DUP3 PUSH2 0xFFFF AND DUP2 MSTORE POP DUP5 DUP5 PUSH2 0xFFFF AND DUP2 MLOAD DUP2 LT PUSH2 0xA40 JUMPI PUSH2 0xA3F PUSH2 0x2BCF JUMP JUMPDEST JUMPDEST PUSH1 0x20 MUL PUSH1 0x20 ADD ADD DUP2 SWAP1 MSTORE POP DUP3 DUP1 PUSH2 0xA56 SWAP1 PUSH2 0x2BFE JUMP JUMPDEST SWAP4 POP POP JUMPDEST DUP1 DUP1 PUSH1 0x1 ADD SWAP2 POP POP PUSH2 0x9ED JUMP JUMPDEST POP DUP1 DUP1 PUSH1 0x1 ADD SWAP2 POP POP PUSH2 0x9D7 JUMP JUMPDEST POP POP SWAP5 SWAP4 POP POP POP POP JUMP JUMPDEST DUP1 CALLER PUSH20 0xFFFFFFFFFFFFFFFFFFFFFFFFFFFFFFFFFFFFFFFF AND PUSH1 0x9 PUSH1 0x0 DUP4 DUP2 MSTORE PUSH1 0x20 ADD SWAP1 DUP2 MSTORE PUSH1 0x20 ADD PUSH1 0x0 KECCAK256 PUSH1 0x0 SWAP1 SLOAD SWAP1 PUSH2 0x100 EXP SWAP1 DIV PUSH20 0xFFFFFFFFFFFFFFFFFFFFFFFFFFFFFFFFFFFFFFFF AND PUSH20 0xFFFFFFFFFFFFFFFFFFFFFFFFFFFFFFFFFFFFFFFF AND EQ PUSH2 0xAEB JUMPI PUSH1 0x0 DUP1 REVERT JUMPDEST CALLER PUSH20 0xFFFFFFFFFFFFFFFFFFFFFFFFFFFFFFFFFFFFFFFF AND PUSH1 0x9 PUSH1 0x0 DUP5 DUP2 MSTORE PUSH1 0x20 ADD SWAP1 DUP2 MSTORE PUSH1 0x20 ADD PUSH1 0x0 KECCAK256 PUSH1 0x0 SWAP1 SLOAD SWAP1 PUSH2 0x100 EXP SWAP1 DIV PUSH20 0xFFFFFFFFFFFFFFFFFFFFFFFFFFFFFFFFFFFFFFFF AND PUSH20 0xFFFFFFFFFFFFFFFFFFFFFFFFFFFFFFFFFFFFFFFF AND EQ PUSH2 0xB56 JUMPI PUSH1 0x0 DUP1 REVERT JUMPDEST DUP4 PUSH20 0xFFFFFFFFFFFFFFFFFFFFFFFFFFFFFFFFFFFFFFFF AND PUSH1 0x9 PUSH1 0x0 DUP5 DUP2 MSTORE PUSH1 0x20 ADD SWAP1 DUP2 MSTORE PUSH1 0x20 ADD PUSH1 0x0 KECCAK256 PUSH1 0x0 SWAP1 SLOAD SWAP1 PUSH2 0x100 EXP SWAP1 DIV PUSH20 0xFFFFFFFFFFFFFFFFFFFFFFFFFFFFFFFFFFFFFFFF AND PUSH20 0xFFFFFFFFFFFFFFFFFFFFFFFFFFFFFFFFFFFFFFFF AND EQ PUSH2 0xBC1 JUMPI PUSH1 0x0 DUP1 REVERT JUMPDEST CALLER PUSH20 0xFFFFFFFFFFFFFFFFFFFFFFFFFFFFFFFFFFFFFFFF AND DUP5 PUSH20 0xFFFFFFFFFFFFFFFFFFFFFFFFFFFFFFFFFFFFFFFF AND EQ PUSH2 0xBF9 JUMPI PUSH1 0x0 DUP1 REVERT JUMPDEST DUP3 PUSH1 0x9 PUSH1 0x0 DUP5 DUP2 MSTORE PUSH1 0x20 ADD SWAP1 DUP2 MSTORE PUSH1 0x20 ADD PUSH1 0x0 KECCAK256 PUSH1 0x0 PUSH2 0x100 EXP DUP2 SLOAD DUP2 PUSH20 0xFFFFFFFFFFFFFFFFFFFFFFFFFFFFFFFFFFFFFFFF MUL NOT AND SWAP1 DUP4 PUSH20 0xFFFFFFFFFFFFFFFFFFFFFFFFFFFFFFFFFFFFFFFF AND MUL OR SWAP1 SSTORE POP POP POP POP POP JUMP JUMPDEST PUSH1 0x0 PUSH2 0x4650 PUSH2 0xFFFF AND DUP4 PUSH2 0xFFFF AND LT DUP1 ISZERO PUSH2 0xC75 JUMPI POP PUSH2 0x8CA0 PUSH2 0xFFFF AND DUP3 PUSH2 0xFFFF AND LT JUMPDEST SWAP1 POP SWAP3 SWAP2 POP POP JUMP JUMPDEST PUSH1 0x0 PUSH1 0x4 PUSH1 0x0 DUP5 PUSH20 0xFFFFFFFFFFFFFFFFFFFFFFFFFFFFFFFFFFFFFFFF AND PUSH20 0xFFFFFFFFFFFFFFFFFFFFFFFFFFFFFFFFFFFFFFFF AND DUP2 MSTORE PUSH1 0x20 ADD SWAP1 DUP2 MSTORE PUSH1 0x20 ADD PUSH1 0x0 KECCAK256 SLOAD DUP3 GT PUSH2 0xD00 JUMPI PUSH1 0x40 MLOAD PUSH32 0x8C379A000000000000000000000000000000000000000000000000000000000 DUP2 MSTORE PUSH1 0x4 ADD PUSH2 0xCF7 SWAP1 PUSH2 0x2C9A JUMP JUMPDEST PUSH1 0x40 MLOAD DUP1 SWAP2 SUB SWAP1 REVERT JUMPDEST PUSH1 0xA PUSH1 0x0 DUP5 PUSH20 0xFFFFFFFFFFFFFFFFFFFFFFFFFFFFFFFFFFFFFFFF AND PUSH20 0xFFFFFFFFFFFFFFFFFFFFFFFFFFFFFFFFFFFFFFFF AND DUP2 MSTORE PUSH1 0x20 ADD SWAP1 DUP2 MSTORE PUSH1 0x20 ADD PUSH1 0x0 KECCAK256 DUP3 DUP2 SLOAD DUP2 LT PUSH2 0xD51 JUMPI PUSH2 0xD50 PUSH2 0x2BCF JUMP JUMPDEST JUMPDEST SWAP1 PUSH1 0x0 MSTORE PUSH1 0x20 PUSH1 0x0 KECCAK256 ADD SLOAD SWAP1 POP SWAP3 SWAP2 POP POP JUMP JUMPDEST PUSH1 0x3 PUSH1 0x0 SWAP1 SLOAD SWAP1 PUSH2 0x100 EXP SWAP1 DIV PUSH1 0xFF AND DUP2 JUMP JUMPDEST PUSH1 0x60 PUSH1 0x0 DUP3 MLOAD SUB PUSH2 0xDD3 JUMPI PUSH1 0x0 PUSH8 0xFFFFFFFFFFFFFFFF DUP2 GT ISZERO PUSH2 0xD9D JUMPI PUSH2 0xD9C PUSH2 0x25CE JUMP JUMPDEST JUMPDEST PUSH1 0x40 MLOAD SWAP1 DUP1 DUP3 MSTORE DUP1 PUSH1 0x20 MUL PUSH1 0x20 ADD DUP3 ADD PUSH1 0x40 MSTORE DUP1 ISZERO PUSH2 0xDCB JUMPI DUP2 PUSH1 0x20 ADD PUSH1 0x20 DUP3 MUL DUP1 CALLDATASIZE DUP4 CALLDATACOPY DUP1 DUP3 ADD SWAP2 POP POP SWAP1 POP JUMPDEST POP SWAP1 POP PUSH2 0x15BB JUMP JUMPDEST DUP2 MLOAD PUSH8 0xFFFFFFFFFFFFFFFF DUP2 GT ISZERO PUSH2 0xDEE JUMPI PUSH2 0xDED PUSH2 0x25CE JUMP JUMPDEST JUMPDEST PUSH1 0x40 MLOAD SWAP1 DUP1 DUP3 MSTORE DUP1 PUSH1 0x20 MUL PUSH1 0x20 ADD DUP3 ADD PUSH1 0x40 MSTORE DUP1 ISZERO PUSH2 0xE1C JUMPI DUP2 PUSH1 0x20 ADD PUSH1 0x20 DUP3 MUL DUP1 CALLDATASIZE DUP4 CALLDATACOPY DUP1 DUP3 ADD SWAP2 POP POP SWAP1 POP JUMPDEST POP SWAP1 POP PUSH1 0x0 DUP1 PUSH1 0x0 SWAP1 POP PUSH1 0x0 DUP1 DUP6 DUP3 PUSH2 0xFFFF AND DUP2 MLOAD DUP2 LT PUSH2 0xE40 JUMPI PUSH2 0xE3F PUSH2 0x2BCF JUMP JUMPDEST JUMPDEST PUSH1 0x20 MUL PUSH1 0x20 ADD ADD MLOAD SWAP1 POP PUSH2 0xE52 PUSH2 0x1FA9 JUMP JUMPDEST PUSH1 0x0 DUP3 PUSH1 0x20 ADD MLOAD SWAP1 POP PUSH1 0x0 DUP1 PUSH1 0x0 JUMPDEST DUP11 MLOAD DUP8 PUSH2 0xFFFF AND LT ISZERO PUSH2 0x1476 JUMPI PUSH1 0x0 DUP9 PUSH2 0xFFFF AND EQ PUSH2 0xEF3 JUMPI PUSH1 0x1 DUP10 PUSH2 0xE87 SWAP2 SWAP1 PUSH2 0x2CBA JUMP JUMPDEST PUSH2 0xFFFF AND DUP12 DUP9 PUSH2 0xFFFF AND DUP2 MLOAD DUP2 LT PUSH2 0xEA2 JUMPI PUSH2 0xEA1 PUSH2 0x2BCF JUMP JUMPDEST JUMPDEST PUSH1 0x20 MUL PUSH1 0x20 ADD ADD MLOAD PUSH1 0x0 ADD MLOAD PUSH2 0xFFFF AND EQ PUSH2 0xEF2 JUMPI PUSH1 0x40 MLOAD PUSH32 0x8C379A000000000000000000000000000000000000000000000000000000000 DUP2 MSTORE PUSH1 0x4 ADD PUSH2 0xEE9 SWAP1 PUSH2 0x2D3C JUMP JUMPDEST PUSH1 0x40 MLOAD DUP1 SWAP2 SUB SWAP1 REVERT JUMPDEST JUMPDEST DUP11 DUP8 PUSH2 0xFFFF AND DUP2 MLOAD DUP2 LT PUSH2 0xF0A JUMPI PUSH2 0xF09 PUSH2 0x2BCF JUMP JUMPDEST JUMPDEST PUSH1 0x20 MUL PUSH1 0x20 ADD ADD MLOAD PUSH1 0x0 ADD MLOAD SWAP9 POP PUSH1 0x0 DUP12 DUP9 PUSH2 0xFFFF AND DUP2 MLOAD DUP2 LT PUSH2 0xF31 JUMPI PUSH2 0xF30 PUSH2 0x2BCF JUMP JUMPDEST JUMPDEST PUSH1 0x20 MUL PUSH1 0x20 ADD ADD MLOAD PUSH1 0x20 ADD MLOAD SWAP1 POP DUP5 PUSH2 0xFFFF AND DUP2 PUSH2 0xFFFF AND GT DUP1 ISZERO PUSH2 0xF54 JUMPI POP DUP3 ISZERO JUMPDEST ISZERO PUSH2 0xF62 JUMPI PUSH1 0x1 SWAP3 POP PUSH2 0xFB5 JUMP JUMPDEST DUP3 ISZERO PUSH2 0xFB4 JUMPI DUP5 PUSH2 0xFFFF AND DUP2 PUSH2 0xFFFF AND LT ISZERO PUSH2 0xFB3 JUMPI PUSH1 0x40 MLOAD PUSH32 0x8C379A000000000000000000000000000000000000000000000000000000000 DUP2 MSTORE PUSH1 0x4 ADD PUSH2 0xFAA SWAP1 PUSH2 0x2DA8 JUMP JUMPDEST PUSH1 0x40 MLOAD DUP1 SWAP2 SUB SWAP1 REVERT JUMPDEST JUMPDEST JUMPDEST PUSH1 0x0 DUP1 JUMPDEST DUP14 MLOAD DUP11 PUSH2 0xFFFF AND LT DUP1 ISZERO PUSH2 0xFF6 JUMPI POP DUP12 PUSH2 0xFFFF AND DUP15 DUP12 PUSH2 0xFFFF AND DUP2 MLOAD DUP2 LT PUSH2 0xFE4 JUMPI PUSH2 0xFE3 PUSH2 0x2BCF JUMP JUMPDEST JUMPDEST PUSH1 0x20 MUL PUSH1 0x20 ADD ADD MLOAD PUSH1 0x0 ADD MLOAD PUSH2 0xFFFF AND EQ JUMPDEST ISZERO PUSH2 0x1396 JUMPI DUP14 DUP11 PUSH2 0xFFFF AND DUP2 MLOAD DUP2 LT PUSH2 0x1012 JUMPI PUSH2 0x1011 PUSH2 0x2BCF JUMP JUMPDEST JUMPDEST PUSH1 0x20 MUL PUSH1 0x20 ADD ADD MLOAD SWAP9 POP PUSH2 0x102E DUP10 PUSH1 0x0 ADD MLOAD DUP11 PUSH1 0x20 ADD MLOAD PUSH2 0xC51 JUMP JUMPDEST PUSH2 0x106D JUMPI PUSH1 0x40 MLOAD PUSH32 0x8C379A000000000000000000000000000000000000000000000000000000000 DUP2 MSTORE PUSH1 0x4 ADD PUSH2 0x1064 SWAP1 PUSH2 0x2E14 JUMP JUMPDEST PUSH1 0x40 MLOAD DUP1 SWAP2 SUB SWAP1 REVERT JUMPDEST PUSH1 0x0 PUSH20 0xFFFFFFFFFFFFFFFFFFFFFFFFFFFFFFFFFFFFFFFF AND PUSH2 0x1097 DUP11 PUSH1 0x0 ADD MLOAD DUP12 PUSH1 0x20 ADD MLOAD PUSH2 0x1C33 JUMP JUMPDEST PUSH20 0xFFFFFFFFFFFFFFFFFFFFFFFFFFFFFFFFFFFFFFFF AND EQ PUSH2 0x10ED JUMPI PUSH1 0x40 MLOAD PUSH32 0x8C379A000000000000000000000000000000000000000000000000000000000 DUP2 MSTORE PUSH1 0x4 ADD PUSH2 0x10E4 SWAP1 PUSH2 0x2E80 JUMP JUMPDEST PUSH1 0x40 MLOAD DUP1 SWAP2 SUB SWAP1 REVERT JUMPDEST PUSH1 0x0 DUP3 PUSH2 0xFFFF AND EQ PUSH2 0x1158 JUMPI PUSH1 0x1 DUP9 PUSH1 0x20 ADD MLOAD PUSH2 0x110A SWAP2 SWAP1 PUSH2 0x2CBA JUMP JUMPDEST PUSH2 0xFFFF AND DUP10 PUSH1 0x20 ADD MLOAD PUSH2 0xFFFF AND EQ PUSH2 0x1157 JUMPI PUSH1 0x40 MLOAD PUSH32 0x8C379A000000000000000000000000000000000000000000000000000000000 DUP2 MSTORE PUSH1 0x4 ADD PUSH2 0x114E SWAP1 PUSH2 0x2EEC JUMP JUMPDEST PUSH1 0x40 MLOAD DUP1 SWAP2 SUB SWAP1 REVERT JUMPDEST JUMPDEST DUP2 DUP1 PUSH2 0x1163 SWAP1 PUSH2 0x2BFE JUMP JUMPDEST SWAP3 POP POP PUSH1 0x0 DUP12 PUSH2 0xFFFF AND SUB PUSH2 0x117B JUMPI PUSH1 0x1 SWAP1 POP PUSH2 0x11B3 JUMP JUMPDEST PUSH1 0x1 ISZERO ISZERO DUP2 ISZERO ISZERO EQ PUSH2 0x11B2 JUMPI DUP7 PUSH2 0xFFFF AND DUP10 PUSH1 0x20 ADD MLOAD PUSH2 0xFFFF AND LT ISZERO DUP1 ISZERO PUSH2 0x11AF JUMPI POP DUP6 PUSH2 0xFFFF AND DUP10 PUSH1 0x20 ADD MLOAD PUSH2 0xFFFF AND GT ISZERO JUMPDEST SWAP1 POP JUMPDEST JUMPDEST PUSH1 0x0 PUSH2 0x11BF PUSH1 0x0 PUSH2 0x1F85 JUMP JUMPDEST SWAP1 POP PUSH2 0x11CB PUSH1 0x0 PUSH2 0x1F93 JUMP JUMPDEST CALLER PUSH1 0x8 PUSH1 0x0 DUP13 PUSH1 0x0 ADD MLOAD PUSH2 0xFFFF AND PUSH2 0xFFFF AND DUP2 MSTORE PUSH1 0x20 ADD SWAP1 DUP2 MSTORE PUSH1 0x20 ADD PUSH1 0x0 KECCAK256 PUSH1 0x0 DUP13 PUSH1 0x20 ADD MLOAD PUSH2 0xFFFF AND PUSH2 0xFFFF AND DUP2 MSTORE PUSH1 0x20 ADD SWAP1 DUP2 MSTORE PUSH1 0x20 ADD PUSH1 0x0 KECCAK256 PUSH1 0x0 PUSH2 0x100 EXP DUP2 SLOAD DUP2 PUSH20 0xFFFFFFFFFFFFFFFFFFFFFFFFFFFFFFFFFFFFFFFF MUL NOT AND SWAP1 DUP4 PUSH20 0xFFFFFFFFFFFFFFFFFFFFFFFFFFFFFFFFFFFFFFFF AND MUL OR SWAP1 SSTORE POP CALLER PUSH1 0x9 PUSH1 0x0 DUP4 DUP2 MSTORE PUSH1 0x20 ADD SWAP1 DUP2 MSTORE PUSH1 0x20 ADD PUSH1 0x0 KECCAK256 PUSH1 0x0 PUSH2 0x100 EXP DUP2 SLOAD DUP2 PUSH20 0xFFFFFFFFFFFFFFFFFFFFFFFFFFFFFFFFFFFFFFFF MUL NOT AND SWAP1 DUP4 PUSH20 0xFFFFFFFFFFFFFFFFFFFFFFFFFFFFFFFFFFFFFFFF AND MUL OR SWAP1 SSTORE POP DUP1 DUP15 DUP13 PUSH2 0xFFFF AND DUP2 MLOAD DUP2 LT PUSH2 0x12B0 JUMPI PUSH2 0x12AF PUSH2 0x2BCF JUMP JUMPDEST JUMPDEST PUSH1 0x20 MUL PUSH1 0x20 ADD ADD DUP2 DUP2 MSTORE POP POP PUSH1 0xA PUSH1 0x0 CALLER PUSH20 0xFFFFFFFFFFFFFFFFFFFFFFFFFFFFFFFFFFFFFFFF AND PUSH20 0xFFFFFFFFFFFFFFFFFFFFFFFFFFFFFFFFFFFFFFFF AND DUP2 MSTORE PUSH1 0x20 ADD SWAP1 DUP2 MSTORE PUSH1 0x20 ADD PUSH1 0x0 KECCAK256 DUP2 SWAP1 DUP1 PUSH1 0x1 DUP2 SLOAD ADD DUP1 DUP3 SSTORE DUP1 SWAP2 POP POP PUSH1 0x1 SWAP1 SUB SWAP1 PUSH1 0x0 MSTORE PUSH1 0x20 PUSH1 0x0 KECCAK256 ADD PUSH1 0x0 SWAP1 SWAP2 SWAP1 SWAP2 SWAP1 SWAP2 POP SSTORE DUP10 PUSH1 0xB PUSH1 0x0 DUP4 DUP2 MSTORE PUSH1 0x20 ADD SWAP1 DUP2 MSTORE PUSH1 0x20 ADD PUSH1 0x0 KECCAK256 PUSH1 0x0 DUP3 ADD MLOAD DUP2 PUSH1 0x0 ADD PUSH1 0x0 PUSH2 0x100 EXP DUP2 SLOAD DUP2 PUSH2 0xFFFF MUL NOT AND SWAP1 DUP4 PUSH2 0xFFFF AND MUL OR SWAP1 SSTORE POP PUSH1 0x20 DUP3 ADD MLOAD DUP2 PUSH1 0x0 ADD PUSH1 0x2 PUSH2 0x100 EXP DUP2 SLOAD DUP2 PUSH2 0xFFFF MUL NOT AND SWAP1 DUP4 PUSH2 0xFFFF AND MUL OR SWAP1 SSTORE POP SWAP1 POP POP DUP10 SWAP9 POP DUP11 DUP1 PUSH2 0x138D SWAP1 PUSH2 0x2BFE JUMP JUMPDEST SWAP12 POP POP POP PUSH2 0xFB9 JUMP JUMPDEST DUP11 DUP1 PUSH2 0x13A1 SWAP1 PUSH2 0x2BFE JUMP JUMPDEST SWAP12 POP POP PUSH1 0x0 DUP9 PUSH1 0x20 ADD MLOAD SWAP1 POP DUP7 PUSH2 0xFFFF AND DUP2 PUSH2 0xFFFF AND LT DUP1 ISZERO PUSH2 0x13C2 JUMPI POP DUP5 ISZERO JUMPDEST ISZERO PUSH2 0x13D0 JUMPI PUSH1 0x1 SWAP5 POP PUSH2 0x1423 JUMP JUMPDEST DUP5 ISZERO PUSH2 0x1422 JUMPI DUP7 PUSH2 0xFFFF AND DUP2 PUSH2 0xFFFF AND GT ISZERO PUSH2 0x1421 JUMPI PUSH1 0x40 MLOAD PUSH32 0x8C379A000000000000000000000000000000000000000000000000000000000 DUP2 MSTORE PUSH1 0x4 ADD PUSH2 0x1418 SWAP1 PUSH2 0x2F58 JUMP JUMPDEST PUSH1 0x40 MLOAD DUP1 SWAP2 SUB SWAP1 REVERT JUMPDEST JUMPDEST JUMPDEST DUP9 PUSH1 0x20 ADD MLOAD SWAP7 POP DUP4 SWAP8 POP DUP2 PUSH2 0x146D JUMPI PUSH1 0x40 MLOAD PUSH32 0x8C379A000000000000000000000000000000000000000000000000000000000 DUP2 MSTORE PUSH1 0x4 ADD PUSH2 0x1464 SWAP1 PUSH2 0x2FEA JUMP JUMPDEST PUSH1 0x40 MLOAD DUP1 SWAP2 SUB SWAP1 REVERT JUMPDEST POP POP POP POP PUSH2 0xE61 JUMP JUMPDEST PUSH1 0x0 PUSH1 0x4 PUSH1 0x0 CALLER PUSH20 0xFFFFFFFFFFFFFFFFFFFFFFFFFFFFFFFFFFFFFFFF AND PUSH20 0xFFFFFFFFFFFFFFFFFFFFFFFFFFFFFFFFFFFFFFFF AND DUP2 MSTORE PUSH1 0x20 ADD SWAP1 DUP2 MSTORE PUSH1 0x20 ADD PUSH1 0x0 KECCAK256 SLOAD SUB PUSH2 0x1521 JUMPI PUSH1 0x6 CALLER SWAP1 DUP1 PUSH1 0x1 DUP2 SLOAD ADD DUP1 DUP3 SSTORE DUP1 SWAP2 POP POP PUSH1 0x1 SWAP1 SUB SWAP1 PUSH1 0x0 MSTORE PUSH1 0x20 PUSH1 0x0 KECCAK256 ADD PUSH1 0x0 SWAP1 SWAP2 SWAP1 SWAP2 SWAP1 SWAP2 PUSH2 0x100 EXP DUP2 SLOAD DUP2 PUSH20 0xFFFFFFFFFFFFFFFFFFFFFFFFFFFFFFFFFFFFFFFF MUL NOT AND SWAP1 DUP4 PUSH20 0xFFFFFFFFFFFFFFFFFFFFFFFFFFFFFFFFFFFFFFFF AND MUL OR SWAP1 SSTORE POP JUMPDEST DUP10 MLOAD PUSH1 0x4 PUSH1 0x0 CALLER PUSH20 0xFFFFFFFFFFFFFFFFFFFFFFFFFFFFFFFFFFFFFFFF AND PUSH20 0xFFFFFFFFFFFFFFFFFFFFFFFFFFFFFFFFFFFFFFFF AND DUP2 MSTORE PUSH1 0x20 ADD SWAP1 DUP2 MSTORE PUSH1 0x20 ADD PUSH1 0x0 KECCAK256 PUSH1 0x0 DUP3 DUP3 SLOAD PUSH2 0x1571 SWAP2 SWAP1 PUSH2 0x300A JUMP JUMPDEST SWAP3 POP POP DUP2 SWAP1 SSTORE POP PUSH32 0xBA0C73CF1D048680A4F027C842BFB33F33BE6D4A550BE278758342AD8A506247 CALLER DUP13 PUSH1 0x40 MLOAD PUSH2 0x15A9 SWAP3 SWAP2 SWAP1 PUSH2 0x303E JUMP JUMPDEST PUSH1 0x40 MLOAD DUP1 SWAP2 SUB SWAP1 LOG1 POP POP POP POP POP POP POP POP POP JUMPDEST SWAP2 SWAP1 POP JUMP JUMPDEST PUSH1 0x60 PUSH1 0x0 PUSH1 0x4 PUSH1 0x0 DUP5 PUSH20 0xFFFFFFFFFFFFFFFFFFFFFFFFFFFFFFFFFFFFFFFF AND PUSH20 0xFFFFFFFFFFFFFFFFFFFFFFFFFFFFFFFFFFFFFFFF AND DUP2 MSTORE PUSH1 0x20 ADD SWAP1 DUP2 MSTORE PUSH1 0x20 ADD PUSH1 0x0 KECCAK256 SLOAD GT PUSH2 0x1644 JUMPI PUSH1 0x40 MLOAD PUSH32 0x8C379A000000000000000000000000000000000000000000000000000000000 DUP2 MSTORE PUSH1 0x4 ADD PUSH2 0x163B SWAP1 PUSH2 0x30BA JUMP JUMPDEST PUSH1 0x40 MLOAD DUP1 SWAP2 SUB SWAP1 REVERT JUMPDEST PUSH1 0xA PUSH1 0x0 DUP4 PUSH20 0xFFFFFFFFFFFFFFFFFFFFFFFFFFFFFFFFFFFFFFFF AND PUSH20 0xFFFFFFFFFFFFFFFFFFFFFFFFFFFFFFFFFFFFFFFF AND DUP2 MSTORE PUSH1 0x20 ADD SWAP1 DUP2 MSTORE PUSH1 0x20 ADD PUSH1 0x0 KECCAK256 DUP1 SLOAD DUP1 PUSH1 0x20 MUL PUSH1 0x20 ADD PUSH1 0x40 MLOAD SWAP1 DUP2 ADD PUSH1 0x40 MSTORE DUP1 SWAP3 SWAP2 SWAP1 DUP2 DUP2 MSTORE PUSH1 0x20 ADD DUP3 DUP1 SLOAD DUP1 ISZERO PUSH2 0x16CD JUMPI PUSH1 0x20 MUL DUP3 ADD SWAP2 SWAP1 PUSH1 0x0 MSTORE PUSH1 0x20 PUSH1 0x0 KECCAK256 SWAP1 JUMPDEST DUP2 SLOAD DUP2 MSTORE PUSH1 0x20 ADD SWAP1 PUSH1 0x1 ADD SWAP1 DUP1 DUP4 GT PUSH2 0x16B9 JUMPI JUMPDEST POP POP POP POP POP SWAP1 POP SWAP2 SWAP1 POP JUMP JUMPDEST PUSH1 0x0 PUSH1 0x9 PUSH1 0x0 DUP4 DUP2 MSTORE PUSH1 0x20 ADD SWAP1 DUP2 MSTORE PUSH1 0x20 ADD PUSH1 0x0 KECCAK256 PUSH1 0x0 SWAP1 SLOAD SWAP1 PUSH2 0x100 EXP SWAP1 DIV PUSH20 0xFFFFFFFFFFFFFFFFFFFFFFFFFFFFFFFFFFFFFFFF AND SWAP1 POP SWAP2 SWAP1 POP JUMP JUMPDEST PUSH1 0xA PUSH1 0x20 MSTORE DUP2 PUSH1 0x0 MSTORE PUSH1 0x40 PUSH1 0x0 KECCAK256 DUP2 DUP2 SLOAD DUP2 LT PUSH2 0x1732 JUMPI PUSH1 0x0 DUP1 REVERT JUMPDEST SWAP1 PUSH1 0x0 MSTORE PUSH1 0x20 PUSH1 0x0 KECCAK256 ADD PUSH1 0x0 SWAP2 POP SWAP2 POP POP SLOAD DUP2 JUMP JUMPDEST PUSH1 0x9 PUSH1 0x20 MSTORE DUP1 PUSH1 0x0 MSTORE PUSH1 0x40 PUSH1 0x0 KECCAK256 PUSH1 0x0 SWAP2 POP SLOAD SWAP1 PUSH2 0x100 EXP SWAP1 DIV PUSH20 0xFFFFFFFFFFFFFFFFFFFFFFFFFFFFFFFFFFFFFFFF AND DUP2 JUMP JUMPDEST PUSH1 0x4 PUSH1 0x20 MSTORE DUP1 PUSH1 0x0 MSTORE PUSH1 0x40 PUSH1 0x0 KECCAK256 PUSH1 0x0 SWAP2 POP SWAP1 POP SLOAD DUP2 JUMP JUMPDEST PUSH1 0x0 PUSH2 0x179E DUP4 DUP4 PUSH2 0xC51 JUMP JUMPDEST PUSH2 0x17DD JUMPI PUSH1 0x40 MLOAD PUSH32 0x8C379A000000000000000000000000000000000000000000000000000000000 DUP2 MSTORE PUSH1 0x4 ADD PUSH2 0x17D4 SWAP1 PUSH2 0x3126 JUMP JUMPDEST PUSH1 0x40 MLOAD DUP1 SWAP2 SUB SWAP1 REVERT JUMPDEST PUSH2 0x17E7 DUP4 DUP4 PUSH2 0x1BA7 JUMP JUMPDEST ISZERO PUSH2 0x1827 JUMPI PUSH1 0x40 MLOAD PUSH32 0x8C379A000000000000000000000000000000000000000000000000000000000 DUP2 MSTORE PUSH1 0x4 ADD PUSH2 0x181E SWAP1 PUSH2 0x3192 JUMP JUMPDEST PUSH1 0x40 MLOAD DUP1 SWAP2 SUB SWAP1 REVERT JUMPDEST PUSH1 0x0 PUSH1 0x40 MLOAD DUP1 PUSH1 0x40 ADD PUSH1 0x40 MSTORE DUP1 DUP6 PUSH2 0xFFFF AND DUP2 MSTORE PUSH1 0x20 ADD DUP5 PUSH2 0xFFFF AND DUP2 MSTORE POP SWAP1 POP PUSH1 0x0 PUSH1 0x4 PUSH1 0x0 CALLER PUSH20 0xFFFFFFFFFFFFFFFFFFFFFFFFFFFFFFFFFFFFFFFF AND PUSH20 0xFFFFFFFFFFFFFFFFFFFFFFFFFFFFFFFFFFFFFFFF AND DUP2 MSTORE PUSH1 0x20 ADD SWAP1 DUP2 MSTORE PUSH1 0x20 ADD PUSH1 0x0 KECCAK256 SLOAD SUB PUSH2 0x18F3 JUMPI PUSH1 0x6 CALLER SWAP1 DUP1 PUSH1 0x1 DUP2 SLOAD ADD DUP1 DUP3 SSTORE DUP1 SWAP2 POP POP PUSH1 0x1 SWAP1 SUB SWAP1 PUSH1 0x0 MSTORE PUSH1 0x20 PUSH1 0x0 KECCAK256 ADD PUSH1 0x0 SWAP1 SWAP2 SWAP1 SWAP2 SWAP1 SWAP2 PUSH2 0x100 EXP DUP2 SLOAD DUP2 PUSH20 0xFFFFFFFFFFFFFFFFFFFFFFFFFFFFFFFFFFFFFFFF MUL NOT AND SWAP1 DUP4 PUSH20 0xFFFFFFFFFFFFFFFFFFFFFFFFFFFFFFFFFFFFFFFF AND MUL OR SWAP1 SSTORE POP JUMPDEST PUSH1 0x0 PUSH2 0x18FF PUSH1 0x0 PUSH2 0x1F85 JUMP JUMPDEST SWAP1 POP PUSH2 0x190B PUSH1 0x0 PUSH2 0x1F93 JUMP JUMPDEST CALLER PUSH1 0x8 PUSH1 0x0 DUP8 PUSH2 0xFFFF AND PUSH2 0xFFFF AND DUP2 MSTORE PUSH1 0x20 ADD SWAP1 DUP2 MSTORE PUSH1 0x20 ADD PUSH1 0x0 KECCAK256 PUSH1 0x0 DUP7 PUSH2 0xFFFF AND PUSH2 0xFFFF AND DUP2 MSTORE PUSH1 0x20 ADD SWAP1 DUP2 MSTORE PUSH1 0x20 ADD PUSH1 0x0 KECCAK256 PUSH1 0x0 PUSH2 0x100 EXP DUP2 SLOAD DUP2 PUSH20 0xFFFFFFFFFFFFFFFFFFFFFFFFFFFFFFFFFFFFFFFF MUL NOT AND SWAP1 DUP4 PUSH20 0xFFFFFFFFFFFFFFFFFFFFFFFFFFFFFFFFFFFFFFFF AND MUL OR SWAP1 SSTORE POP CALLER PUSH1 0x9 PUSH1 0x0 DUP4 DUP2 MSTORE PUSH1 0x20 ADD SWAP1 DUP2 MSTORE PUSH1 0x20 ADD PUSH1 0x0 KECCAK256 PUSH1 0x0 PUSH2 0x100 EXP DUP2 SLOAD DUP2 PUSH20 0xFFFFFFFFFFFFFFFFFFFFFFFFFFFFFFFFFFFFFFFF MUL NOT AND SWAP1 DUP4 PUSH20 0xFFFFFFFFFFFFFFFFFFFFFFFFFFFFFFFFFFFFFFFF AND MUL OR SWAP1 SSTORE POP PUSH1 0xA PUSH1 0x0 CALLER PUSH20 0xFFFFFFFFFFFFFFFFFFFFFFFFFFFFFFFFFFFFFFFF AND PUSH20 0xFFFFFFFFFFFFFFFFFFFFFFFFFFFFFFFFFFFFFFFF AND DUP2 MSTORE PUSH1 0x20 ADD SWAP1 DUP2 MSTORE PUSH1 0x20 ADD PUSH1 0x0 KECCAK256 DUP2 SWAP1 DUP1 PUSH1 0x1 DUP2 SLOAD ADD DUP1 DUP3 SSTORE DUP1 SWAP2 POP POP PUSH1 0x1 SWAP1 SUB SWAP1 PUSH1 0x0 MSTORE PUSH1 0x20 PUSH1 0x0 KECCAK256 ADD PUSH1 0x0 SWAP1 SWAP2 SWAP1 SWAP2 SWAP1 SWAP2 POP SSTORE DUP2 PUSH1 0xB PUSH1 0x0 DUP4 DUP2 MSTORE PUSH1 0x20 ADD SWAP1 DUP2 MSTORE PUSH1 0x20 ADD PUSH1 0x0 KECCAK256 PUSH1 0x0 DUP3 ADD MLOAD DUP2 PUSH1 0x0 ADD PUSH1 0x0 PUSH2 0x100 EXP DUP2 SLOAD DUP2 PUSH2 0xFFFF MUL NOT AND SWAP1 DUP4 PUSH2 0xFFFF AND MUL OR SWAP1 SSTORE POP PUSH1 0x20 DUP3 ADD MLOAD DUP2 PUSH1 0x0 ADD PUSH1 0x2 PUSH2 0x100 EXP DUP2 SLOAD DUP2 PUSH2 0xFFFF MUL NOT AND SWAP1 DUP4 PUSH2 0xFFFF AND MUL OR SWAP1 SSTORE POP SWAP1 POP POP PUSH32 0x9FC8B54324CEE45C93051FFC36CF6B1C1E5157DB625A504E253F15FFDC912A80 CALLER DUP7 DUP7 PUSH1 0x40 MLOAD PUSH2 0x1AC6 SWAP4 SWAP3 SWAP2 SWAP1 PUSH2 0x31B2 JUMP JUMPDEST PUSH1 0x40 MLOAD DUP1 SWAP2 SUB SWAP1 LOG1 DUP1 SWAP3 POP POP POP SWAP3 SWAP2 POP POP JUMP JUMPDEST PUSH1 0xB PUSH1 0x20 MSTORE DUP1 PUSH1 0x0 MSTORE PUSH1 0x40 PUSH1 0x0 KECCAK256 PUSH1 0x0 SWAP2 POP SWAP1 POP DUP1 PUSH1 0x0 ADD PUSH1 0x0 SWAP1 SLOAD SWAP1 PUSH2 0x100 EXP SWAP1 DIV PUSH2 0xFFFF AND SWAP1 DUP1 PUSH1 0x0 ADD PUSH1 0x2 SWAP1 SLOAD SWAP1 PUSH2 0x100 EXP SWAP1 DIV PUSH2 0xFFFF AND SWAP1 POP DUP3 JUMP JUMPDEST PUSH1 0x2 DUP1 SLOAD PUSH2 0x1B26 SWAP1 PUSH2 0x2A61 JUMP JUMPDEST DUP1 PUSH1 0x1F ADD PUSH1 0x20 DUP1 SWAP2 DIV MUL PUSH1 0x20 ADD PUSH1 0x40 MLOAD SWAP1 DUP2 ADD PUSH1 0x40 MSTORE DUP1 SWAP3 SWAP2 SWAP1 DUP2 DUP2 MSTORE PUSH1 0x20 ADD DUP3 DUP1 SLOAD PUSH2 0x1B52 SWAP1 PUSH2 0x2A61 JUMP JUMPDEST DUP1 ISZERO PUSH2 0x1B9F JUMPI DUP1 PUSH1 0x1F LT PUSH2 0x1B74 JUMPI PUSH2 0x100 DUP1 DUP4 SLOAD DIV MUL DUP4 MSTORE SWAP2 PUSH1 0x20 ADD SWAP2 PUSH2 0x1B9F JUMP JUMPDEST DUP3 ADD SWAP2 SWAP1 PUSH1 0x0 MSTORE PUSH1 0x20 PUSH1 0x0 KECCAK256 SWAP1 JUMPDEST DUP2 SLOAD DUP2 MSTORE SWAP1 PUSH1 0x1 ADD SWAP1 PUSH1 0x20 ADD DUP1 DUP4 GT PUSH2 0x1B82 JUMPI DUP3 SWAP1 SUB PUSH1 0x1F AND DUP3 ADD SWAP2 JUMPDEST POP POP POP POP POP DUP2 JUMP JUMPDEST PUSH1 0x0 DUP1 PUSH20 0xFFFFFFFFFFFFFFFFFFFFFFFFFFFFFFFFFFFFFFFF AND PUSH2 0x1BCA DUP5 DUP5 PUSH2 0x1C33 JUMP JUMPDEST PUSH20 0xFFFFFFFFFFFFFFFFFFFFFFFFFFFFFFFFFFFFFFFF AND EQ ISZERO SWAP1 POP SWAP3 SWAP2 POP POP JUMP JUMPDEST PUSH1 0x5 DUP2 DUP1 MLOAD PUSH1 0x20 DUP2 ADD DUP3 ADD DUP1 MLOAD DUP5 DUP3 MSTORE PUSH1 0x20 DUP4 ADD PUSH1 0x20 DUP6 ADD KECCAK256 DUP2 DUP4 MSTORE DUP1 SWAP6 POP POP POP POP POP POP PUSH1 0x0 SWAP2 POP SLOAD SWAP1 PUSH2 0x100 EXP SWAP1 DIV PUSH20 0xFFFFFFFFFFFFFFFFFFFFFFFFFFFFFFFFFFFFFFFF AND DUP2 JUMP JUMPDEST PUSH1 0x0 PUSH1 0x8 PUSH1 0x0 DUP5 PUSH2 0xFFFF AND PUSH2 0xFFFF AND DUP2 MSTORE PUSH1 0x20 ADD SWAP1 DUP2 MSTORE PUSH1 0x20 ADD PUSH1 0x0 KECCAK256 PUSH1 0x0 DUP4 PUSH2 0xFFFF AND PUSH2 0xFFFF AND DUP2 MSTORE PUSH1 0x20 ADD SWAP1 DUP2 MSTORE PUSH1 0x20 ADD PUSH1 0x0 KECCAK256 PUSH1 0x0 SWAP1 SLOAD SWAP1 PUSH2 0x100 EXP SWAP1 DIV PUSH20 0xFFFFFFFFFFFFFFFFFFFFFFFFFFFFFFFFFFFFFFFF AND SWAP1 POP SWAP3 SWAP2 POP POP JUMP JUMPDEST PUSH1 0x60 PUSH1 0x0 PUSH1 0x4 PUSH1 0x0 DUP5 PUSH20 0xFFFFFFFFFFFFFFFFFFFFFFFFFFFFFFFFFFFFFFFF AND PUSH20 0xFFFFFFFFFFFFFFFFFFFFFFFFFFFFFFFFFFFFFFFF AND DUP2 MSTORE PUSH1 0x20 ADD SWAP1 DUP2 MSTORE PUSH1 0x20 ADD PUSH1 0x0 KECCAK256 SLOAD SUB PUSH2 0x1D37 JUMPI PUSH1 0x0 PUSH8 0xFFFFFFFFFFFFFFFF DUP2 GT ISZERO PUSH2 0x1CF6 JUMPI PUSH2 0x1CF5 PUSH2 0x25CE JUMP JUMPDEST JUMPDEST PUSH1 0x40 MLOAD SWAP1 DUP1 DUP3 MSTORE DUP1 PUSH1 0x20 MUL PUSH1 0x20 ADD DUP3 ADD PUSH1 0x40 MSTORE DUP1 ISZERO PUSH2 0x1D2F JUMPI DUP2 PUSH1 0x20 ADD JUMPDEST PUSH2 0x1D1C PUSH2 0x1FA9 JUMP JUMPDEST DUP2 MSTORE PUSH1 0x20 ADD SWAP1 PUSH1 0x1 SWAP1 SUB SWAP1 DUP2 PUSH2 0x1D14 JUMPI SWAP1 POP JUMPDEST POP SWAP1 POP PUSH2 0x1E53 JUMP JUMPDEST PUSH1 0x0 PUSH2 0x1D42 DUP4 PUSH2 0x15C0 JUMP JUMPDEST SWAP1 POP PUSH1 0x0 DUP2 MLOAD PUSH8 0xFFFFFFFFFFFFFFFF DUP2 GT ISZERO PUSH2 0x1D61 JUMPI PUSH2 0x1D60 PUSH2 0x25CE JUMP JUMPDEST JUMPDEST PUSH1 0x40 MLOAD SWAP1 DUP1 DUP3 MSTORE DUP1 PUSH1 0x20 MUL PUSH1 0x20 ADD DUP3 ADD PUSH1 0x40 MSTORE DUP1 ISZERO PUSH2 0x1D9A JUMPI DUP2 PUSH1 0x20 ADD JUMPDEST PUSH2 0x1D87 PUSH2 0x1FA9 JUMP JUMPDEST DUP2 MSTORE PUSH1 0x20 ADD SWAP1 PUSH1 0x1 SWAP1 SUB SWAP1 DUP2 PUSH2 0x1D7F JUMPI SWAP1 POP JUMPDEST POP SWAP1 POP PUSH1 0x0 JUMPDEST DUP3 MLOAD DUP2 LT ISZERO PUSH2 0x1E4C JUMPI PUSH1 0xB PUSH1 0x0 DUP5 DUP4 DUP2 MLOAD DUP2 LT PUSH2 0x1DC0 JUMPI PUSH2 0x1DBF PUSH2 0x2BCF JUMP JUMPDEST JUMPDEST PUSH1 0x20 MUL PUSH1 0x20 ADD ADD MLOAD DUP2 MSTORE PUSH1 0x20 ADD SWAP1 DUP2 MSTORE PUSH1 0x20 ADD PUSH1 0x0 KECCAK256 PUSH1 0x40 MLOAD DUP1 PUSH1 0x40 ADD PUSH1 0x40 MSTORE SWAP1 DUP2 PUSH1 0x0 DUP3 ADD PUSH1 0x0 SWAP1 SLOAD SWAP1 PUSH2 0x100 EXP SWAP1 DIV PUSH2 0xFFFF AND PUSH2 0xFFFF AND PUSH2 0xFFFF AND DUP2 MSTORE PUSH1 0x20 ADD PUSH1 0x0 DUP3 ADD PUSH1 0x2 SWAP1 SLOAD SWAP1 PUSH2 0x100 EXP SWAP1 DIV PUSH2 0xFFFF AND PUSH2 0xFFFF AND PUSH2 0xFFFF AND DUP2 MSTORE POP POP DUP3 DUP3 DUP2 MLOAD DUP2 LT PUSH2 0x1E34 JUMPI PUSH2 0x1E33 PUSH2 0x2BCF JUMP JUMPDEST JUMPDEST PUSH1 0x20 MUL PUSH1 0x20 ADD ADD DUP2 SWAP1 MSTORE POP DUP1 DUP1 PUSH1 0x1 ADD SWAP2 POP POP PUSH2 0x1DA0 JUMP JUMPDEST POP DUP1 SWAP3 POP POP POP JUMPDEST SWAP2 SWAP1 POP JUMP JUMPDEST PUSH1 0x0 PUSH2 0x1E6C DUP4 PUSH1 0x0 ADD MLOAD DUP5 PUSH1 0x20 ADD MLOAD PUSH2 0xC51 JUMP JUMPDEST PUSH2 0x1E75 JUMPI PUSH1 0x0 DUP1 REVERT JUMPDEST PUSH2 0x1E87 DUP3 PUSH1 0x0 ADD MLOAD DUP4 PUSH1 0x20 ADD MLOAD PUSH2 0xC51 JUMP JUMPDEST PUSH2 0x1E90 JUMPI PUSH1 0x0 DUP1 REVERT JUMPDEST DUP2 PUSH1 0x0 ADD MLOAD PUSH2 0xFFFF AND DUP4 PUSH1 0x0 ADD MLOAD PUSH2 0xFFFF AND SUB PUSH2 0x1F00 JUMPI PUSH1 0x0 DUP3 PUSH1 0x20 ADD MLOAD PUSH2 0xFFFF AND DUP5 PUSH1 0x20 ADD MLOAD PUSH2 0xFFFF AND GT PUSH2 0x1ED9 JUMPI DUP4 PUSH1 0x20 ADD MLOAD DUP4 PUSH1 0x20 ADD MLOAD PUSH2 0x1ED4 SWAP2 SWAP1 PUSH2 0x2AC1 JUMP JUMPDEST PUSH2 0x1EEE JUMP JUMPDEST DUP3 PUSH1 0x20 ADD MLOAD DUP5 PUSH1 0x20 ADD MLOAD PUSH2 0x1EED SWAP2 SWAP1 PUSH2 0x2AC1 JUMP JUMPDEST JUMPDEST SWAP1 POP PUSH1 0x1 DUP2 PUSH2 0xFFFF AND EQ SWAP2 POP POP PUSH2 0x1F75 JUMP JUMPDEST DUP2 PUSH1 0x20 ADD MLOAD PUSH2 0xFFFF AND DUP4 PUSH1 0x20 ADD MLOAD PUSH2 0xFFFF AND SUB PUSH2 0x1F70 JUMPI PUSH1 0x0 DUP3 PUSH1 0x0 ADD MLOAD PUSH2 0xFFFF AND DUP5 PUSH1 0x0 ADD MLOAD PUSH2 0xFFFF AND GT PUSH2 0x1F49 JUMPI DUP4 PUSH1 0x0 ADD MLOAD DUP4 PUSH1 0x0 ADD MLOAD PUSH2 0x1F44 SWAP2 SWAP1 PUSH2 0x2AC1 JUMP JUMPDEST PUSH2 0x1F5E JUMP JUMPDEST DUP3 PUSH1 0x0 ADD MLOAD DUP5 PUSH1 0x0 ADD MLOAD PUSH2 0x1F5D SWAP2 SWAP1 PUSH2 0x2AC1 JUMP JUMPDEST JUMPDEST SWAP1 POP PUSH1 0x1 DUP2 PUSH2 0xFFFF AND EQ SWAP2 POP POP PUSH2 0x1F75 JUMP JUMPDEST PUSH1 0x0 SWAP1 POP JUMPDEST SWAP3 SWAP2 POP POP JUMP JUMPDEST PUSH1 0x60 DUP2 SWAP1 POP SWAP2 SWAP1 POP JUMP JUMPDEST PUSH1 0x0 DUP2 PUSH1 0x0 ADD SLOAD SWAP1 POP SWAP2 SWAP1 POP JUMP JUMPDEST PUSH1 0x1 DUP2 PUSH1 0x0 ADD PUSH1 0x0 DUP3 DUP3 SLOAD ADD SWAP3 POP POP DUP2 SWAP1 SSTORE POP POP JUMP JUMPDEST PUSH1 0x40 MLOAD DUP1 PUSH1 0x40 ADD PUSH1 0x40 MSTORE DUP1 PUSH1 0x0 PUSH2 0xFFFF AND DUP2 MSTORE PUSH1 0x20 ADD PUSH1 0x0 PUSH2 0xFFFF AND DUP2 MSTORE POP SWAP1 JUMP JUMPDEST PUSH1 0x0 DUP2 MLOAD SWAP1 POP SWAP2 SWAP1 POP JUMP JUMPDEST PUSH1 0x0 DUP3 DUP3 MSTORE PUSH1 0x20 DUP3 ADD SWAP1 POP SWAP3 SWAP2 POP POP JUMP JUMPDEST PUSH1 0x0 JUMPDEST DUP4 DUP2 LT ISZERO PUSH2 0x2005 JUMPI DUP1 DUP3 ADD MLOAD DUP2 DUP5 ADD MSTORE PUSH1 0x20 DUP2 ADD SWAP1 POP PUSH2 0x1FEA JUMP JUMPDEST PUSH1 0x0 DUP5 DUP5 ADD MSTORE POP POP POP POP JUMP JUMPDEST PUSH1 0x0 PUSH1 0x1F NOT PUSH1 0x1F DUP4 ADD AND SWAP1 POP SWAP2 SWAP1 POP JUMP JUMPDEST PUSH1 0x0 PUSH2 0x202D DUP3 PUSH2 0x1FCB JUMP JUMPDEST PUSH2 0x2037 DUP2 DUP6 PUSH2 0x1FD6 JUMP JUMPDEST SWAP4 POP PUSH2 0x2047 DUP2 DUP6 PUSH1 0x20 DUP7 ADD PUSH2 0x1FE7 JUMP JUMPDEST PUSH2 0x2050 DUP2 PUSH2 0x2011 JUMP JUMPDEST DUP5 ADD SWAP2 POP POP SWAP3 SWAP2 POP POP JUMP JUMPDEST PUSH1 0x0 PUSH1 0x20 DUP3 ADD SWAP1 POP DUP2 DUP2 SUB PUSH1 0x0 DUP4 ADD MSTORE PUSH2 0x2075 DUP2 DUP5 PUSH2 0x2022 JUMP JUMPDEST SWAP1 POP SWAP3 SWAP2 POP POP JUMP JUMPDEST PUSH1 0x0 PUSH1 0x40 MLOAD SWAP1 POP SWAP1 JUMP JUMPDEST PUSH1 0x0 DUP1 REVERT JUMPDEST PUSH1 0x0 DUP1 REVERT JUMPDEST PUSH1 0x0 PUSH2 0xFFFF DUP3 AND SWAP1 POP SWAP2 SWAP1 POP JUMP JUMPDEST PUSH2 0x20A8 DUP2 PUSH2 0x2091 JUMP JUMPDEST DUP2 EQ PUSH2 0x20B3 JUMPI PUSH1 0x0 DUP1 REVERT JUMPDEST POP JUMP JUMPDEST PUSH1 0x0 DUP2 CALLDATALOAD SWAP1 POP PUSH2 0x20C5 DUP2 PUSH2 0x209F JUMP JUMPDEST SWAP3 SWAP2 POP POP JUMP JUMPDEST PUSH1 0x0 PUSH20 0xFFFFFFFFFFFFFFFFFFFFFFFFFFFFFFFFFFFFFFFF DUP3 AND SWAP1 POP SWAP2 SWAP1 POP JUMP JUMPDEST PUSH1 0x0 PUSH2 0x20F6 DUP3 PUSH2 0x20CB JUMP JUMPDEST SWAP1 POP SWAP2 SWAP1 POP JUMP JUMPDEST PUSH2 0x2106 DUP2 PUSH2 0x20EB JUMP JUMPDEST DUP2 EQ PUSH2 0x2111 JUMPI PUSH1 0x0 DUP1 REVERT JUMPDEST POP JUMP JUMPDEST PUSH1 0x0 DUP2 CALLDATALOAD SWAP1 POP PUSH2 0x2123 DUP2 PUSH2 0x20FD JUMP JUMPDEST SWAP3 SWAP2 POP POP JUMP JUMPDEST PUSH1 0x0 DUP1 PUSH1 0x0 PUSH1 0x60 DUP5 DUP7 SUB SLT ISZERO PUSH2 0x2142 JUMPI PUSH2 0x2141 PUSH2 0x2087 JUMP JUMPDEST JUMPDEST PUSH1 0x0 PUSH2 0x2150 DUP7 DUP3 DUP8 ADD PUSH2 0x20B6 JUMP JUMPDEST SWAP4 POP POP PUSH1 0x20 PUSH2 0x2161 DUP7 DUP3 DUP8 ADD PUSH2 0x20B6 JUMP JUMPDEST SWAP3 POP POP PUSH1 0x40 PUSH2 0x2172 DUP7 DUP3 DUP8 ADD PUSH2 0x2114 JUMP JUMPDEST SWAP2 POP POP SWAP3 POP SWAP3 POP SWAP3 JUMP JUMPDEST PUSH1 0x0 DUP1 PUSH1 0x40 DUP4 DUP6 SUB SLT ISZERO PUSH2 0x2193 JUMPI PUSH2 0x2192 PUSH2 0x2087 JUMP JUMPDEST JUMPDEST PUSH1 0x0 PUSH2 0x21A1 DUP6 DUP3 DUP7 ADD PUSH2 0x20B6 JUMP JUMPDEST SWAP3 POP POP PUSH1 0x20 PUSH2 0x21B2 DUP6 DUP3 DUP7 ADD PUSH2 0x20B6 JUMP JUMPDEST SWAP2 POP POP SWAP3 POP SWAP3 SWAP1 POP JUMP JUMPDEST PUSH2 0x21C5 DUP2 PUSH2 0x20EB JUMP JUMPDEST DUP3 MSTORE POP POP JUMP JUMPDEST PUSH1 0x0 PUSH1 0x20 DUP3 ADD SWAP1 POP PUSH2 0x21E0 PUSH1 0x0 DUP4 ADD DUP5 PUSH2 0x21BC JUMP JUMPDEST SWAP3 SWAP2 POP POP JUMP JUMPDEST PUSH1 0x0 DUP2 MLOAD SWAP1 POP SWAP2 SWAP1 POP JUMP JUMPDEST PUSH1 0x0 DUP3 DUP3 MSTORE PUSH1 0x20 DUP3 ADD SWAP1 POP SWAP3 SWAP2 POP POP JUMP JUMPDEST PUSH1 0x0 DUP2 SWAP1 POP PUSH1 0x20 DUP3 ADD SWAP1 POP SWAP2 SWAP1 POP JUMP JUMPDEST PUSH2 0x221B DUP2 PUSH2 0x20EB JUMP JUMPDEST DUP3 MSTORE POP POP JUMP JUMPDEST PUSH1 0x0 PUSH2 0x222D DUP4 DUP4 PUSH2 0x2212 JUMP JUMPDEST PUSH1 0x20 DUP4 ADD SWAP1 POP SWAP3 SWAP2 POP POP JUMP JUMPDEST PUSH1 0x0 PUSH1 0x20 DUP3 ADD SWAP1 POP SWAP2 SWAP1 POP JUMP JUMPDEST PUSH1 0x0 PUSH2 0x2251 DUP3 PUSH2 0x21E6 JUMP JUMPDEST PUSH2 0x225B DUP2 DUP6 PUSH2 0x21F1 JUMP JUMPDEST SWAP4 POP PUSH2 0x2266 DUP4 PUSH2 0x2202 JUMP JUMPDEST DUP1 PUSH1 0x0 JUMPDEST DUP4 DUP2 LT ISZERO PUSH2 0x2297 JUMPI DUP2 MLOAD PUSH2 0x227E DUP9 DUP3 PUSH2 0x2221 JUMP JUMPDEST SWAP8 POP PUSH2 0x2289 DUP4 PUSH2 0x2239 JUMP JUMPDEST SWAP3 POP POP PUSH1 0x1 DUP2 ADD SWAP1 POP PUSH2 0x226A JUMP JUMPDEST POP DUP6 SWAP4 POP POP POP POP SWAP3 SWAP2 POP POP JUMP JUMPDEST PUSH1 0x0 PUSH1 0x20 DUP3 ADD SWAP1 POP DUP2 DUP2 SUB PUSH1 0x0 DUP4 ADD MSTORE PUSH2 0x22BE DUP2 DUP5 PUSH2 0x2246 JUMP JUMPDEST SWAP1 POP SWAP3 SWAP2 POP POP JUMP JUMPDEST PUSH1 0x0 DUP2 SWAP1 POP SWAP2 SWAP1 POP JUMP JUMPDEST PUSH2 0x22D9 DUP2 PUSH2 0x22C6 JUMP JUMPDEST DUP3 MSTORE POP POP JUMP JUMPDEST PUSH1 0x0 PUSH1 0x20 DUP3 ADD SWAP1 POP PUSH2 0x22F4 PUSH1 0x0 DUP4 ADD DUP5 PUSH2 0x22D0 JUMP JUMPDEST SWAP3 SWAP2 POP POP JUMP JUMPDEST PUSH2 0x2303 DUP2 PUSH2 0x22C6 JUMP JUMPDEST DUP2 EQ PUSH2 0x230E JUMPI PUSH1 0x0 DUP1 REVERT JUMPDEST POP JUMP JUMPDEST PUSH1 0x0 DUP2 CALLDATALOAD SWAP1 POP PUSH2 0x2320 DUP2 PUSH2 0x22FA JUMP JUMPDEST SWAP3 SWAP2 POP POP JUMP JUMPDEST PUSH1 0x0 PUSH1 0x20 DUP3 DUP5 SUB SLT ISZERO PUSH2 0x233C JUMPI PUSH2 0x233B PUSH2 0x2087 JUMP JUMPDEST JUMPDEST PUSH1 0x0 PUSH2 0x234A DUP5 DUP3 DUP6 ADD PUSH2 0x2311 JUMP JUMPDEST SWAP2 POP POP SWAP3 SWAP2 POP POP JUMP JUMPDEST PUSH1 0x0 DUP1 PUSH1 0x0 DUP1 PUSH1 0x80 DUP6 DUP8 SUB SLT ISZERO PUSH2 0x236D JUMPI PUSH2 0x236C PUSH2 0x2087 JUMP JUMPDEST JUMPDEST PUSH1 0x0 PUSH2 0x237B DUP8 DUP3 DUP9 ADD PUSH2 0x20B6 JUMP JUMPDEST SWAP5 POP POP PUSH1 0x20 PUSH2 0x238C DUP8 DUP3 DUP9 ADD PUSH2 0x20B6 JUMP JUMPDEST SWAP4 POP POP PUSH1 0x40 PUSH2 0x239D DUP8 DUP3 DUP9 ADD PUSH2 0x20B6 JUMP JUMPDEST SWAP3 POP POP PUSH1 0x60 PUSH2 0x23AE DUP8 DUP3 DUP9 ADD PUSH2 0x20B6 JUMP JUMPDEST SWAP2 POP POP SWAP3 SWAP6 SWAP2 SWAP5 POP SWAP3 POP JUMP JUMPDEST PUSH1 0x0 DUP2 MLOAD SWAP1 POP SWAP2 SWAP1 POP JUMP JUMPDEST PUSH1 0x0 DUP3 DUP3 MSTORE PUSH1 0x20 DUP3 ADD SWAP1 POP SWAP3 SWAP2 POP POP JUMP JUMPDEST PUSH1 0x0 DUP2 SWAP1 POP PUSH1 0x20 DUP3 ADD SWAP1 POP SWAP2 SWAP1 POP JUMP JUMPDEST PUSH2 0x23EF DUP2 PUSH2 0x2091 JUMP JUMPDEST DUP3 MSTORE POP POP JUMP JUMPDEST PUSH1 0x40 DUP3 ADD PUSH1 0x0 DUP3 ADD MLOAD PUSH2 0x240B PUSH1 0x0 DUP6 ADD DUP3 PUSH2 0x23E6 JUMP JUMPDEST POP PUSH1 0x20 DUP3 ADD MLOAD PUSH2 0x241E PUSH1 0x20 DUP6 ADD DUP3 PUSH2 0x23E6 JUMP JUMPDEST POP POP POP POP JUMP JUMPDEST PUSH1 0x0 PUSH2 0x2430 DUP4 DUP4 PUSH2 0x23F5 JUMP JUMPDEST PUSH1 0x40 DUP4 ADD SWAP1 POP SWAP3 SWAP2 POP POP JUMP JUMPDEST PUSH1 0x0 PUSH1 0x20 DUP3 ADD SWAP1 POP SWAP2 SWAP1 POP JUMP JUMPDEST PUSH1 0x0 PUSH2 0x2454 DUP3 PUSH2 0x23BA JUMP JUMPDEST PUSH2 0x245E DUP2 DUP6 PUSH2 0x23C5 JUMP JUMPDEST SWAP4 POP PUSH2 0x2469 DUP4 PUSH2 0x23D6 JUMP JUMPDEST DUP1 PUSH1 0x0 JUMPDEST DUP4 DUP2 LT ISZERO PUSH2 0x249A JUMPI DUP2 MLOAD PUSH2 0x2481 DUP9 DUP3 PUSH2 0x2424 JUMP JUMPDEST SWAP8 POP PUSH2 0x248C DUP4 PUSH2 0x243C JUMP JUMPDEST SWAP3 POP POP PUSH1 0x1 DUP2 ADD SWAP1 POP PUSH2 0x246D JUMP JUMPDEST POP DUP6 SWAP4 POP POP POP POP SWAP3 SWAP2 POP POP JUMP JUMPDEST PUSH1 0x0 PUSH1 0x20 DUP3 ADD SWAP1 POP DUP2 DUP2 SUB PUSH1 0x0 DUP4 ADD MSTORE PUSH2 0x24C1 DUP2 DUP5 PUSH2 0x2449 JUMP JUMPDEST SWAP1 POP SWAP3 SWAP2 POP POP JUMP JUMPDEST PUSH1 0x0 DUP1 PUSH1 0x0 PUSH1 0x60 DUP5 DUP7 SUB SLT ISZERO PUSH2 0x24E2 JUMPI PUSH2 0x24E1 PUSH2 0x2087 JUMP JUMPDEST JUMPDEST PUSH1 0x0 PUSH2 0x24F0 DUP7 DUP3 DUP8 ADD PUSH2 0x2114 JUMP JUMPDEST SWAP4 POP POP PUSH1 0x20 PUSH2 0x2501 DUP7 DUP3 DUP8 ADD PUSH2 0x2114 JUMP JUMPDEST SWAP3 POP POP PUSH1 0x40 PUSH2 0x2512 DUP7 DUP3 DUP8 ADD PUSH2 0x2311 JUMP JUMPDEST SWAP2 POP POP SWAP3 POP SWAP3 POP SWAP3 JUMP JUMPDEST PUSH1 0x0 DUP2 ISZERO ISZERO SWAP1 POP SWAP2 SWAP1 POP JUMP JUMPDEST PUSH2 0x2531 DUP2 PUSH2 0x251C JUMP JUMPDEST DUP3 MSTORE POP POP JUMP JUMPDEST PUSH1 0x0 PUSH1 0x20 DUP3 ADD SWAP1 POP PUSH2 0x254C PUSH1 0x0 DUP4 ADD DUP5 PUSH2 0x2528 JUMP JUMPDEST SWAP3 SWAP2 POP POP JUMP JUMPDEST PUSH1 0x0 DUP1 PUSH1 0x40 DUP4 DUP6 SUB SLT ISZERO PUSH2 0x2569 JUMPI PUSH2 0x2568 PUSH2 0x2087 JUMP JUMPDEST JUMPDEST PUSH1 0x0 PUSH2 0x2577 DUP6 DUP3 DUP7 ADD PUSH2 0x2114 JUMP JUMPDEST SWAP3 POP POP PUSH1 0x20 PUSH2 0x2588 DUP6 DUP3 DUP7 ADD PUSH2 0x2311 JUMP JUMPDEST SWAP2 POP POP SWAP3 POP SWAP3 SWAP1 POP JUMP JUMPDEST PUSH1 0x0 PUSH1 0xFF DUP3 AND SWAP1 POP SWAP2 SWAP1 POP JUMP JUMPDEST PUSH2 0x25A8 DUP2 PUSH2 0x2592 JUMP JUMPDEST DUP3 MSTORE POP POP JUMP JUMPDEST PUSH1 0x0 PUSH1 0x20 DUP3 ADD SWAP1 POP PUSH2 0x25C3 PUSH1 0x0 DUP4 ADD DUP5 PUSH2 0x259F JUMP JUMPDEST SWAP3 SWAP2 POP POP JUMP JUMPDEST PUSH1 0x0 DUP1 REVERT JUMPDEST PUSH32 0x4E487B7100000000000000000000000000000000000000000000000000000000 PUSH1 0x0 MSTORE PUSH1 0x41 PUSH1 0x4 MSTORE PUSH1 0x24 PUSH1 0x0 REVERT JUMPDEST PUSH2 0x2606 DUP3 PUSH2 0x2011 JUMP JUMPDEST DUP2 ADD DUP2 DUP2 LT PUSH8 0xFFFFFFFFFFFFFFFF DUP3 GT OR ISZERO PUSH2 0x2625 JUMPI PUSH2 0x2624 PUSH2 0x25CE JUMP JUMPDEST JUMPDEST DUP1 PUSH1 0x40 MSTORE POP POP POP JUMP JUMPDEST PUSH1 0x0 PUSH2 0x2638 PUSH2 0x207D JUMP JUMPDEST SWAP1 POP PUSH2 0x2644 DUP3 DUP3 PUSH2 0x25FD JUMP JUMPDEST SWAP2 SWAP1 POP JUMP JUMPDEST PUSH1 0x0 PUSH8 0xFFFFFFFFFFFFFFFF DUP3 GT ISZERO PUSH2 0x2664 JUMPI PUSH2 0x2663 PUSH2 0x25CE JUMP JUMPDEST JUMPDEST PUSH1 0x20 DUP3 MUL SWAP1 POP PUSH1 0x20 DUP2 ADD SWAP1 POP SWAP2 SWAP1 POP JUMP JUMPDEST PUSH1 0x0 DUP1 REVERT JUMPDEST PUSH1 0x0 DUP1 REVERT JUMPDEST PUSH1 0x0 PUSH1 0x40 DUP3 DUP5 SUB SLT ISZERO PUSH2 0x2695 JUMPI PUSH2 0x2694 PUSH2 0x267A JUMP JUMPDEST JUMPDEST PUSH2 0x269F PUSH1 0x40 PUSH2 0x262E JUMP JUMPDEST SWAP1 POP PUSH1 0x0 PUSH2 0x26AF DUP5 DUP3 DUP6 ADD PUSH2 0x20B6 JUMP JUMPDEST PUSH1 0x0 DUP4 ADD MSTORE POP PUSH1 0x20 PUSH2 0x26C3 DUP5 DUP3 DUP6 ADD PUSH2 0x20B6 JUMP JUMPDEST PUSH1 0x20 DUP4 ADD MSTORE POP SWAP3 SWAP2 POP POP JUMP JUMPDEST PUSH1 0x0 PUSH2 0x26E2 PUSH2 0x26DD DUP5 PUSH2 0x2649 JUMP JUMPDEST PUSH2 0x262E JUMP JUMPDEST SWAP1 POP DUP1 DUP4 DUP3 MSTORE PUSH1 0x20 DUP3 ADD SWAP1 POP PUSH1 0x40 DUP5 MUL DUP4 ADD DUP6 DUP2 GT ISZERO PUSH2 0x2705 JUMPI PUSH2 0x2704 PUSH2 0x2675 JUMP JUMPDEST JUMPDEST DUP4 JUMPDEST DUP2 DUP2 LT ISZERO PUSH2 0x272E JUMPI DUP1 PUSH2 0x271A DUP9 DUP3 PUSH2 0x267F JUMP JUMPDEST DUP5 MSTORE PUSH1 0x20 DUP5 ADD SWAP4 POP POP PUSH1 0x40 DUP2 ADD SWAP1 POP PUSH2 0x2707 JUMP JUMPDEST POP POP POP SWAP4 SWAP3 POP POP POP JUMP JUMPDEST PUSH1 0x0 DUP3 PUSH1 0x1F DUP4 ADD SLT PUSH2 0x274D JUMPI PUSH2 0x274C PUSH2 0x25C9 JUMP JUMPDEST JUMPDEST DUP2 CALLDATALOAD PUSH2 0x275D DUP5 DUP3 PUSH1 0x20 DUP7 ADD PUSH2 0x26CF JUMP JUMPDEST SWAP2 POP POP SWAP3 SWAP2 POP POP JUMP JUMPDEST PUSH1 0x0 PUSH1 0x20 DUP3 DUP5 SUB SLT ISZERO PUSH2 0x277C JUMPI PUSH2 0x277B PUSH2 0x2087 JUMP JUMPDEST JUMPDEST PUSH1 0x0 DUP3 ADD CALLDATALOAD PUSH8 0xFFFFFFFFFFFFFFFF DUP2 GT ISZERO PUSH2 0x279A JUMPI PUSH2 0x2799 PUSH2 0x208C JUMP JUMPDEST JUMPDEST PUSH2 0x27A6 DUP5 DUP3 DUP6 ADD PUSH2 0x2738 JUMP JUMPDEST SWAP2 POP POP SWAP3 SWAP2 POP POP JUMP JUMPDEST PUSH1 0x0 DUP2 MLOAD SWAP1 POP SWAP2 SWAP1 POP JUMP JUMPDEST PUSH1 0x0 DUP3 DUP3 MSTORE PUSH1 0x20 DUP3 ADD SWAP1 POP SWAP3 SWAP2 POP POP JUMP JUMPDEST PUSH1 0x0 DUP2 SWAP1 POP PUSH1 0x20 DUP3 ADD SWAP1 POP SWAP2 SWAP1 POP JUMP JUMPDEST PUSH2 0x27E4 DUP2 PUSH2 0x22C6 JUMP JUMPDEST DUP3 MSTORE POP POP JUMP JUMPDEST PUSH1 0x0 PUSH2 0x27F6 DUP4 DUP4 PUSH2 0x27DB JUMP JUMPDEST PUSH1 0x20 DUP4 ADD SWAP1 POP SWAP3 SWAP2 POP POP JUMP JUMPDEST PUSH1 0x0 PUSH1 0x20 DUP3 ADD SWAP1 POP SWAP2 SWAP1 POP JUMP JUMPDEST PUSH1 0x0 PUSH2 0x281A DUP3 PUSH2 0x27AF JUMP JUMPDEST PUSH2 0x2824 DUP2 DUP6 PUSH2 0x27BA JUMP JUMPDEST SWAP4 POP PUSH2 0x282F DUP4 PUSH2 0x27CB JUMP JUMPDEST DUP1 PUSH1 0x0 JUMPDEST DUP4 DUP2 LT ISZERO PUSH2 0x2860 JUMPI DUP2 MLOAD PUSH2 0x2847 DUP9 DUP3 PUSH2 0x27EA JUMP JUMPDEST SWAP8 POP PUSH2 0x2852 DUP4 PUSH2 0x2802 JUMP JUMPDEST SWAP3 POP POP PUSH1 0x1 DUP2 ADD SWAP1 POP PUSH2 0x2833 JUMP JUMPDEST POP DUP6 SWAP4 POP POP POP POP SWAP3 SWAP2 POP POP JUMP JUMPDEST PUSH1 0x0 PUSH1 0x20 DUP3 ADD SWAP1 POP DUP2 DUP2 SUB PUSH1 0x0 DUP4 ADD MSTORE PUSH2 0x2887 DUP2 DUP5 PUSH2 0x280F JUMP JUMPDEST SWAP1 POP SWAP3 SWAP2 POP POP JUMP JUMPDEST PUSH1 0x0 PUSH1 0x20 DUP3 DUP5 SUB SLT ISZERO PUSH2 0x28A5 JUMPI PUSH2 0x28A4 PUSH2 0x2087 JUMP JUMPDEST JUMPDEST PUSH1 0x0 PUSH2 0x28B3 DUP5 DUP3 DUP6 ADD PUSH2 0x2114 JUMP JUMPDEST SWAP2 POP POP SWAP3 SWAP2 POP POP JUMP JUMPDEST PUSH2 0x28C5 DUP2 PUSH2 0x2091 JUMP JUMPDEST DUP3 MSTORE POP POP JUMP JUMPDEST PUSH1 0x0 PUSH1 0x40 DUP3 ADD SWAP1 POP PUSH2 0x28E0 PUSH1 0x0 DUP4 ADD DUP6 PUSH2 0x28BC JUMP JUMPDEST PUSH2 0x28ED PUSH1 0x20 DUP4 ADD DUP5 PUSH2 0x28BC JUMP JUMPDEST SWAP4 SWAP3 POP POP POP JUMP JUMPDEST PUSH1 0x0 DUP1 REVERT JUMPDEST PUSH1 0x0 PUSH8 0xFFFFFFFFFFFFFFFF DUP3 GT ISZERO PUSH2 0x2914 JUMPI PUSH2 0x2913 PUSH2 0x25CE JUMP JUMPDEST JUMPDEST PUSH2 0x291D DUP3 PUSH2 0x2011 JUMP JUMPDEST SWAP1 POP PUSH1 0x20 DUP2 ADD SWAP1 POP SWAP2 SWAP1 POP JUMP JUMPDEST DUP3 DUP2 DUP4 CALLDATACOPY PUSH1 0x0 DUP4 DUP4 ADD MSTORE POP POP POP JUMP JUMPDEST PUSH1 0x0 PUSH2 0x294C PUSH2 0x2947 DUP5 PUSH2 0x28F9 JUMP JUMPDEST PUSH2 0x262E JUMP JUMPDEST SWAP1 POP DUP3 DUP2 MSTORE PUSH1 0x20 DUP2 ADD DUP5 DUP5 DUP5 ADD GT ISZERO PUSH2 0x2968 JUMPI PUSH2 0x2967 PUSH2 0x28F4 JUMP JUMPDEST JUMPDEST PUSH2 0x2973 DUP5 DUP3 DUP6 PUSH2 0x292A JUMP JUMPDEST POP SWAP4 SWAP3 POP POP POP JUMP JUMPDEST PUSH1 0x0 DUP3 PUSH1 0x1F DUP4 ADD SLT PUSH2 0x2990 JUMPI PUSH2 0x298F PUSH2 0x25C9 JUMP JUMPDEST JUMPDEST DUP2 CALLDATALOAD PUSH2 0x29A0 DUP5 DUP3 PUSH1 0x20 DUP7 ADD PUSH2 0x2939 JUMP JUMPDEST SWAP2 POP POP SWAP3 SWAP2 POP POP JUMP JUMPDEST PUSH1 0x0 PUSH1 0x20 DUP3 DUP5 SUB SLT ISZERO PUSH2 0x29BF JUMPI PUSH2 0x29BE PUSH2 0x2087 JUMP JUMPDEST JUMPDEST PUSH1 0x0 DUP3 ADD CALLDATALOAD PUSH8 0xFFFFFFFFFFFFFFFF DUP2 GT ISZERO PUSH2 0x29DD JUMPI PUSH2 0x29DC PUSH2 0x208C JUMP JUMPDEST JUMPDEST PUSH2 0x29E9 DUP5 DUP3 DUP6 ADD PUSH2 0x297B JUMP JUMPDEST SWAP2 POP POP SWAP3 SWAP2 POP POP JUMP JUMPDEST PUSH1 0x0 DUP1 PUSH1 0x80 DUP4 DUP6 SUB SLT ISZERO PUSH2 0x2A09 JUMPI PUSH2 0x2A08 PUSH2 0x2087 JUMP JUMPDEST JUMPDEST PUSH1 0x0 PUSH2 0x2A17 DUP6 DUP3 DUP7 ADD PUSH2 0x267F JUMP JUMPDEST SWAP3 POP POP PUSH1 0x40 PUSH2 0x2A28 DUP6 DUP3 DUP7 ADD PUSH2 0x267F JUMP JUMPDEST SWAP2 POP POP SWAP3 POP SWAP3 SWAP1 POP JUMP JUMPDEST PUSH32 0x4E487B7100000000000000000000000000000000000000000000000000000000 PUSH1 0x0 MSTORE PUSH1 0x22 PUSH1 0x4 MSTORE PUSH1 0x24 PUSH1 0x0 REVERT JUMPDEST PUSH1 0x0 PUSH1 0x2 DUP3 DIV SWAP1 POP PUSH1 0x1 DUP3 AND DUP1 PUSH2 0x2A79 JUMPI PUSH1 0x7F DUP3 AND SWAP2 POP JUMPDEST PUSH1 0x20 DUP3 LT DUP2 SUB PUSH2 0x2A8C JUMPI PUSH2 0x2A8B PUSH2 0x2A32 JUMP JUMPDEST JUMPDEST POP SWAP2 SWAP1 POP JUMP JUMPDEST PUSH32 0x4E487B7100000000000000000000000000000000000000000000000000000000 PUSH1 0x0 MSTORE PUSH1 0x11 PUSH1 0x4 MSTORE PUSH1 0x24 PUSH1 0x0 REVERT JUMPDEST PUSH1 0x0 PUSH2 0x2ACC DUP3 PUSH2 0x2091 JUMP JUMPDEST SWAP2 POP PUSH2 0x2AD7 DUP4 PUSH2 0x2091 JUMP JUMPDEST SWAP3 POP DUP3 DUP3 SUB SWAP1 POP PUSH2 0xFFFF DUP2 GT ISZERO PUSH2 0x2AF1 JUMPI PUSH2 0x2AF0 PUSH2 0x2A92 JUMP JUMPDEST JUMPDEST SWAP3 SWAP2 POP POP JUMP JUMPDEST PUSH32 0x696E76616C6964206C617469747564652070726F766964656400000000000000 PUSH1 0x0 DUP3 ADD MSTORE POP JUMP JUMPDEST PUSH1 0x0 PUSH2 0x2B2D PUSH1 0x19 DUP4 PUSH2 0x1FD6 JUMP JUMPDEST SWAP2 POP PUSH2 0x2B38 DUP3 PUSH2 0x2AF7 JUMP JUMPDEST PUSH1 0x20 DUP3 ADD SWAP1 POP SWAP2 SWAP1 POP JUMP JUMPDEST PUSH1 0x0 PUSH1 0x20 DUP3 ADD SWAP1 POP DUP2 DUP2 SUB PUSH1 0x0 DUP4 ADD MSTORE PUSH2 0x2B5C DUP2 PUSH2 0x2B20 JUMP JUMPDEST SWAP1 POP SWAP2 SWAP1 POP JUMP JUMPDEST PUSH32 0x696E76616C6964206D696E206C617469747564652070726F7669646564000000 PUSH1 0x0 DUP3 ADD MSTORE POP JUMP JUMPDEST PUSH1 0x0 PUSH2 0x2B99 PUSH1 0x1D DUP4 PUSH2 0x1FD6 JUMP JUMPDEST SWAP2 POP PUSH2 0x2BA4 DUP3 PUSH2 0x2B63 JUMP JUMPDEST PUSH1 0x20 DUP3 ADD SWAP1 POP SWAP2 SWAP1 POP JUMP JUMPDEST PUSH1 0x0 PUSH1 0x20 DUP3 ADD SWAP1 POP DUP2 DUP2 SUB PUSH1 0x0 DUP4 ADD MSTORE PUSH2 0x2BC8 DUP2 PUSH2 0x2B8C JUMP JUMPDEST SWAP1 POP SWAP2 SWAP1 POP JUMP JUMPDEST PUSH32 0x4E487B7100000000000000000000000000000000000000000000000000000000 PUSH1 0x0 MSTORE PUSH1 0x32 PUSH1 0x4 MSTORE PUSH1 0x24 PUSH1 0x0 REVERT JUMPDEST PUSH1 0x0 PUSH2 0x2C09 DUP3 PUSH2 0x2091 JUMP JUMPDEST SWAP2 POP PUSH2 0xFFFF DUP3 SUB PUSH2 0x2C1D JUMPI PUSH2 0x2C1C PUSH2 0x2A92 JUMP JUMPDEST JUMPDEST PUSH1 0x1 DUP3 ADD SWAP1 POP SWAP2 SWAP1 POP JUMP JUMPDEST PUSH32 0x5F696E646578206C6172676572207468616E207573657227732062616C616E63 PUSH1 0x0 DUP3 ADD MSTORE PUSH32 0x6500000000000000000000000000000000000000000000000000000000000000 PUSH1 0x20 DUP3 ADD MSTORE POP JUMP JUMPDEST PUSH1 0x0 PUSH2 0x2C84 PUSH1 0x21 DUP4 PUSH2 0x1FD6 JUMP JUMPDEST SWAP2 POP PUSH2 0x2C8F DUP3 PUSH2 0x2C28 JUMP JUMPDEST PUSH1 0x40 DUP3 ADD SWAP1 POP SWAP2 SWAP1 POP JUMP JUMPDEST PUSH1 0x0 PUSH1 0x20 DUP3 ADD SWAP1 POP DUP2 DUP2 SUB PUSH1 0x0 DUP4 ADD MSTORE PUSH2 0x2CB3 DUP2 PUSH2 0x2C77 JUMP JUMPDEST SWAP1 POP SWAP2 SWAP1 POP JUMP JUMPDEST PUSH1 0x0 PUSH2 0x2CC5 DUP3 PUSH2 0x2091 JUMP JUMPDEST SWAP2 POP PUSH2 0x2CD0 DUP4 PUSH2 0x2091 JUMP JUMPDEST SWAP3 POP DUP3 DUP3 ADD SWAP1 POP PUSH2 0xFFFF DUP2 GT ISZERO PUSH2 0x2CEA JUMPI PUSH2 0x2CE9 PUSH2 0x2A92 JUMP JUMPDEST JUMPDEST SWAP3 SWAP2 POP POP JUMP JUMPDEST PUSH32 0x666F756E6420646973636F6E6E6563746564206C617474697475646573000000 PUSH1 0x0 DUP3 ADD MSTORE POP JUMP JUMPDEST PUSH1 0x0 PUSH2 0x2D26 PUSH1 0x1D DUP4 PUSH2 0x1FD6 JUMP JUMPDEST SWAP2 POP PUSH2 0x2D31 DUP3 PUSH2 0x2CF0 JUMP JUMPDEST PUSH1 0x20 DUP3 ADD SWAP1 POP SWAP2 SWAP1 POP JUMP JUMPDEST PUSH1 0x0 PUSH1 0x20 DUP3 ADD SWAP1 POP DUP2 DUP2 SUB PUSH1 0x0 DUP4 ADD MSTORE PUSH2 0x2D55 DUP2 PUSH2 0x2D19 JUMP JUMPDEST SWAP1 POP SWAP2 SWAP1 POP JUMP JUMPDEST PUSH32 0x5368617065206973206E6F7420636F6E76657800000000000000000000000000 PUSH1 0x0 DUP3 ADD MSTORE POP JUMP JUMPDEST PUSH1 0x0 PUSH2 0x2D92 PUSH1 0x13 DUP4 PUSH2 0x1FD6 JUMP JUMPDEST SWAP2 POP PUSH2 0x2D9D DUP3 PUSH2 0x2D5C JUMP JUMPDEST PUSH1 0x20 DUP3 ADD SWAP1 POP SWAP2 SWAP1 POP JUMP JUMPDEST PUSH1 0x0 PUSH1 0x20 DUP3 ADD SWAP1 POP DUP2 DUP2 SUB PUSH1 0x0 DUP4 ADD MSTORE PUSH2 0x2DC1 DUP2 PUSH2 0x2D85 JUMP JUMPDEST SWAP1 POP SWAP2 SWAP1 POP JUMP JUMPDEST PUSH32 0x676170206265747765656E206C61746974756465732064657465637465640000 PUSH1 0x0 DUP3 ADD MSTORE POP JUMP JUMPDEST PUSH1 0x0 PUSH2 0x2DFE PUSH1 0x1E DUP4 PUSH2 0x1FD6 JUMP JUMPDEST SWAP2 POP PUSH2 0x2E09 DUP3 PUSH2 0x2DC8 JUMP JUMPDEST PUSH1 0x20 DUP3 ADD SWAP1 POP SWAP2 SWAP1 POP JUMP JUMPDEST PUSH1 0x0 PUSH1 0x20 DUP3 ADD SWAP1 POP DUP2 DUP2 SUB PUSH1 0x0 DUP4 ADD MSTORE PUSH2 0x2E2D DUP2 PUSH2 0x2DF1 JUMP JUMPDEST SWAP1 POP SWAP2 SWAP1 POP JUMP JUMPDEST PUSH32 0x496E636C75646564204C6F636174696F6E204F776E6564000000000000000000 PUSH1 0x0 DUP3 ADD MSTORE POP JUMP JUMPDEST PUSH1 0x0 PUSH2 0x2E6A PUSH1 0x17 DUP4 PUSH2 0x1FD6 JUMP JUMPDEST SWAP2 POP PUSH2 0x2E75 DUP3 PUSH2 0x2E34 JUMP JUMPDEST PUSH1 0x20 DUP3 ADD SWAP1 POP SWAP2 SWAP1 POP JUMP JUMPDEST PUSH1 0x0 PUSH1 0x20 DUP3 ADD SWAP1 POP DUP2 DUP2 SUB PUSH1 0x0 DUP4 ADD MSTORE PUSH2 0x2E99 DUP2 PUSH2 0x2E5D JUMP JUMPDEST SWAP1 POP SWAP2 SWAP1 POP JUMP JUMPDEST PUSH32 0x676170206265747765656E206C6F6E6769747564657320646574656374656400 PUSH1 0x0 DUP3 ADD MSTORE POP JUMP JUMPDEST PUSH1 0x0 PUSH2 0x2ED6 PUSH1 0x1F DUP4 PUSH2 0x1FD6 JUMP JUMPDEST SWAP2 POP PUSH2 0x2EE1 DUP3 PUSH2 0x2EA0 JUMP JUMPDEST PUSH1 0x20 DUP3 ADD SWAP1 POP SWAP2 SWAP1 POP JUMP JUMPDEST PUSH1 0x0 PUSH1 0x20 DUP3 ADD SWAP1 POP DUP2 DUP2 SUB PUSH1 0x0 DUP4 ADD MSTORE PUSH2 0x2F05 DUP2 PUSH2 0x2EC9 JUMP JUMPDEST SWAP1 POP SWAP2 SWAP1 POP JUMP JUMPDEST PUSH32 0x436F6E7665786974792062726F6B656E206F6E2072616E6765456E6400000000 PUSH1 0x0 DUP3 ADD MSTORE POP JUMP JUMPDEST PUSH1 0x0 PUSH2 0x2F42 PUSH1 0x1C DUP4 PUSH2 0x1FD6 JUMP JUMPDEST SWAP2 POP PUSH2 0x2F4D DUP3 PUSH2 0x2F0C JUMP JUMPDEST PUSH1 0x20 DUP3 ADD SWAP1 POP SWAP2 SWAP1 POP JUMP JUMPDEST PUSH1 0x0 PUSH1 0x20 DUP3 ADD SWAP1 POP DUP2 DUP2 SUB PUSH1 0x0 DUP4 ADD MSTORE PUSH2 0x2F71 DUP2 PUSH2 0x2F35 JUMP JUMPDEST SWAP1 POP SWAP2 SWAP1 POP JUMP JUMPDEST PUSH32 0x6C617473206172652061646A6163656E7420627574206E6F74206C6F6E676974 PUSH1 0x0 DUP3 ADD MSTORE PUSH32 0x7564657300000000000000000000000000000000000000000000000000000000 PUSH1 0x20 DUP3 ADD MSTORE POP JUMP JUMPDEST PUSH1 0x0 PUSH2 0x2FD4 PUSH1 0x24 DUP4 PUSH2 0x1FD6 JUMP JUMPDEST SWAP2 POP PUSH2 0x2FDF DUP3 PUSH2 0x2F78 JUMP JUMPDEST PUSH1 0x40 DUP3 ADD SWAP1 POP SWAP2 SWAP1 POP JUMP JUMPDEST PUSH1 0x0 PUSH1 0x20 DUP3 ADD SWAP1 POP DUP2 DUP2 SUB PUSH1 0x0 DUP4 ADD MSTORE PUSH2 0x3003 DUP2 PUSH2 0x2FC7 JUMP JUMPDEST SWAP1 POP SWAP2 SWAP1 POP JUMP JUMPDEST PUSH1 0x0 PUSH2 0x3015 DUP3 PUSH2 0x22C6 JUMP JUMPDEST SWAP2 POP PUSH2 0x3020 DUP4 PUSH2 0x22C6 JUMP JUMPDEST SWAP3 POP DUP3 DUP3 ADD SWAP1 POP DUP1 DUP3 GT ISZERO PUSH2 0x3038 JUMPI PUSH2 0x3037 PUSH2 0x2A92 JUMP JUMPDEST JUMPDEST SWAP3 SWAP2 POP POP JUMP JUMPDEST PUSH1 0x0 PUSH1 0x40 DUP3 ADD SWAP1 POP PUSH2 0x3053 PUSH1 0x0 DUP4 ADD DUP6 PUSH2 0x21BC JUMP JUMPDEST DUP2 DUP2 SUB PUSH1 0x20 DUP4 ADD MSTORE PUSH2 0x3065 DUP2 DUP5 PUSH2 0x2449 JUMP JUMPDEST SWAP1 POP SWAP4 SWAP3 POP POP POP JUMP JUMPDEST PUSH32 0x726571756573746564206164647265737320686173206E6F2062616C616E6365 PUSH1 0x0 DUP3 ADD MSTORE POP JUMP JUMPDEST PUSH1 0x0 PUSH2 0x30A4 PUSH1 0x20 DUP4 PUSH2 0x1FD6 JUMP JUMPDEST SWAP2 POP PUSH2 0x30AF DUP3 PUSH2 0x306E JUMP JUMPDEST PUSH1 0x20 DUP3 ADD SWAP1 POP SWAP2 SWAP1 POP JUMP JUMPDEST PUSH1 0x0 PUSH1 0x20 DUP3 ADD SWAP1 POP DUP2 DUP2 SUB PUSH1 0x0 DUP4 ADD MSTORE PUSH2 0x30D3 DUP2 PUSH2 0x3097 JUMP JUMPDEST SWAP1 POP SWAP2 SWAP1 POP JUMP JUMPDEST PUSH32 0x496E76616C696420636F6F7264696E6174657300000000000000000000000000 PUSH1 0x0 DUP3 ADD MSTORE POP JUMP JUMPDEST PUSH1 0x0 PUSH2 0x3110 PUSH1 0x13 DUP4 PUSH2 0x1FD6 JUMP JUMPDEST SWAP2 POP PUSH2 0x311B DUP3 PUSH2 0x30DA JUMP JUMPDEST PUSH1 0x20 DUP3 ADD SWAP1 POP SWAP2 SWAP1 POP JUMP JUMPDEST PUSH1 0x0 PUSH1 0x20 DUP3 ADD SWAP1 POP DUP2 DUP2 SUB PUSH1 0x0 DUP4 ADD MSTORE PUSH2 0x313F DUP2 PUSH2 0x3103 JUMP JUMPDEST SWAP1 POP SWAP2 SWAP1 POP JUMP JUMPDEST PUSH32 0x4C6F636174696F6E20616C7265616479206F776E656400000000000000000000 PUSH1 0x0 DUP3 ADD MSTORE POP JUMP JUMPDEST PUSH1 0x0 PUSH2 0x317C PUSH1 0x16 DUP4 PUSH2 0x1FD6 JUMP JUMPDEST SWAP2 POP PUSH2 0x3187 DUP3 PUSH2 0x3146 JUMP JUMPDEST PUSH1 0x20 DUP3 ADD SWAP1 POP SWAP2 SWAP1 POP JUMP JUMPDEST PUSH1 0x0 PUSH1 0x20 DUP3 ADD SWAP1 POP DUP2 DUP2 SUB PUSH1 0x0 DUP4 ADD MSTORE PUSH2 0x31AB DUP2 PUSH2 0x316F JUMP JUMPDEST SWAP1 POP SWAP2 SWAP1 POP JUMP JUMPDEST PUSH1 0x0 PUSH1 0x60 DUP3 ADD SWAP1 POP PUSH2 0x31C7 PUSH1 0x0 DUP4 ADD DUP7 PUSH2 0x21BC JUMP JUMPDEST PUSH2 0x31D4 PUSH1 0x20 DUP4 ADD DUP6 PUSH2 0x28BC JUMP JUMPDEST PUSH2 0x31E1 PUSH1 0x40 DUP4 ADD DUP5 PUSH2 0x28BC JUMP JUMPDEST SWAP5 SWAP4 POP POP POP POP JUMP INVALID LOG2 PUSH5 0x6970667358 0x22 SLT KECCAK256 TSTORE 0xCB SWAP1 0xDC STATICCALL 0xA7 SMOD SGT EQ PUSH25 0x64E112A775DC3936F60B84C16D43157076DD9A1F429564736F PUSH13 0x63430008180033000000000000 "},"methodIdentifiers":{"areAdjacent((uint16,uint16),(uint16,uint16))":"df1ab202","balanceOf(address)":"70a08231","decimals()":"313ce567","getAllOwners()":"16c12746","getLocFromId(bytes)":"e60ff80b","getOwnedLocationsInBounds(uint16,uint16,uint16,uint16)":"1d040423","getOwnedTokenIds(address)":"4fac7e41","getUserLocations(address)":"db6c0a27","hasOwner(uint16,uint16)":"97e1a1ed","isValidLoc(uint16,uint16)":"29d17641","landOwners(uint256)":"1a0f76b1","locIdToOwner(bytes)":"a3ae4f5c","locationMap(uint16,uint16)":"106cf579","locationOwner(uint16,uint16)":"b3403537","mintMultipleLocations((uint16,uint16)[])":"4d04bd65","mintSingleLocation(uint16,uint16)":"749d5928","name()":"06fdde03","ownerOf(uint256)":"6352211e","ownerToTokenIds(address,uint256)":"68a596c7","symbol()":"95d89b41","tokenIdToLocation(uint256)":"8cf9527f","tokenIdToOwner(uint256)":"6e9e48ef","tokenOfOwnerByIndex(address,uint256)":"2f745c59","totalSupply()":"18160ddd","transfer(uint16,uint16,address)":"0ab9a71f","transferFrom(address,address,uint256)":"23b872dd"}}}}}