{
  "_format": "hh-sol-artifact-1",
  "contractName": "Gaia_Location",
  "sourceName": "contracts/Gaia_Location.sol",
  "abi": [
    {
      "inputs": [],
      "stateMutability": "nonpayable",
      "type": "constructor"
    },
    {
      "anonymous": false,
      "inputs": [
        {
          "indexed": false,
          "internalType": "address",
          "name": "to",
          "type": "address"
        },
        {
          "indexed": false,
          "internalType": "uint16",
          "name": "lat",
          "type": "uint16"
        },
        {
          "indexed": false,
          "internalType": "uint16",
          "name": "lng",
          "type": "uint16"
        }
      ],
      "name": "LocationClaimed",
      "type": "event"
    },
    {
      "anonymous": false,
      "inputs": [
        {
          "indexed": false,
          "internalType": "address",
          "name": "to",
          "type": "address"
        },
        {
          "components": [
            {
              "internalType": "uint16",
              "name": "lat",
              "type": "uint16"
            },
            {
              "internalType": "uint16",
              "name": "lng",
              "type": "uint16"
            }
          ],
          "indexed": false,
          "internalType": "struct Gaia_Location.Loc[]",
          "name": "locs",
          "type": "tuple[]"
        }
      ],
      "name": "LocationsClaimed",
      "type": "event"
    },
    {
      "anonymous": false,
      "inputs": [
        {
          "indexed": true,
          "internalType": "address",
          "name": "_from",
          "type": "address"
        },
        {
          "indexed": true,
          "internalType": "address",
          "name": "_to",
          "type": "address"
        },
        {
          "indexed": true,
          "internalType": "uint256",
          "name": "_tokenId",
          "type": "uint256"
        }
      ],
      "name": "Transfer",
      "type": "event"
    },
    {
      "inputs": [
        {
          "components": [
            {
              "internalType": "uint16",
              "name": "lat",
              "type": "uint16"
            },
            {
              "internalType": "uint16",
              "name": "lng",
              "type": "uint16"
            }
          ],
          "internalType": "struct Gaia_Location.Loc",
          "name": "loc1",
          "type": "tuple"
        },
        {
          "components": [
            {
              "internalType": "uint16",
              "name": "lat",
              "type": "uint16"
            },
            {
              "internalType": "uint16",
              "name": "lng",
              "type": "uint16"
            }
          ],
          "internalType": "struct Gaia_Location.Loc",
          "name": "loc2",
          "type": "tuple"
        }
      ],
      "name": "areAdjacent",
      "outputs": [
        {
          "internalType": "bool",
          "name": "",
          "type": "bool"
        }
      ],
      "stateMutability": "pure",
      "type": "function"
    },
    {
      "inputs": [
        {
          "internalType": "address",
          "name": "",
          "type": "address"
        }
      ],
      "name": "balanceOf",
      "outputs": [
        {
          "internalType": "uint256",
          "name": "",
          "type": "uint256"
        }
      ],
      "stateMutability": "view",
      "type": "function"
    },
    {
      "inputs": [],
      "name": "decimals",
      "outputs": [
        {
          "internalType": "uint8",
          "name": "",
          "type": "uint8"
        }
      ],
      "stateMutability": "view",
      "type": "function"
    },
    {
      "inputs": [],
      "name": "getAllOwners",
      "outputs": [
        {
          "internalType": "address[]",
          "name": "",
          "type": "address[]"
        }
      ],
      "stateMutability": "view",
      "type": "function"
    },
    {
      "inputs": [
        {
          "internalType": "bytes",
          "name": "locId",
          "type": "bytes"
        }
      ],
      "name": "getLocFromId",
      "outputs": [
        {
          "internalType": "string",
          "name": "",
          "type": "string"
        }
      ],
      "stateMutability": "pure",
      "type": "function"
    },
    {
      "inputs": [
        {
          "internalType": "uint16",
          "name": "minOwnedLat",
          "type": "uint16"
        },
        {
          "internalType": "uint16",
          "name": "minOwnedLng",
          "type": "uint16"
        },
        {
          "internalType": "uint16",
          "name": "maxOwnedLat",
          "type": "uint16"
        },
        {
          "internalType": "uint16",
          "name": "maxOwnedLng",
          "type": "uint16"
        }
      ],
      "name": "getOwnedLocationsInBounds",
      "outputs": [
        {
          "components": [
            {
              "internalType": "uint16",
              "name": "lat",
              "type": "uint16"
            },
            {
              "internalType": "uint16",
              "name": "lng",
              "type": "uint16"
            }
          ],
          "internalType": "struct Gaia_Location.Loc[]",
          "name": "ownedLocs",
          "type": "tuple[]"
        }
      ],
      "stateMutability": "view",
      "type": "function"
    },
    {
      "inputs": [
        {
          "internalType": "address",
          "name": "_owner",
          "type": "address"
        }
      ],
      "name": "getOwnedTokenIds",
      "outputs": [
        {
          "internalType": "uint256[]",
          "name": "",
          "type": "uint256[]"
        }
      ],
      "stateMutability": "view",
      "type": "function"
    },
    {
      "inputs": [
        {
          "internalType": "address",
          "name": "_owner",
          "type": "address"
        }
      ],
      "name": "getUserLocations",
      "outputs": [
        {
          "components": [
            {
              "internalType": "uint16",
              "name": "lat",
              "type": "uint16"
            },
            {
              "internalType": "uint16",
              "name": "lng",
              "type": "uint16"
            }
          ],
          "internalType": "struct Gaia_Location.Loc[]",
          "name": "",
          "type": "tuple[]"
        }
      ],
      "stateMutability": "view",
      "type": "function"
    },
    {
      "inputs": [
        {
          "internalType": "uint16",
          "name": "lat",
          "type": "uint16"
        },
        {
          "internalType": "uint16",
          "name": "lng",
          "type": "uint16"
        }
      ],
      "name": "hasOwner",
      "outputs": [
        {
          "internalType": "bool",
          "name": "",
          "type": "bool"
        }
      ],
      "stateMutability": "view",
      "type": "function"
    },
    {
      "inputs": [
        {
          "internalType": "uint16",
          "name": "lat",
          "type": "uint16"
        },
        {
          "internalType": "uint16",
          "name": "lng",
          "type": "uint16"
        }
      ],
      "name": "isValidLoc",
      "outputs": [
        {
          "internalType": "bool",
          "name": "",
          "type": "bool"
        }
      ],
      "stateMutability": "pure",
      "type": "function"
    },
    {
      "inputs": [
        {
          "internalType": "uint256",
          "name": "",
          "type": "uint256"
        }
      ],
      "name": "landOwners",
      "outputs": [
        {
          "internalType": "address",
          "name": "",
          "type": "address"
        }
      ],
      "stateMutability": "view",
      "type": "function"
    },
    {
      "inputs": [
        {
          "internalType": "bytes",
          "name": "",
          "type": "bytes"
        }
      ],
      "name": "locIdToOwner",
      "outputs": [
        {
          "internalType": "address",
          "name": "",
          "type": "address"
        }
      ],
      "stateMutability": "view",
      "type": "function"
    },
    {
      "inputs": [
        {
          "internalType": "uint16",
          "name": "",
          "type": "uint16"
        },
        {
          "internalType": "uint16",
          "name": "",
          "type": "uint16"
        }
      ],
      "name": "locationMap",
      "outputs": [
        {
          "internalType": "address",
          "name": "",
          "type": "address"
        }
      ],
      "stateMutability": "view",
      "type": "function"
    },
    {
      "inputs": [
        {
          "internalType": "uint16",
          "name": "lat",
          "type": "uint16"
        },
        {
          "internalType": "uint16",
          "name": "lng",
          "type": "uint16"
        }
      ],
      "name": "locationOwner",
      "outputs": [
        {
          "internalType": "address",
          "name": "",
          "type": "address"
        }
      ],
      "stateMutability": "view",
      "type": "function"
    },
    {
      "inputs": [
        {
          "components": [
            {
              "internalType": "uint16",
              "name": "lat",
              "type": "uint16"
            },
            {
              "internalType": "uint16",
              "name": "lng",
              "type": "uint16"
            }
          ],
          "internalType": "struct Gaia_Location.Loc[]",
          "name": "locs",
          "type": "tuple[]"
        }
      ],
      "name": "mintMultipleLocations",
      "outputs": [
        {
          "internalType": "uint256[]",
          "name": "tokenIds",
          "type": "uint256[]"
        }
      ],
      "stateMutability": "nonpayable",
      "type": "function"
    },
    {
      "inputs": [
        {
          "internalType": "uint16",
          "name": "lat",
          "type": "uint16"
        },
        {
          "internalType": "uint16",
          "name": "lng",
          "type": "uint16"
        }
      ],
      "name": "mintSingleLocation",
      "outputs": [
        {
          "internalType": "uint256",
          "name": "",
          "type": "uint256"
        }
      ],
      "stateMutability": "nonpayable",
      "type": "function"
    },
    {
      "inputs": [],
      "name": "name",
      "outputs": [
        {
          "internalType": "string",
          "name": "",
          "type": "string"
        }
      ],
      "stateMutability": "view",
      "type": "function"
    },
    {
      "inputs": [
        {
          "internalType": "uint256",
          "name": "_tokenId",
          "type": "uint256"
        }
      ],
      "name": "ownerOf",
      "outputs": [
        {
          "internalType": "address",
          "name": "",
          "type": "address"
        }
      ],
      "stateMutability": "view",
      "type": "function"
    },
    {
      "inputs": [
        {
          "internalType": "address",
          "name": "",
          "type": "address"
        },
        {
          "internalType": "uint256",
          "name": "",
          "type": "uint256"
        }
      ],
      "name": "ownerToTokenIds",
      "outputs": [
        {
          "internalType": "uint256",
          "name": "",
          "type": "uint256"
        }
      ],
      "stateMutability": "view",
      "type": "function"
    },
    {
      "inputs": [],
      "name": "symbol",
      "outputs": [
        {
          "internalType": "string",
          "name": "",
          "type": "string"
        }
      ],
      "stateMutability": "view",
      "type": "function"
    },
    {
      "inputs": [
        {
          "internalType": "uint256",
          "name": "",
          "type": "uint256"
        }
      ],
      "name": "tokenIdToLocation",
      "outputs": [
        {
          "internalType": "uint16",
          "name": "lat",
          "type": "uint16"
        },
        {
          "internalType": "uint16",
          "name": "lng",
          "type": "uint16"
        }
      ],
      "stateMutability": "view",
      "type": "function"
    },
    {
      "inputs": [
        {
          "internalType": "uint256",
          "name": "",
          "type": "uint256"
        }
      ],
      "name": "tokenIdToOwner",
      "outputs": [
        {
          "internalType": "address",
          "name": "",
          "type": "address"
        }
      ],
      "stateMutability": "view",
      "type": "function"
    },
    {
      "inputs": [
        {
          "internalType": "address",
          "name": "_owner",
          "type": "address"
        },
        {
          "internalType": "uint256",
          "name": "_index",
          "type": "uint256"
        }
      ],
      "name": "tokenOfOwnerByIndex",
      "outputs": [
        {
          "internalType": "uint256",
          "name": "",
          "type": "uint256"
        }
      ],
      "stateMutability": "view",
      "type": "function"
    },
    {
      "inputs": [],
      "name": "totalSupply",
      "outputs": [
        {
          "internalType": "uint256",
          "name": "",
          "type": "uint256"
        }
      ],
      "stateMutability": "view",
      "type": "function"
    },
    {
      "inputs": [
        {
          "internalType": "uint16",
          "name": "lat",
          "type": "uint16"
        },
        {
          "internalType": "uint16",
          "name": "lng",
          "type": "uint16"
        },
        {
          "internalType": "address",
          "name": "to",
          "type": "address"
        }
      ],
      "name": "transfer",
      "outputs": [],
      "stateMutability": "nonpayable",
      "type": "function"
    },
    {
      "inputs": [
        {
          "internalType": "address",
          "name": "_from",
          "type": "address"
        },
        {
          "internalType": "address",
          "name": "_to",
          "type": "address"
        },
        {
          "internalType": "uint256",
          "name": "_tokenId",
          "type": "uint256"
        }
      ],
      "name": "transferFrom",
      "outputs": [],
      "stateMutability": "payable",
      "type": "function"
    }
  ],
  "bytecode": "0x60806040526040518060400160405280600481526020017f4741494100000000000000000000000000000000000000000000000000000000815250600190816200004a919062000362565b506040518060400160405280600781526020017f552b3146333044000000000000000000000000000000000000000000000000008152506002908162000091919062000362565b506000600360006101000a81548160ff021916908360ff160217905550348015620000bb57600080fd5b50600061465061ffff16618ca061ffff16620000d8919062000478565b90508060078190555050620004c3565b600081519050919050565b7f4e487b7100000000000000000000000000000000000000000000000000000000600052604160045260246000fd5b7f4e487b7100000000000000000000000000000000000000000000000000000000600052602260045260246000fd5b600060028204905060018216806200016a57607f821691505b60208210810362000180576200017f62000122565b5b50919050565b60008190508160005260206000209050919050565b60006020601f8301049050919050565b600082821b905092915050565b600060088302620001ea7fffffffffffffffffffffffffffffffffffffffffffffffffffffffffffffffff82620001ab565b620001f68683620001ab565b95508019841693508086168417925050509392505050565b6000819050919050565b6000819050919050565b6000620002436200023d62000237846200020e565b62000218565b6200020e565b9050919050565b6000819050919050565b6200025f8362000222565b620002776200026e826200024a565b848454620001b8565b825550505050565b600090565b6200028e6200027f565b6200029b81848462000254565b505050565b5b81811015620002c357620002b760008262000284565b600181019050620002a1565b5050565b601f8211156200031257620002dc8162000186565b620002e7846200019b565b81016020851015620002f7578190505b6200030f62000306856200019b565b830182620002a0565b50505b505050565b600082821c905092915050565b6000620003376000198460080262000317565b1980831691505092915050565b600062000352838362000324565b9150826002028217905092915050565b6200036d82620000e8565b67ffffffffffffffff811115620003895762000388620000f3565b5b62000395825462000151565b620003a2828285620002c7565b600060209050601f831160018114620003da5760008415620003c5578287015190505b620003d1858262000344565b86555062000441565b601f198416620003ea8662000186565b60005b828110156200041457848901518255600182019150602085019450602081019050620003ed565b8683101562000434578489015162000430601f89168262000324565b8355505b6001600288020188555050505b505050505050565b7f4e487b7100000000000000000000000000000000000000000000000000000000600052601160045260246000fd5b600062000485826200020e565b915062000492836200020e565b9250828202620004a2816200020e565b91508282048414831517620004bc57620004bb62000449565b5b5092915050565b61321f80620004d36000396000f3fe6080604052600436106101815760003560e01c80636352211e116100d157806395d89b411161008a578063b340353711610064578063b340353714610636578063db6c0a2714610673578063df1ab202146106b0578063e60ff80b146106ed57610181565b806395d89b411461059157806397e1a1ed146105bc578063a3ae4f5c146105f957610181565b80636352211e1461042257806368a596c71461045f5780636e9e48ef1461049c57806370a08231146104d9578063749d5928146105165780638cf9527f1461055357610181565b80631d0404231161013e5780632f745c59116101185780632f745c5914610340578063313ce5671461037d5780634d04bd65146103a85780634fac7e41146103e557610181565b80631d040423146102aa57806323b872dd146102e757806329d176411461030357610181565b806306fdde03146101865780630ab9a71f146101b1578063106cf579146101da57806316c127461461021757806318160ddd146102425780631a0f76b11461026d575b600080fd5b34801561019257600080fd5b5061019b61072a565b6040516101a8919061205b565b60405180910390f35b3480156101bd57600080fd5b506101d860048036038101906101d39190612129565b6107b8565b005b3480156101e657600080fd5b5061020160048036038101906101fc919061217c565b6107bd565b60405161020e91906121cb565b60405180910390f35b34801561022357600080fd5b5061022c6107ff565b60405161023991906122a4565b60405180910390f35b34801561024e57600080fd5b5061025761088d565b60405161026491906122df565b60405180910390f35b34801561027957600080fd5b50610294600480360381019061028f9190612326565b610893565b6040516102a191906121cb565b60405180910390f35b3480156102b657600080fd5b506102d160048036038101906102cc9190612353565b6108d2565b6040516102de91906124a7565b60405180910390f35b61030160048036038101906102fc91906124c9565b610a7f565b005b34801561030f57600080fd5b5061032a6004803603810190610325919061217c565b610c51565b6040516103379190612537565b60405180910390f35b34801561034c57600080fd5b5061036760048036038101906103629190612552565b610c7d565b60405161037491906122df565b60405180910390f35b34801561038957600080fd5b50610392610d64565b60405161039f91906125ae565b60405180910390f35b3480156103b457600080fd5b506103cf60048036038101906103ca9190612766565b610d77565b6040516103dc919061286d565b60405180910390f35b3480156103f157600080fd5b5061040c6004803603810190610407919061288f565b6115c0565b604051610419919061286d565b60405180910390f35b34801561042e57600080fd5b5061044960048036038101906104449190612326565b6116d9565b60405161045691906121cb565b60405180910390f35b34801561046b57600080fd5b5061048660048036038101906104819190612552565b611716565b60405161049391906122df565b60405180910390f35b3480156104a857600080fd5b506104c360048036038101906104be9190612326565b611747565b6040516104d091906121cb565b60405180910390f35b3480156104e557600080fd5b5061050060048036038101906104fb919061288f565b61177a565b60405161050d91906122df565b60405180910390f35b34801561052257600080fd5b5061053d6004803603810190610538919061217c565b611792565b60405161054a91906122df565b60405180910390f35b34801561055f57600080fd5b5061057a60048036038101906105759190612326565b611ad9565b6040516105889291906128cb565b60405180910390f35b34801561059d57600080fd5b506105a6611b19565b6040516105b3919061205b565b60405180910390f35b3480156105c857600080fd5b506105e360048036038101906105de919061217c565b611ba7565b6040516105f09190612537565b60405180910390f35b34801561060557600080fd5b50610620600480360381019061061b91906129a9565b611bea565b60405161062d91906121cb565b60405180910390f35b34801561064257600080fd5b5061065d6004803603810190610658919061217c565b611c33565b60405161066a91906121cb565b60405180910390f35b34801561067f57600080fd5b5061069a6004803603810190610695919061288f565b611c92565b6040516106a791906124a7565b60405180910390f35b3480156106bc57600080fd5b506106d760048036038101906106d291906129f2565b611e58565b6040516106e49190612537565b60405180910390f35b3480156106f957600080fd5b50610714600480360381019061070f91906129a9565b611f7b565b604051610721919061205b565b60405180910390f35b6001805461073790612a61565b80601f016020809104026020016040519081016040528092919081815260200182805461076390612a61565b80156107b05780601f10610785576101008083540402835291602001916107b0565b820191906000526020600020905b81548152906001019060200180831161079357829003601f168201915b505050505081565b505050565b60086020528160005260406000206020528060005260406000206000915091509054906101000a900473ffffffffffffffffffffffffffffffffffffffff1681565b6060600680548060200260200160405190810160405280929190818152602001828054801561088357602002820191906000526020600020905b8160009054906101000a900473ffffffffffffffffffffffffffffffffffffffff1673ffffffffffffffffffffffffffffffffffffffff1681526020019060010190808311610839575b5050505050905090565b60075481565b600681815481106108a357600080fd5b906000526020600020016000915054906101000a900473ffffffffffffffffffffffffffffffffffffffff1681565b60606108de8585610c51565b6108e757600080fd5b6108f18383610c51565b6108fa57600080fd5b8261ffff168561ffff1611158015610926575060c861ffff16858461091f9190612ac1565b61ffff1611155b610965576040517f08c379a000000000000000000000000000000000000000000000000000000000815260040161095c90612b43565b60405180910390fd5b8161ffff168461ffff1614158015610991575060c861ffff16848361098a9190612ac1565b61ffff1611155b6109d0576040517f08c379a00000000000000000000000000000000000000000000000000000000081526004016109c790612baf565b60405180910390fd5b6000808690505b8461ffff168161ffff161015610a755760008690505b8461ffff168161ffff161015610a6757610a078282611ba7565b15610a5a5760405180604001604052808361ffff1681526020018261ffff16815250848461ffff1681518110610a4057610a3f612bcf565b5b60200260200101819052508280610a5690612bfe565b9350505b80806001019150506109ed565b5080806001019150506109d7565b5050949350505050565b803373ffffffffffffffffffffffffffffffffffffffff166009600083815260200190815260200160002060009054906101000a900473ffffffffffffffffffffffffffffffffffffffff1673ffffffffffffffffffffffffffffffffffffffff1614610aeb57600080fd5b3373ffffffffffffffffffffffffffffffffffffffff166009600084815260200190815260200160002060009054906101000a900473ffffffffffffffffffffffffffffffffffffffff1673ffffffffffffffffffffffffffffffffffffffff1614610b5657600080fd5b8373ffffffffffffffffffffffffffffffffffffffff166009600084815260200190815260200160002060009054906101000a900473ffffffffffffffffffffffffffffffffffffffff1673ffffffffffffffffffffffffffffffffffffffff1614610bc157600080fd5b3373ffffffffffffffffffffffffffffffffffffffff168473ffffffffffffffffffffffffffffffffffffffff1614610bf957600080fd5b826009600084815260200190815260200160002060006101000a81548173ffffffffffffffffffffffffffffffffffffffff021916908373ffffffffffffffffffffffffffffffffffffffff16021790555050505050565b600061465061ffff168361ffff16108015610c755750618ca061ffff168261ffff16105b905092915050565b6000600460008473ffffffffffffffffffffffffffffffffffffffff1673ffffffffffffffffffffffffffffffffffffffff168152602001908152602001600020548211610d00576040517f08c379a0000000000000000000000000000000000000000000000000000000008152600401610cf790612c9a565b60405180910390fd5b600a60008473ffffffffffffffffffffffffffffffffffffffff1673ffffffffffffffffffffffffffffffffffffffff1681526020019081526020016000208281548110610d5157610d50612bcf565b5b9060005260206000200154905092915050565b600360009054906101000a900460ff1681565b60606000825103610dd357600067ffffffffffffffff811115610d9d57610d9c6125ce565b5b604051908082528060200260200182016040528015610dcb5781602001602082028036833780820191505090505b5090506115bb565b815167ffffffffffffffff811115610dee57610ded6125ce565b5b604051908082528060200260200182016040528015610e1c5781602001602082028036833780820191505090505b50905060008060009050600080858261ffff1681518110610e4057610e3f612bcf565b5b60200260200101519050610e52611fa9565b60008260200151905060008060005b8a518761ffff1610156114765760008861ffff1614610ef357600189610e879190612cba565b61ffff168b8861ffff1681518110610ea257610ea1612bcf565b5b60200260200101516000015161ffff1614610ef2576040517f08c379a0000000000000000000000000000000000000000000000000000000008152600401610ee990612d3c565b60405180910390fd5b5b8a8761ffff1681518110610f0a57610f09612bcf565b5b602002602001015160000151985060008b8861ffff1681518110610f3157610f30612bcf565b5b60200260200101516020015190508461ffff168161ffff16118015610f54575082155b15610f625760019250610fb5565b8215610fb4578461ffff168161ffff161015610fb3576040517f08c379a0000000000000000000000000000000000000000000000000000000008152600401610faa90612da8565b60405180910390fd5b5b5b6000805b8d518a61ffff16108015610ff657508b61ffff168e8b61ffff1681518110610fe457610fe3612bcf565b5b60200260200101516000015161ffff16145b15611396578d8a61ffff168151811061101257611011612bcf565b5b6020026020010151985061102e89600001518a60200151610c51565b61106d576040517f08c379a000000000000000000000000000000000000000000000000000000000815260040161106490612e14565b60405180910390fd5b600073ffffffffffffffffffffffffffffffffffffffff166110978a600001518b60200151611c33565b73ffffffffffffffffffffffffffffffffffffffff16146110ed576040517f08c379a00000000000000000000000000000000000000000000000000000000081526004016110e490612e80565b60405180910390fd5b60008261ffff1614611158576001886020015161110a9190612cba565b61ffff16896020015161ffff1614611157576040517f08c379a000000000000000000000000000000000000000000000000000000000815260040161114e90612eec565b60405180910390fd5b5b818061116390612bfe565b92505060008b61ffff160361117b57600190506111b3565b60011515811515146111b2578661ffff16896020015161ffff16101580156111af57508561ffff16896020015161ffff1611155b90505b5b60006111bf6000611f85565b90506111cb6000611f93565b33600860008c6000015161ffff1661ffff16815260200190815260200160002060008c6020015161ffff1661ffff16815260200190815260200160002060006101000a81548173ffffffffffffffffffffffffffffffffffffffff021916908373ffffffffffffffffffffffffffffffffffffffff160217905550336009600083815260200190815260200160002060006101000a81548173ffffffffffffffffffffffffffffffffffffffff021916908373ffffffffffffffffffffffffffffffffffffffff160217905550808e8c61ffff16815181106112b0576112af612bcf565b5b602002602001018181525050600a60003373ffffffffffffffffffffffffffffffffffffffff1673ffffffffffffffffffffffffffffffffffffffff16815260200190815260200160002081908060018154018082558091505060019003906000526020600020016000909190919091505589600b600083815260200190815260200160002060008201518160000160006101000a81548161ffff021916908361ffff16021790555060208201518160000160026101000a81548161ffff021916908361ffff1602179055509050508998508a8061138d90612bfe565b9b505050610fb9565b8a806113a190612bfe565b9b50506000886020015190508661ffff168161ffff161080156113c2575084155b156113d05760019450611423565b8415611422578661ffff168161ffff161115611421576040517f08c379a000000000000000000000000000000000000000000000000000000000815260040161141890612f58565b60405180910390fd5b5b5b886020015196508397508161146d576040517f08c379a000000000000000000000000000000000000000000000000000000000815260040161146490612fea565b60405180910390fd5b50505050610e61565b6000600460003373ffffffffffffffffffffffffffffffffffffffff1673ffffffffffffffffffffffffffffffffffffffff1681526020019081526020016000205403611521576006339080600181540180825580915050600190039060005260206000200160009091909190916101000a81548173ffffffffffffffffffffffffffffffffffffffff021916908373ffffffffffffffffffffffffffffffffffffffff1602179055505b8951600460003373ffffffffffffffffffffffffffffffffffffffff1673ffffffffffffffffffffffffffffffffffffffff1681526020019081526020016000206000828254611571919061300a565b925050819055507fba0c73cf1d048680a4f027c842bfb33f33be6d4a550be278758342ad8a506247338c6040516115a992919061303e565b60405180910390a15050505050505050505b919050565b60606000600460008473ffffffffffffffffffffffffffffffffffffffff1673ffffffffffffffffffffffffffffffffffffffff1681526020019081526020016000205411611644576040517f08c379a000000000000000000000000000000000000000000000000000000000815260040161163b906130ba565b60405180910390fd5b600a60008373ffffffffffffffffffffffffffffffffffffffff1673ffffffffffffffffffffffffffffffffffffffff1681526020019081526020016000208054806020026020016040519081016040528092919081815260200182805480156116cd57602002820191906000526020600020905b8154815260200190600101908083116116b9575b50505050509050919050565b60006009600083815260200190815260200160002060009054906101000a900473ffffffffffffffffffffffffffffffffffffffff169050919050565b600a602052816000526040600020818154811061173257600080fd5b90600052602060002001600091509150505481565b60096020528060005260406000206000915054906101000a900473ffffffffffffffffffffffffffffffffffffffff1681565b60046020528060005260406000206000915090505481565b600061179e8383610c51565b6117dd576040517f08c379a00000000000000000000000000000000000000000000000000000000081526004016117d490613126565b60405180910390fd5b6117e78383611ba7565b15611827576040517f08c379a000000000000000000000000000000000000000000000000000000000815260040161181e90613192565b60405180910390fd5b600060405180604001604052808561ffff1681526020018461ffff1681525090506000600460003373ffffffffffffffffffffffffffffffffffffffff1673ffffffffffffffffffffffffffffffffffffffff16815260200190815260200160002054036118f3576006339080600181540180825580915050600190039060005260206000200160009091909190916101000a81548173ffffffffffffffffffffffffffffffffffffffff021916908373ffffffffffffffffffffffffffffffffffffffff1602179055505b60006118ff6000611f85565b905061190b6000611f93565b33600860008761ffff1661ffff16815260200190815260200160002060008661ffff1661ffff16815260200190815260200160002060006101000a81548173ffffffffffffffffffffffffffffffffffffffff021916908373ffffffffffffffffffffffffffffffffffffffff160217905550336009600083815260200190815260200160002060006101000a81548173ffffffffffffffffffffffffffffffffffffffff021916908373ffffffffffffffffffffffffffffffffffffffff160217905550600a60003373ffffffffffffffffffffffffffffffffffffffff1673ffffffffffffffffffffffffffffffffffffffff16815260200190815260200160002081908060018154018082558091505060019003906000526020600020016000909190919091505581600b600083815260200190815260200160002060008201518160000160006101000a81548161ffff021916908361ffff16021790555060208201518160000160026101000a81548161ffff021916908361ffff1602179055509050507f9fc8b54324cee45c93051ffc36cf6b1c1e5157db625a504e253f15ffdc912a80338686604051611ac6939291906131b2565b60405180910390a1809250505092915050565b600b6020528060005260406000206000915090508060000160009054906101000a900461ffff16908060000160029054906101000a900461ffff16905082565b60028054611b2690612a61565b80601f0160208091040260200160405190810160405280929190818152602001828054611b5290612a61565b8015611b9f5780601f10611b7457610100808354040283529160200191611b9f565b820191906000526020600020905b815481529060010190602001808311611b8257829003601f168201915b505050505081565b60008073ffffffffffffffffffffffffffffffffffffffff16611bca8484611c33565b73ffffffffffffffffffffffffffffffffffffffff161415905092915050565b6005818051602081018201805184825260208301602085012081835280955050505050506000915054906101000a900473ffffffffffffffffffffffffffffffffffffffff1681565b6000600860008461ffff1661ffff16815260200190815260200160002060008361ffff1661ffff16815260200190815260200160002060009054906101000a900473ffffffffffffffffffffffffffffffffffffffff16905092915050565b60606000600460008473ffffffffffffffffffffffffffffffffffffffff1673ffffffffffffffffffffffffffffffffffffffff1681526020019081526020016000205403611d3757600067ffffffffffffffff811115611cf657611cf56125ce565b5b604051908082528060200260200182016040528015611d2f57816020015b611d1c611fa9565b815260200190600190039081611d145790505b509050611e53565b6000611d42836115c0565b90506000815167ffffffffffffffff811115611d6157611d606125ce565b5b604051908082528060200260200182016040528015611d9a57816020015b611d87611fa9565b815260200190600190039081611d7f5790505b50905060005b8251811015611e4c57600b6000848381518110611dc057611dbf612bcf565b5b602002602001015181526020019081526020016000206040518060400160405290816000820160009054906101000a900461ffff1661ffff1661ffff1681526020016000820160029054906101000a900461ffff1661ffff1661ffff1681525050828281518110611e3457611e33612bcf565b5b60200260200101819052508080600101915050611da0565b5080925050505b919050565b6000611e6c83600001518460200151610c51565b611e7557600080fd5b611e8782600001518360200151610c51565b611e9057600080fd5b816000015161ffff16836000015161ffff1603611f00576000826020015161ffff16846020015161ffff1611611ed95783602001518360200151611ed49190612ac1565b611eee565b82602001518460200151611eed9190612ac1565b5b905060018161ffff1614915050611f75565b816020015161ffff16836020015161ffff1603611f70576000826000015161ffff16846000015161ffff1611611f495783600001518360000151611f449190612ac1565b611f5e565b82600001518460000151611f5d9190612ac1565b5b905060018161ffff1614915050611f75565b600090505b92915050565b6060819050919050565b600081600001549050919050565b6001816000016000828254019250508190555050565b6040518060400160405280600061ffff168152602001600061ffff1681525090565b600081519050919050565b600082825260208201905092915050565b60005b83811015612005578082015181840152602081019050611fea565b60008484015250505050565b6000601f19601f8301169050919050565b600061202d82611fcb565b6120378185611fd6565b9350612047818560208601611fe7565b61205081612011565b840191505092915050565b600060208201905081810360008301526120758184612022565b905092915050565b6000604051905090565b600080fd5b600080fd5b600061ffff82169050919050565b6120a881612091565b81146120b357600080fd5b50565b6000813590506120c58161209f565b92915050565b600073ffffffffffffffffffffffffffffffffffffffff82169050919050565b60006120f6826120cb565b9050919050565b612106816120eb565b811461211157600080fd5b50565b600081359050612123816120fd565b92915050565b60008060006060848603121561214257612141612087565b5b6000612150868287016120b6565b9350506020612161868287016120b6565b925050604061217286828701612114565b9150509250925092565b6000806040838503121561219357612192612087565b5b60006121a1858286016120b6565b92505060206121b2858286016120b6565b9150509250929050565b6121c5816120eb565b82525050565b60006020820190506121e060008301846121bc565b92915050565b600081519050919050565b600082825260208201905092915050565b6000819050602082019050919050565b61221b816120eb565b82525050565b600061222d8383612212565b60208301905092915050565b6000602082019050919050565b6000612251826121e6565b61225b81856121f1565b935061226683612202565b8060005b8381101561229757815161227e8882612221565b975061228983612239565b92505060018101905061226a565b5085935050505092915050565b600060208201905081810360008301526122be8184612246565b905092915050565b6000819050919050565b6122d9816122c6565b82525050565b60006020820190506122f460008301846122d0565b92915050565b612303816122c6565b811461230e57600080fd5b50565b600081359050612320816122fa565b92915050565b60006020828403121561233c5761233b612087565b5b600061234a84828501612311565b91505092915050565b6000806000806080858703121561236d5761236c612087565b5b600061237b878288016120b6565b945050602061238c878288016120b6565b935050604061239d878288016120b6565b92505060606123ae878288016120b6565b91505092959194509250565b600081519050919050565b600082825260208201905092915050565b6000819050602082019050919050565b6123ef81612091565b82525050565b60408201600082015161240b60008501826123e6565b50602082015161241e60208501826123e6565b50505050565b600061243083836123f5565b60408301905092915050565b6000602082019050919050565b6000612454826123ba565b61245e81856123c5565b9350612469836123d6565b8060005b8381101561249a5781516124818882612424565b975061248c8361243c565b92505060018101905061246d565b5085935050505092915050565b600060208201905081810360008301526124c18184612449565b905092915050565b6000806000606084860312156124e2576124e1612087565b5b60006124f086828701612114565b935050602061250186828701612114565b925050604061251286828701612311565b9150509250925092565b60008115159050919050565b6125318161251c565b82525050565b600060208201905061254c6000830184612528565b92915050565b6000806040838503121561256957612568612087565b5b600061257785828601612114565b925050602061258885828601612311565b9150509250929050565b600060ff82169050919050565b6125a881612592565b82525050565b60006020820190506125c3600083018461259f565b92915050565b600080fd5b7f4e487b7100000000000000000000000000000000000000000000000000000000600052604160045260246000fd5b61260682612011565b810181811067ffffffffffffffff82111715612625576126246125ce565b5b80604052505050565b600061263861207d565b905061264482826125fd565b919050565b600067ffffffffffffffff821115612664576126636125ce565b5b602082029050602081019050919050565b600080fd5b600080fd5b6000604082840312156126955761269461267a565b5b61269f604061262e565b905060006126af848285016120b6565b60008301525060206126c3848285016120b6565b60208301525092915050565b60006126e26126dd84612649565b61262e565b9050808382526020820190506040840283018581111561270557612704612675565b5b835b8181101561272e578061271a888261267f565b845260208401935050604081019050612707565b5050509392505050565b600082601f83011261274d5761274c6125c9565b5b813561275d8482602086016126cf565b91505092915050565b60006020828403121561277c5761277b612087565b5b600082013567ffffffffffffffff81111561279a5761279961208c565b5b6127a684828501612738565b91505092915050565b600081519050919050565b600082825260208201905092915050565b6000819050602082019050919050565b6127e4816122c6565b82525050565b60006127f683836127db565b60208301905092915050565b6000602082019050919050565b600061281a826127af565b61282481856127ba565b935061282f836127cb565b8060005b8381101561286057815161284788826127ea565b975061285283612802565b925050600181019050612833565b5085935050505092915050565b60006020820190508181036000830152612887818461280f565b905092915050565b6000602082840312156128a5576128a4612087565b5b60006128b384828501612114565b91505092915050565b6128c581612091565b82525050565b60006040820190506128e060008301856128bc565b6128ed60208301846128bc565b9392505050565b600080fd5b600067ffffffffffffffff821115612914576129136125ce565b5b61291d82612011565b9050602081019050919050565b82818337600083830152505050565b600061294c612947846128f9565b61262e565b905082815260208101848484011115612968576129676128f4565b5b61297384828561292a565b509392505050565b600082601f8301126129905761298f6125c9565b5b81356129a0848260208601612939565b91505092915050565b6000602082840312156129bf576129be612087565b5b600082013567ffffffffffffffff8111156129dd576129dc61208c565b5b6129e98482850161297b565b91505092915050565b60008060808385031215612a0957612a08612087565b5b6000612a178582860161267f565b9250506040612a288582860161267f565b9150509250929050565b7f4e487b7100000000000000000000000000000000000000000000000000000000600052602260045260246000fd5b60006002820490506001821680612a7957607f821691505b602082108103612a8c57612a8b612a32565b5b50919050565b7f4e487b7100000000000000000000000000000000000000000000000000000000600052601160045260246000fd5b6000612acc82612091565b9150612ad783612091565b9250828203905061ffff811115612af157612af0612a92565b5b92915050565b7f696e76616c6964206c617469747564652070726f766964656400000000000000600082015250565b6000612b2d601983611fd6565b9150612b3882612af7565b602082019050919050565b60006020820190508181036000830152612b5c81612b20565b9050919050565b7f696e76616c6964206d696e206c617469747564652070726f7669646564000000600082015250565b6000612b99601d83611fd6565b9150612ba482612b63565b602082019050919050565b60006020820190508181036000830152612bc881612b8c565b9050919050565b7f4e487b7100000000000000000000000000000000000000000000000000000000600052603260045260246000fd5b6000612c0982612091565b915061ffff8203612c1d57612c1c612a92565b5b600182019050919050565b7f5f696e646578206c6172676572207468616e207573657227732062616c616e6360008201527f6500000000000000000000000000000000000000000000000000000000000000602082015250565b6000612c84602183611fd6565b9150612c8f82612c28565b604082019050919050565b60006020820190508181036000830152612cb381612c77565b9050919050565b6000612cc582612091565b9150612cd083612091565b9250828201905061ffff811115612cea57612ce9612a92565b5b92915050565b7f666f756e6420646973636f6e6e6563746564206c617474697475646573000000600082015250565b6000612d26601d83611fd6565b9150612d3182612cf0565b602082019050919050565b60006020820190508181036000830152612d5581612d19565b9050919050565b7f5368617065206973206e6f7420636f6e76657800000000000000000000000000600082015250565b6000612d92601383611fd6565b9150612d9d82612d5c565b602082019050919050565b60006020820190508181036000830152612dc181612d85565b9050919050565b7f676170206265747765656e206c61746974756465732064657465637465640000600082015250565b6000612dfe601e83611fd6565b9150612e0982612dc8565b602082019050919050565b60006020820190508181036000830152612e2d81612df1565b9050919050565b7f496e636c75646564204c6f636174696f6e204f776e6564000000000000000000600082015250565b6000612e6a601783611fd6565b9150612e7582612e34565b602082019050919050565b60006020820190508181036000830152612e9981612e5d565b9050919050565b7f676170206265747765656e206c6f6e6769747564657320646574656374656400600082015250565b6000612ed6601f83611fd6565b9150612ee182612ea0565b602082019050919050565b60006020820190508181036000830152612f0581612ec9565b9050919050565b7f436f6e7665786974792062726f6b656e206f6e2072616e6765456e6400000000600082015250565b6000612f42601c83611fd6565b9150612f4d82612f0c565b602082019050919050565b60006020820190508181036000830152612f7181612f35565b9050919050565b7f6c617473206172652061646a6163656e7420627574206e6f74206c6f6e67697460008201527f7564657300000000000000000000000000000000000000000000000000000000602082015250565b6000612fd4602483611fd6565b9150612fdf82612f78565b604082019050919050565b6000602082019050818103600083015261300381612fc7565b9050919050565b6000613015826122c6565b9150613020836122c6565b925082820190508082111561303857613037612a92565b5b92915050565b600060408201905061305360008301856121bc565b81810360208301526130658184612449565b90509392505050565b7f726571756573746564206164647265737320686173206e6f2062616c616e6365600082015250565b60006130a4602083611fd6565b91506130af8261306e565b602082019050919050565b600060208201905081810360008301526130d381613097565b9050919050565b7f496e76616c696420636f6f7264696e6174657300000000000000000000000000600082015250565b6000613110601383611fd6565b915061311b826130da565b602082019050919050565b6000602082019050818103600083015261313f81613103565b9050919050565b7f4c6f636174696f6e20616c7265616479206f776e656400000000000000000000600082015250565b600061317c601683611fd6565b915061318782613146565b602082019050919050565b600060208201905081810360008301526131ab8161316f565b9050919050565b60006060820190506131c760008301866121bc565b6131d460208301856128bc565b6131e160408301846128bc565b94935050505056fea26469706673582212205dcb90dcfaa70713147864e112a775dc3936f60b84c16d43157076dd9a1f429564736f6c63430008180033",
  "linkReferences": {},
  "deployedLinkReferences": {}
}